:100000000C947A030C9497030C9497030C94970325
:100010000C9497030C9497030C9497030C949703F8
:100020000C9497030C9497030C94281C0C94641B59
:100030000C9479150C9497030C9497030C949703E4
:100040000C9497030C9497030C9497030C949703C8
:100050000C9497030C9407150C9497030C94970336
:100060000C9497030C9497030C9497030C949703A8
:100070000C9497030C9497030C9497030C94970398
:100080000C9497030C9497030C9497030C94970388
:100090000C9497030C9497030C9497030C94970378
:1000A0000C9497030C9497030C949703920794076E
:1000B0009F07960798079A079C079E07A107A30723
:1000C000A507B007A707A907AB07AD07AF07B2079A
:1000D0005408540892089208CE08EE08C00A190B7A
:1000E0003009190B1D0A1D0A2A0A2A0A2A0A2A0A95
:1000F0002A0A2A0A2A0A2A0A2A0A2A0A2A0A2A0A60
:100100002A0A2A0A2A0A2A0A3B0A630A680A6F0A82
:10011000870AE30BE60BE90BEC0BEF0BF20BF50B8D
:10012000BD17C217CC17C017C517CA17C81775193E
:100130009C193C1B9C193C1BE419071A3C1B051B12
:10014000181BC524C524D824D824CE24D824D824C8
:10015000D824C524C524D324D824D824D3242E00BD
:100160004C00296FE100354100001E00140004001E
:100170001D6134004D001F001A0016001B00E10431
:100180002A00200008000700060050002C00210073
:100190001500090019004F004A00220017000A004C
:1001A000050000006564500001530000000F0000CE
:1001B000E3004F000153000000070000E2002300AD
:1001C0001C000B00110000002961240018000D0024
:1001D000100052004B0025000C000E0036005100AC
:1001E0002800260012000F0037002F002B002700E8
:1001F00013003342387130004E002D003100346856
:10020000E50001510000290001000100010001008A
:1002100000003A001E02200222020100FC5C3B00AA
:100220001F02210223020100C95C3C002F022602AA
:100230002F000100CA5C3D0030022702300001009F
:10024000FB5C3E003102350035020000C35C01005A
:100250000100000001000000FA5C01000100000044
:1002600001000000C25C3F00520051002402000067
:10027000F75C4000240021001E0001000100410045
:10028000250022001F003700C55C42002600230025
:1002900020002700C65C430025022E0231002E00FC
:1002A00001004400450001000100010000000100C0
:1002B0000100010001000100000001000100010037
:1002C00001000100010001000100F2000100010035
:1002D00001000100F000F1000100F4000100010044
:1002E0000100F3000100F500010001000100010020
:1002F00001000000010001000100000001000000F9
:1003000001000100010000000100000001000100E7
:1003100001000100010000000100010001000100D6
:100320000100A9000100010001000100AC00AA00C9
:10033000B600010001000100AB00A80001000100AF
:100340000100010001000100010001000100AE00F8
:10035000010001000000000000000000000000009B
:100360000101010101010101010202020202020276
:100370000203030303030303040404040405050543
:100380000505060606060607070707080808080900
:1003900009090A0A0A0B0B0B0C0C0C0D0D0D0E0EA5
:1003A0000E0F0F1010101111121213131414151533
:1003B00016161717181819191A1A1B1C1C1D1D1EA2
:1003C0001F1F2021212223232425252627282829F1
:1003D0002A2B2C2C2D2E2F30313132333435363719
:1003E00038393A3B3C3D3E3F404142434445464715
:1003F00048494B4C4D4E4F50525354555758595AEB
:100400005C5D5E606163646567686A6B6C6E6F718A
:1004100072747677797A7C7D7F8182848687898BF6
:100420008D8E9092949597999B9D9FA1A2A4A6A82A
:10043000AAACAEB0B2B4B6B9BBBDBFC1C3C5C8CA21
:10044000CCCED0D3D5D7DADCDEE1E3E6E8EAEDEFD7
:10045000F2F4F7F9FCFFFFAA7F554005010902A15C
:100460000185020901A100050919012905150025C9
:100470000195057501810295017503810105010949
:100480003009311581257F950275088106093815D7
:1004900081257F950175088106050C0A38021581B2
:1004A000257F950175088106C0C005010980A1015D
:1004B00085031601002603001A81002A83007510A7
:1004C00095018100C0050C0901A1018504160100F8
:1004D000269C021A01002A9C02751095018100C019
:1004E00005010906A1018505050719E029E71500A1
:1004F0002501950875018102050819012905950551
:10050000750191029501750391010507190029EF05
:100510001500250195F075018102C005010906A1AC
:1005200001050719E029E7150025019508750181E6
:1005300002950175088101050819012905950575C0
:100540000191029501750391010507190029FF1515
:100550000026FF00950675088100C009023B0002D5
:100560000100A0FA090400000103010100092111A2
:100570000100012240000705810308000A09040167
:1005800000010300000009211101000122C0000741
:1005900005820320000A1201100100000008EDFE90
:1005A00007130100010203010403300000001603D9
:1005B0004500720067006F0044006F007800200063
:1005C00045005A00000016034500720067006F00E6
:1005D00044006F007800200045005A00000004032A
:1005E000090400047F3F1F643214643214783C1EF7
:1005F0001E140A052223252628292A2C2D2F3032C5
:10060000333536383A3B3D3E4042434547494A4CF4
:100610004E5051535557595A5C5E60626466686922
:100620006B6D6F71737577797B7D7F81838587892A
:100630008A8C8E90929496989A9C9E9FA1A3A5A72F
:10064000A8AAACAEAFB1B3B4B6B8B9BBBCBEBFC15B
:10065000C2C3C5C6C7C9CACBCCCDCED0D1D2D2D3E6
:10066000D4D5D6D7D7D8D9D9DADADBDBDBDCDCDCFA
:10067000DCDCDDDDDDDDDCDCDCDCDCDBDBDBDADABD
:10068000D9D9D8D7D7D6D5D4D3D2D2D1D0CECDCC34
:10069000CBCAC9C7C6C5C3C2C1BFBEBCBBB9B8B649
:1006A000B4B3B1AFAEACAAA8A7A5A3A19F9E9C9AD4
:1006B00098969492908E8C8A89878583817F7D7BA2
:1006C00079777573716F6D6B6968666462605E5C83
:1006D0005A5957555351504E4C4A49474543424049
:1006E0003E3D3B3A3836353332302F2D2C2A2928DF
:1006F0002625232211241FBECFEFDAE0DEBFCDBFB7
:1007000011E0A0E0B1E0EAECF5E502C005900D9241
:10071000AE3EB107D9F723E0AEEEB1E001C01D92C5
:10072000AF36B207E1F70E94F81D0C94E32A0C944F
:1007300000008F929F92AF92BF92CF92DF92EF9282
:10074000FF920F931F93CF93DF93CDB7DEB7289718
:100750000FB6F894DEBF0FBECDBFFC01F080118153
:1007600083819481892B09F49BC71F3F21F40FEFEC
:10077000F01609F495C76F0185E0DE01119601902E
:100780000D928A95E1F7F601228189819A812223CF
:1007900049F00E94BA16082F682F89819A810E9419
:1007A000331703C00E940617082F26E0129FF0019E
:1007B000112434E5039FE00DF11D1124EF0DF11D0F
:1007C000EE0FFF1FE25AFE4F05911491F601828150
:1007D0000A3FFCE51F07D9F048F4073F3CE5130743
:1007E00091F0093F9CE5190751F0B7C00B3FECE5CC
:1007F0001E07D1F00C3FFCE51F07B1F1AEC0882306
:1008000009F44EC763C0882309F44AC77AC0882315
:1008100009F446C70E94081281E00E94051221E0F7
:100820004FEF6FEF8CEA0CC0882309F439C70E94A0
:10083000081281E00E94051221E040E86FEF86E592
:1008400028960FB6F894DEBF0FBECDBFDF91CF91D3
:100850001F910F91FF90EF90DF90CF90BF90AF90DE
:100860009F908F900C94DF0D882309F419C70E9484
:10087000081281E00E94051221E04FEF6FEF8BE13B
:10088000DFCF1092EF01F60192810A3CFCE51F07D1
:1008900009F49AC208F446C1013D2CE5120709F497
:1008A000E7C240F1053DECE51E0709F407C308F473
:1008B0007DC10D3D8CE5180709F40BC30E3DECE539
:1008C0001E0709F07BC1992309F4EAC628960FB6E2
:1008D000F894DEBF0FBECDBFDF91CF911F910F9176
:1008E000FF90EF90DF90CF90BF90AF909F908F9050
:1008F0000C9410160D3C8CE5180729F4992309F483
:10090000CFC681E016C00E3CECE51E0708F444C1DA
:100910000F3C3CE5130709F495C208F09EC29923E9
:1009200009F4BEC60E94DE0C8250833008F4FFC179
:1009300082E028960FB6F894DEBF0FBECDBFDF91E0
:10094000CF911F910F91FF90EF90DF90CF90BF90CC
:10095000AF909F908F900C940512882319F1033E5D
:100960002CE51207C1F050F4013E8CE5180781F028
:10097000023E9CE51907B1F481E010C0043EECE5AD
:100980001E0759F0053EFCE51F0761F484E006C030
:100990001092C90205C082E001C083E08093C902C1
:1009A0000E947B0E17FF73C0F6018281882309F431
:1009B0006EC0809198028093EE011092980280910F
:1009C000C902813071F048F08230D1F08430F1F406
:1009D00086EE0E94502788E117C082EE0E946327AE
:1009E00015C086E99BE00E944D1888E10E946327AC
:1009F00088E10E94E92686E89BE00E944D1806C027
:100A000082EE0E94632787E50E9450278FE39CE9CE
:100A10000197F1F700C000007801E894F7F85CE076
:100A2000A52EB12CC7010A2C02C0969587950A9471
:100A3000E2F7282F2F7041F0822F90E02A3010F437
:100A40004D9604C0069702C087E290E00E945027AE
:100A500094E0A91AB108ECEFAE16EFEFBE0611F75D
:100A60008091C902813039F040F0823031F0843019
:100A700051F488E206C08CE204C082EE0E94E926AE
:100A800002C00E9450278091EE0180939802003F9F
:100A9000FCE51F07C1F188F4083D3CE51307D9F0D8
:100AA000093D8CE51807D9F1073D9CE5190709F0C8
:100AB000E8CE26E241EE61EE11C0023FECE51E07F2
:100AC00051F128F1033F2CE5120709F0DACE27E2B5
:100AD00046EE66EE03C027E245EE65EEC6012896B7
:100AE0000FB6F894DEBF0FBECDBFDF91CF911F913F
:100AF0000F91FF90EF90DF90CF90BF90AF909F90BD
:100B00008F900C94ED2326E240EE60EEE7CF27E2D3
:100B100044EE64EEE3CF26E242EE62EEDFCF28E25F
:100B200041E0DBCF033C3CE5130709F4DEC0E0F411
:100B30000531ECE51E0770F40230FCE51F0708F0F4
:100B4000CFC101152CE51207F1F101301C4509F464
:100B50007CC061C206318CE5180709F428C2023C4A
:100B60001C4509F47BC057C2063CFCE51F0709F48D
:100B7000FEC050F4043C3CE5130709F4D1C0053C29
:100B80001C4509F4E8C047C2083CECE51E0709F41F
:100B900004C108F4F8C00EC10B3CFCE51F0709F4C2
:100BA00022C10C3C1C4509F427C135C2033D2CE58C
:100BB000120709F473C108F466C175C10C3D1C45E8
:100BC00009F029C280C1992309F46AC510929802DC
:100BD0000E94C1260FEF14E32CE00150104020408A
:100BE000E1F700C00000F89481E08093E00080E22B
:100BF0008093D8001092C9008FE19EE40197F1F72D
:100C000000C000001DBA109268001CBC10BE1FBAC4
:100C100010927A0010926E0010926F001092710084
:100C2000109272001092C9001092BC0014B817B84C
:100C30001AB81DB810BA1092BC0015B818B81BB875
:100C40001EB811BA0C94003F2BC5992309F428C58E
:100C50008091F90281608093F90222C5992309F4F9
:100C60001FC580910E0380FF2CC08E7F80930E03E2
:100C700060910E0370910F03809110039091110306
:100C80000E94F90C109214039FEFE0E7F2E09150FC
:100C9000E040F040E1F700C0000028960FB6F8945D
:100CA000DEBF0FBECDBFDF91CF911F910F91FF909F
:100CB000EF90DF90CF90BF90AF909F908F900C946B
:100CC000480C28960FB6F894DEBF0FBECDBFDF915B
:100CD000CF911F910F91FF90EF90DF90CF90BF9039
:100CE000AF909F908F900C940812992309F4D8C468
:100CF000809198028272D9F028960FB6F894DEBFE0
:100D00000FBECDBFDF91CF911F910F91FF90EF905C
:100D1000DF90CF90BF90AF909F908F900C94101267
:100D2000992309F4BDC480919802827229F3289610
:100D30000FB6F894DEBF0FBECDBFDF91CF911F91EC
:100D40000F91FF90EF90DF90CF90BF90AF909F906A
:100D50008F900C941912992309F4A2C480910F0367
:100D600021E04091110360911003845F69CD9923C4
:100D700009F496C480910F0321E040911103609122
:100D800010038C505DCD992309F48AC4609110033F
:100D90002FEF620F08F46FEF09C0992309F480C4A4
:100DA000609110032FEF621B08F460E021E0409196
:100DB000110316C0992309F473C4409111032CE068
:100DC000420F08F44FEF09C0992309F469C4409118
:100DD00011032CE0421B08F440E021E06091100375
:100DE00080910F032DCD992309F45AC480911203E9
:100DF000833060F48F5F08C0992309F451C4809157
:100E00001203882319F081508093120360910E031E
:100E100070910F03809110039091110328960FB6E3
:100E2000F894DEBF0FBECDBFDF91CF911F910F9120
:100E3000FF90EF90DF90CF90BF90AF909F908F90FA
:100E40000C94F90C992309F42BC40E94DE0C8650F3
:100E5000823008F46CCF86E06CCD992309F420C46D
:100E60000E94DE0C8950853008F461CF89E061CDA5
:100E7000992309F415C40E94DE0C8F50853008F4C4
:100E800056CF8FE056CD992309F40AC40E94DE0C98
:100E90008551823008F44BCF85E14BCD992309F47D
:100EA000FFC388E146CD992309F4FAC30E94DE0C02
:100EB0008951893008F43BCF89E13BCD992309F46E
:100EC000EFC383E236CD992309F4EAC310921503E8
:100ED000E7C3992309F4E4C382E080931503E0C3D8
:100EE000992309F498C00E940516811102C00E943E
:100EF000101684E090E00E94332990E09093DC0289
:100F00008093DB02F801E350FC45E231F10530F457
:100F1000EA5AFF4F8091DB020C94A3298091DB02F7
:100F2000816027C0826025C0846023C0806121C0A9
:100F300080621FC080641DC080681BC084608860A0
:100F400018C08E7F16C08D7F14C08B7F12C08F7E1D
:100F500010C08F7D0EC08F7B0CC08F770AC08B7F37
:100F6000877F07C087FB222720F991E0922790FB1B
:100F700087F98093DB026091DB0284E090E00E94BD
:100F800047291092980228960FB6F894DEBF0FBE3C
:100F9000CDBFDF91CF911F910F91FF90EF90DF9028
:100FA000CF90BF90AF909F908F900C94C12680916E
:100FB0009802992389F0982F9A7A81E009F480E0C9
:100FC0008093F001811102C069E201C065E387EFFF
:100FD00091E00E94CD150BC08091F001811102C0FB
:100FE00069E201C065E387EF91E00E94A2152896AF
:100FF0000FB6F894DEBF0FBECDBFDF91CF911F912A
:101000000F91FF90EF90DF90CF90BF90AF909F90A7
:101010008F900C947416F60100811181992349F088
:10102000C8010E94BA16F82E682FC8010E94331713
:1010300004C0C8010E940617F82EB8018F2D0E9427
:10104000810E182F382FF601258122952F700281ED
:10105000011110928C0280918A028770A9F00023FE
:1010600099F080E2810F883078F082E02F83388712
:101070009E830E94FF1780918A028770EE24E3947A
:101080002F8138859E818111E12CA92EA2944FE0F9
:10109000A422B12CFCE0AF16B10408F0CAC2F501DD
:1010A000E859FF4F0C94A329892F807F9F70F92E58
:1010B000882319F0F29480EFF8220023B9F0FF2082
:1010C00009F448C280E2810F883010F0311106C067
:1010D00090919802F92AF092980205C090918C02A2
:1010E000F92AF0928C020E94741634C2812F38873C
:1010F0000E94E9263885FF2009F49BC2105EF09417
:10110000183010F0311106C090919802F922F09237
:10111000980205C090918C02F922F0928C020E94F4
:10112000741687C2492F407F892F8F70403211F08B
:101130008295807F332319F03130E9F025C00023F8
:1011400081F030918D02222351F0213041F4982F0B
:10115000932B391709F46DC290938D026AC2832BC9
:1011600081C1222319F0213009F463C28E830E94C9
:101170006E168E817DC1002321F0223008F059C205
:1011800071C1211156C274C1002321F0222309F438
:1011900069C1E0C1222309F46BC1EEC1292F269554
:1011A0002695237030E02115310521F021303105DD
:1011B00059F03FC2002319F0812F937002C080E0E4
:1011C00090E00E94B12343C2002319F0812F937055
:1011D00002C080E090E00E949B2339C20023F9F016
:1011E000153F51F0163F71F0143FA9F48091F101C1
:1011F0009091F20181600BC08091F1019091F20118
:10120000826005C08091F1019091F2018460909319
:10121000F2018093F101812F0E949F141EC0153F9F
:1012200051F0163F71F0143FA9F48091F1019091B3
:10123000F2018E7F0BC08091F1019091F2018D7FC0
:1012400005C08091F1019091F2018B7F9093F201A2
:101250008093F101812F0E94D5130E946315F7C17D
:10126000892F837009F071C00111EFC1812F829520
:1012700086958770880F880F412F4F7050E060E08F
:1012800070E04A015B01082E04C0880C991CAA1C5E
:10129000BB1C0A94D2F714FF12C00FE010E020E04C
:1012A00030E004C0000F111F221F331F8A95D2F7B0
:1012B000B901A801409550956095709503C040E034
:1012C00050E0BA01969596959370892F90E0823000
:1012D0009105E9F08330910579F100918E0210912A
:1012E0008F022091900230919102019759F0482984
:1012F00059296A297B29CB01BA01602371238223F2
:10130000932320C0802A912AA22AB32A15C04829F3
:1013100059296A297B2980918E0290918F02A09190
:101320009002B09191028A019B01082719272A2770
:101330003B27C901B80106C0CB01BA016829792948
:101340008A299B290E94391880C1002319F0892F0E
:10135000817001C08695882309F477C1812F829519
:1013600086958770880F880F412F4F7050E060E09E
:1013700070E04A015B01082E04C0880C991CAA1C6D
:10138000BB1C0A94D2F714FF12C00FE010E020E05B
:1013900030E004C0000F111F221F331F8A95D2F7BF
:1013A000B901A801409550956095709503C040E043
:1013B00050E0BA01969596959370892F90E082300F
:1013C0009105E9F08330910579F100918602109141
:1013D00087022091880230918902019759F04829AB
:1013E00059296A297B29CB01BA0160237123822301
:1013F000932320C0802A912AA22AB32A15C0482903
:1014000059296A297B298091860290918702A091AF
:101410008802B09189028A019B01082719272A278F
:101420003B27C901B80106C0CB01BA016829792957
:101430008A299B290E94631708C1412F50E0FA01B5
:10144000E05EF109E531F10508F07FC0EC58FF4F8F
:101450000C94A3291F70892F8F71002331F00E94F3
:101460001818812F0E94DF26E4C00E94DA17812F0E
:101470000E94D426DEC0002311F12111DAC0292FE9
:101480002F7181E090E0A0E0B0E0AC01BD0104C0AC
:10149000440F551F661F771F2A95D2F78091860249
:1014A00090918702A0918802B09189028A019B01E4
:1014B000082719272A273B27C901B80125C0223050
:1014C00008F0B7C0DCCF002329F0892F8F712EC020
:1014D0000023D9F3892F8F710E94DA17AAC0002345
:1014E00081F0292F2F7181E090E0A0E0B0E0BC01F5
:1014F000CD0104C0660F771F881F991F2A95D2F768
:1015000003C060E070E0CB010E94631792C000232B
:1015100081F0192F1F71812F0E94181828E0129F47
:10152000C0011124836080938A02812F0E941818C1
:1015300080C081E02F830E94FF172F81223008F4A2
:1015400078C082E00E94FF1774C0002339F0222384
:1015500009F4BBCF812F0E9463276BC0222309F4BB
:10156000B9CF193349F43FEF87EE93E03150804013
:101570009040E1F700C00000812F0E94E92659C089
:10158000323FB1F028F4303F49F0313FF9F028C044
:10159000343FB9F058F0353F71F022C0002309F410
:1015A00056C090916A0381E0892708C081E008272E
:1015B00000936A034CC001114AC081E080936A0322
:1015C00046C0011144C010926A0341C0002329F0B3
:1015D00080916903882329F329C0222311F337C09E
:1015E000809169032223C1F0882341F090916A031E
:1015F00081E0892780936A0310926903812F002379
:1016000019F00E94632723C00E94E92686E0F601B4
:1016100011928A95E9F71BC08823C9F0011117C000
:1016200090916A0381E0892780936A03109269038D
:101630000EC0F8E0AF16B10441F04CF01AE0A11A68
:10164000B10822E0A216B10410F40E94C723EE20D4
:1016500039F180918A0280FD23C0F60112828595BE
:10166000859585950E941818C6010E94990380915E
:101670008A0285958595859528960FB6F894DEBFE4
:101680000FBECDBFDF91CF911F910F91FF90EF90D3
:10169000DF90CF90BF90AF909F908F900C94DA170F
:1016A00028960FB6F894DEBF0FBECDBFDF91CF9165
:1016B0001F910F91FF90EF90DF90CF90BF90AF9070
:1016C0009F908F9008959091DB0292FF0DC0282F7C
:1016D0002871283019F4877F846006C0282F247170
:1016E000243011F48B7F886093FF0DC0282F287160
:1016F000283119F4877E846106C0282F2471243193
:1017000011F48B7E886194FD877E0895282F2770C1
:1017100081E090E001C0880F2A95EAF780959091CA
:101720008C02892380938C020C947416282F2770C6
:1017300081E090E001C0880F2A95EAF790918C0231
:10174000892B80938C020C947416CF93E82F8730EA
:1017500080F58091120190911301892B09F047C007
:10176000CE2F64E670E080E40E94832890931301FA
:1017700080931201892BD1F464E670E082E10E942B
:10178000DA289093130180931201892B79F481E078
:1017900090E001C0880FCA95EAF764E670E0809592
:1017A0000E94DA289093130180931201CF910C9438
:1017B0002F2990E0FC013797E730F105C0F4E75797
:1017C000FF4F0C94A329209A289811C0219A299898
:1017D0000EC0229A2A980BC0239A2B9808C0529ABE
:1017E0005A9805C0539A5B9802C03E9A4698CF918A
:1017F0000895CF93873008F03FC0809112019091F7
:101800001301892B09F041C064E670E080E40E9476
:1018100083289093130180931201892B11F0C0E06B
:1018200027C064E670E083E10E94DA2890931301F8
:1018300080931201892B99F764E670E081E40E949D
:1018400083289093130180931201892B41F784E63A
:1018500090E00E940A2997FF05C09093130180939E
:101860001201DDCFC82FC095109213011092120102
:101870000E942F298C2F0AC09FB18FB1807F86953F
:1018800086959370892B809501C080E0CF91089553
:10189000EF92FF920F931F93CF93DF9380910E03EC
:1018A00080FF2EC0EFB6F090BC00F8948091BC0091
:1018B0008B7F8093BC008BB18C7F8BB95098589AEA
:1018C0005198599A35E03A95F1F700008AB18C7F2A
:1018D0008AB985E08A95F1F70000519A5998E5E0B8
:1018E000EA95F1F70000509A5898F5E0FA95F1F76B
:1018F000000084E80E94D323C9E1D3E08E010DC02B
:1019000080E090E0FC01E75EFC4F118210821282C1
:1019100004968C339105B1F7C5CFF3E005351F0769
:1019200031F0F80181918F010E94D323F6CF5098B6
:10193000589A35E03A95F1F700005198599A85E0A8
:101940008A95F1F70000EFBEF092BC00579A8BB178
:101950008F779BB190682FB7F894E3E0C535DE0729
:1019600089F0399148E09BB9000000C037FF8BB97E
:10197000330F000000C000C000C08BB900C04A9502
:1019800091F7EBCF2FBFDF91CF911F910F91FF9078
:10199000EF90089590910E0390FF0FC020E030E08B
:1019A000F901E75EFC4F8183608342832C5F3F4FE8
:1019B0002C333105A9F70C94480C089580910E033F
:1019C00080FF02C08695089580E0089580910E03FF
:1019D000282F269530E02115310519F48170826099
:1019E00005C02532310524F08170886480930E0390
:1019F0000895CF93DF9300D000D0CDB7DEB7AB0111
:101A0000BC0149835A836B837C830E94E60C498125
:101A10005A816B817C8188E090E00F900F900F904D
:101A20000F90DF91CF910C945929EEE0F3E083E021
:101A3000808311828FEF828383831482608171811E
:101A4000828193810C94F90CAF92BF92CF92DF9276
:101A5000EF92FF920F931F93CF93DF93D82EC62E52
:101A6000E901E42FF0E0611106C0EA5AFC4F44910D
:101A7000E42F842F7BC0E62EF12C26E0829FC0014C
:101A800011240FEF10E0B8010E947B295BEA560396
:101A90009001579F300D11242D0D311D2D0D311D3D
:101AA000822F880F280FC8018E199F098E9FD001A1
:101AB0008F9FB00D9E9FB00D11249B2F2C9D600118
:101AC0001124CD2CDD245801AC18BD08AE9E600158
:101AD000AF9ED00CBE9ED00C11245801A21AB108A2
:101AE000AE9C9001AF9C300DBE9C300D1124232F75
:101AF0003327021B130B0E9F90010F9F300D1E9F6B
:101B0000300D1124832F6230710591F04CF4611572
:101B10007105E9F061307105C1F4842F4D2D17C0B6
:101B20006430710571F044F06630710581F00DC0CC
:101B3000842F4B2F932F0BC0E42F4B2F9E2F8D2DD7
:101B400006C08B2F942F432F02C08B2F9D2DE42F87
:101B5000F0E0EA5AFC4F4491E82FF0E0EA5AFC4FDB
:101B60008491E92FF0E0EA5AFC4FE491498388839D
:101B7000EA83DF91CF911F910F91FF90EF90DF905B
:101B8000CF90BF90AF900895CF93DF9300D000D057
:101B9000CDB7DEB790910E0390FF0AC09E012F5F74
:101BA0003F4F0E94240D4B8169818A810E94CA0C9B
:101BB0000F900F900F900F90DF91CF9108955F924B
:101BC0006F927F928F929F92AF92BF92CF92DF924D
:101BD000EF92FF920F931F93CF93DF9300D000D02B
:101BE000CDB7DEB7182F762E042F622E90910E03FC
:101BF00090FF6DC0E92FE695AE2FB0E0A05EBE4F1E
:101C00008C91809313039E7F923061F49E012F5F2D
:101C10003F4F812F0E94240D4B8169818A810E9450
:101C2000CA0C43C0823019F4009111033EC08630C3
:101C300019F410910F0339C08930D9F38931A9F50E
:101C4000E9518E2F8170582EE695F0E0EA5AFB4F4D
:101C5000A590B49089E1C82E83E0D82EE12CF12C18
:101C6000BB249FE0892E912CEA9CC001EB9C900D37
:101C7000FA9C900D1124B4010E947B29812F5110F0
:101C800002C0860F01C0861B9601402F672D0E945F
:101C9000240D8FEFE81AF80A84E0C80ED11C8FE0FB
:101CA000E816F10409F70E94480C10930F03709294
:101CB000100300931103662051F060910E037091A0
:101CC0000F0380911003909111030E94F90C0F9063
:101CD0000F900F900F90DF91CF911F910F91FF9078
:101CE000EF90DF90CF90BF90AF909F908F907F90BC
:101CF0006F905F9008956091C9028CE090E00C9421
:101D00004729CF93DF9326E0729FF001112434E539
:101D1000839FE00DF11D1124E60FF11DEE0FFF1F53
:101D2000E25AFE4FC591D491CE01C238D10549F196
:101D3000B0F4C133D10509F464C048F4C932D10507
:101D400009F458C0CA32D10509F462C068C0C5336D
:101D5000D10509F448C0C933D10599F060C0C33E2C
:101D6000D10541F138F4C03ED10591F0C23ED10514
:101D7000B1F055C0C63ED10521F1C73ED10561F194
:101D80004EC02091DB0220FD14C221FD12C213C2FD
:101D90002091DB0220FF0FC289E390E00CC220916A
:101DA000DB0222FF08C28091DB0284FDB4C183EE16
:101DB00090E001C28091DB0282FFF5CF82EE90E0DD
:101DC000FAC12091DB0223FFF6C18091DB0284FD82
:101DD000A2C187EE90E0EFC18091DB0283FFF5CFD7
:101DE00086EE90E0E8C12091DB0225FFE4C189E2A4
:101DF00090E0E1C12091DB0225FFDDC185E390E0A9
:101E0000DAC12091DB0226FFD6C18AE290E0D3C17D
:101E10002091DB0226FFCFC181E390E0CCC1C11548
:101E200020E5D20708F047C0C11530E4D30708F019
:101E300034C1C83ED10518F5C03ED10508F0BBC17C
:101E4000C83AD10570F4C53AD10508F0B0C0C13028
:101E5000D10509F4B0C108F45EC1249708F45BC150
:101E6000AAC1CF3BD10508F4ADC0C03CD10508F4F0
:101E700052C1FE01EE0FFF1FEA52FE4F02C1C11513
:101E800020E2D20760F4C11531E0D30708F093C116
:101E9000C03FD10508F43FC1CE0190658CC1C1158A
:101EA00080E3D80708F0F0C0FE01FF70EE0FFF1FBF
:101EB000EA5AFC4FE6C0C11595E5D90708F044C0C1
:101EC000C11524E5D20708F000C1C11532E5D307DA
:101ED00010F5C11581E5D80708F0E3C02C2F237059
:101EE00081E090E002C0880F991F2A95E2F79C6874
:101EF0009E0174E0369527957A95E1F72370922B31
:101F0000EC2FEF70E695E69530E2E39FF0011124A7
:101F10008E2B9F2B50C18C2F86958695AE014370DA
:101F20005527C115D34508F0C1C090E2899F9001A3
:101F3000112481E090E002C0880F991F4A95E2F7D2
:101F4000822B932B9C6837C1C1152AE5D207A0F4D8
:101F5000C11539E5D30708F0C6C0C11586E5D80715
:101F600008F4B8C0C11598E5D90708F4D4C09C2F6F
:101F70008827806F906A1FC1C1152BE5D20708F42E
:101F8000CAC0CE01C1153CE5D30708F4C1C09056C4
:101F90008115904208F0BFC08D2F8F710E94630B96
:101FA000FE01FF27F0628F719F01382BAFC0C53A49
:101FB000D10509F4B3C0C63AD10509F0B2C082E830
:101FC00090E4F9C0C83AD10509F4AEC0C93AD105C8
:101FD00009F4ADC0CA3AD10509F4ACC0CB3AD10579
:101FE00009F4ABC0CC3AD10509F4AAC0CB3BD1056A
:101FF00009F4A9C0CC3BD10509F4A8C0CD3AD1055C
:1020000009F4A7C0C03BD10509F4A6C0CE3AD1055A
:1020100009F4A5C0CF3AD10509F4A4C0C13BD1054C
:1020200009F4A3C0C23BD10509F4A2C0C33BD1054A
:1020300009F4A1C0C43BD10509F4A0C0C53BD1053A
:1020400009F49FC0C63BD10509F49EC0C73BD1052A
:1020500009F49DC0C83BD10509F49CC0C93BD1051A
:1020600009F49BC0CD3BD10509F49AC0CE3BD10504
:1020700009F499C0CA3BD10509F498C080E094E402
:102080009AC08591949197C09E013327C901D3FFCF
:1020900002C0986C90C0906C8EC0CE019F70906A08
:1020A0008AC09C2F8827816F906A85C090E2899FA3
:1020B0009001112481E090E002C0880F991F4A9599
:1020C000E2F7822B932B9A6876C09C2F8827846F27
:1020D000906A71C08C2F0E94630B8F7190E0982FD3
:1020E0008827906268C08C2F8F700E94630BFE015E
:1020F00094E0F695E7959A95E1F7EF70F0E0FE2F02
:10210000EE27F06A8F70806E9F01282BC90153C0A3
:102110009927906650C080E090E04DC081E890E43F
:102120004AC083E890E447C082EE94E444C089EE5C
:1021300094E441C08AEE94E43EC085EB94E43BC055
:1021400086EB94E438C083EB94E435C084EB94E4EC
:1021500032C087EB94E42FC08CEC94E42CC08DEC5F
:1021600094E429C083E895E426C08AE895E423C076
:1021700082E995E420C084E995E41DC081E296E4FB
:102180001AC083E296E417C084E296E414C085E2A4
:1021900096E411C086E296E40EC087E296E40BC096
:1021A0008FE694E408C080E794E405C08AE296E4F0
:1021B00002C080EE90E0DF91CF91089580E290E040
:1021C00090931301809312018091F60181110EC04A
:1021D0000E947D2881E08093F6012FEF83ED90E34C
:1021E000215080409040E1F700C0000064E670E0BC
:1021F00080E40E9483289093130180931201892B1D
:1022000009F04EC064E670E080E00E94DA28909306
:10221000130180931201892B09F042C064E670E03B
:1022200080E00E94DA289093130180931201892B99
:10223000B9F564E670E08FE30E94DA289093130109
:1022400080931201892B61F50E942F2964E670E0CA
:1022500080E40E9483289093130180931201892BBC
:10226000F9F464E670E08CE00E94DA2890931301A0
:1022700080931201892BA1F464E670E080E00E9453
:10228000DA289093130180931201892B49F464E6B4
:1022900070E08FE30E94DA2890931301809312017B
:1022A0000E942F2980911201089556985E982598D2
:1022B0002D9826982E9827982F988FEF90E090933E
:1022C00089008093880090938B0080938A0090937C
:1022D0008D0080938C00259A2D9A2FEF80E792E055
:1022E000215080409040E1F700C00000269A2E9ACD
:1022F0002FEF80E792E0215080409040E1F700C04E
:102300000000279A2F9A2FEF80E792E0215080401B
:102310009040E1F700C0000025982D982FEF80E74E
:1023200092E0215080409040E1F700C000002698E4
:102330002E982FEF80E792E0215080409040E1F707
:1023400000C0000027982F9856985E9825982D98E1
:1023500026982E9827982F98089584B1807F84B965
:1023600085B1807F85B98AB1837F8AB98BB1837F3C
:102370008BB93E984698089580B38C7080BB81B32A
:10238000836F81BB089590910E0390FF3DC09170C3
:10239000811102C0926006C0853210F0986402C0BC
:1023A000880F982B90930E03662351F060910E03D3
:1023B00070910F0380911003909111030E94F90C0A
:1023C00060910E03669570E04BE050E086E091E08E
:1023D0000E94D62A892B19F01092140309C081E0BB
:1023E000809314030E945715909309038093080368
:1023F00081E080930B0320E0409111036091100372
:1024000080910F030C94DF0D089561E00C94C311CB
:10241000EEE0F3E080818160808386950C94051264
:1024200080910E038695815009F484E261E00C945A
:10243000C31180910E0386958F5F853208F081E08D
:1024400061E00C94C3119F92AF92BF92CF92DF9242
:10245000EF92FF920F931F93CF93DF93809112011E
:1024600090911301892B91F08091F5018F5F8093FA
:10247000F50181110BC00E94DE1090E090931301D2
:1024800080931201892B11F40E9455110DEC12E07A
:1024900024EDE22E22E0F22E6801C0E0912C97E0BC
:1024A000A92EAC0E8C2F0E94A50B8A2D0E94A50B85
:1024B0008C2F0E94F90BF6019081981721F08083F0
:1024C000BB24B39401C0B12C8A2D0E94F90BF701F3
:1024D0009081981719F0808381E001C080E0B82ACC
:1024E0009B280E94AD11CF5FFFEFCF1ADF0A8FEF5D
:1024F000E81AF80AC73099F60E9457156AEF70E09B
:102500000E947B299C01682F8091F4018823E9F1C6
:102510001092F401E091C702F091C802DF011E960B
:1025200090E07BEF8AEFE82EF12C80818B3FA9F0C1
:10253000482F50E0681728F0E901C41BD50BAE0105
:1025400006C06701C41AD50AA601420F531F4F30B7
:10255000510514F0708301C091E03196EA17FB0732
:1025600021F79093F401911002C0911110C01092C4
:10257000F301A091C702B091C8029091F401E1EE7D
:10258000F2E080E03EE03E0F07C09110F0CF809176
:10259000F3018111ECCF16C0E80129918E01408131
:1025A000421741F04C914B3F21F46C93208391E012
:1025B00001C081E0119631963E13EECF9093F40165
:1025C0008093F301892DDF91CF911F910F91FF909F
:1025D000EF90DF90CF90BF90AF909F900895809143
:1025E0009A020895CF93DF9300D01F92CDB7DEB744
:1025F0002091BD02243031F523E0298380589109D0
:102600009B838A8382E08093E9008FEF9091E800BA
:10261000815095FD06C095ED9A95F1F70000811166
:10262000F5CF8091E80085FF0DC040E050E063E009
:1026300070E0CE0101960E9458188091E8008E77D4
:102640008093E8000F900F900F90DF91CF91089545
:102650000F931F93CF93DF9300D01F92CDB7DEB7B8
:102660008C010E94EC1D823011F0843021F584E051
:1026700089831B830A8382E08093E9008FEF909126
:10268000E800815095FD06C095ED9A95F1F70000A0
:102690008111F5CF8091E80085FF0DC040E050E04A
:1026A00063E070E0CE0101960E9458188091E80026
:1026B0008E778093E8000F900F900F90DF91CF916D
:1026C0001F910F910895CF93DF93EC010E94EC1DB1
:1026D000823011F08430F9F482E08093E9009FEFBA
:1026E0008091E800915085FD06C085ED8A95F1F74F
:1026F00000009111F5CF8091E80085FF0CC040E00B
:1027000050E066E070E0CE010E9458188091E80029
:102710008E778093E800DF91CF910895CF93DF9378
:10272000EC010E94EC1D823011F08430D9F58091CB
:102730001101882339F08091DB0287FF03C060E23A
:1027400082E002C068E081E08093E9008FEF909121
:10275000E800815095FD06C095ED9A95F1F70000CF
:102760008111F5CF8091E80085FF1CC08091110197
:10277000811105C040E050E068E070E003C070E007
:1027800040E050E0CE010E9458188091E8008E771A
:102790008093E80080E2FE01ABE9B2E001900D9287
:1027A0008A95E1F7DF91CF910895803F39F48091C8
:1027B000F20287FF6CC01092F20269C0813F29F4D7
:1027C0008091F2021816BCF362C09091F102823F30
:1027D00029F497FF5CC01092F10259C0833F19F4AD
:1027E0001916CCF354C0893F41F48091F3021816B6
:1027F0000CF04DC01092F3024AC08A3F29F4809138
:10280000F30287FF44C0F6CF8B3F39F48091F40286
:1028100087FF3DC01092F4023AC08C3F29F48091AA
:10282000F4021816BCF333C0843F21F48091F00207
:102830008E7F17C0853F21F48091F0028D7F11C0FB
:10284000863F21F48091F0028B7F0BC0873F21F4FB
:102850008091F002877F05C0883F31F48091F002BB
:102860008F7E8093F00213C08D3F21F480919602F9
:102870008E7F0BC08E3F21F4809196028D7F05C024
:102880008F3F29F4809196028B7F809396028091EE
:10289000F10281110EC08091F20281110AC0809173
:1028A000F302811106C08091F402811102C01092DE
:1028B000F50208958091960280FD16C081FD16C034
:1028C00082FD18C08091F502882391F0883290F43F
:1028D00028E0829FC001112468E270E00E948F29E5
:1028E000862F672B29F007C082E0089584E00895C1
:1028F00081E0089588E008958091960280FD17C0D8
:1029000081FD17C082FD19C08091F502882399F0DE
:102910008C3398F423E2829FC00111246CE370E0B1
:102920000E948F29862F672B49F481E0089588E063
:10293000089581E1089585E0089583E20895803F38
:1029400021F40E947C14819504C0813F29F40E94E7
:102950007C148093F2020895823F21F40E947C143B
:10296000819504C0833F29F40E947C148093F10276
:102970000895893F19F40E945A1405C08A3F31F422
:102980000E945A1481958093F30208958B3F21F49D
:102990000E945A14819504C08C3F29F40E945A1455
:1029A0008093F4020895843F21F48091F0028160C5
:1029B00017C0853F21F48091F002826011C0863FEC
:1029C00021F48091F00284600BC0873F21F4809154
:1029D000F002886005C0883F31F48091F002806188
:1029E0008093F00208958D3F21F4809196028160DA
:1029F0000BC08E3F21F480919602826005C08F3F0C
:102A000029F48091960284608093960208957894C8
:102A10001F920F920FB60F9211248F939F93AF9333
:102A2000BF938091920290919302A0919402B091F1
:102A300095020196A11DB11D80939202909393027D
:102A4000A0939402B0939502BF91AF919F918F9103
:102A50000F900FBE0F901F901895CF92DF92EF92BC
:102A6000FF920F931F932FB7F894409192025091C9
:102A7000930260919402709195022FBF6A017B01CD
:102A8000EE24FF248C0120E030E0C016D106E206DF
:102A9000F30610F4415051099A01281B390BC90162
:102AA0001F910F91FF90EF90DF90CF9008952FB777
:102AB000F8948091920290919302A0919402B09127
:102AC00095022FBF0895E091DE02F091DF0230976A
:102AD00049F082E08093EF020480F581E02D8FEED3
:102AE00092E009950E9457159093F7028093F602A1
:102AF00008951F920F920FB60F9211248F939F93F8
:102B0000AF93BF938091E002811113C08091920234
:102B100090919302A0919402B09195024196A11DCB
:102B2000B11D8093920290939302A0939402B0936C
:102B30009502BF91AF919F918F910F900FBE0F9013
:102B40001F90189520911101222321F02091DB0282
:102B500027FD04C0FC013296089619C0262F269541
:102B6000269526952E31C0F4FC01E20FF11D677009
:102B700081E090E001C0880F6A95EAF78095928124
:102B80008923828308953196E817F90729F0208177
:102B90002613F9CF1082F7CF089520911101222337
:102BA00021F02091DB0227FD05C0FC0132962FEFBA
:102BB00030E019C0262F2695269526952E3120F532
:102BC000FC01E20FF11D677081E090E001C0880F09
:102BD0006A95EAF79281892B828308952F3F39F015
:102BE0003F5F363041F041914613F8CF0DC041119F
:102BF000F7CF232FF5CF2F3F39F0FC01E20FF11D66
:102C000027FDFA9562830895089580E090E00E9480
:102C1000412921E08D3E9E4F09F020E0822F08954A
:102C20006DEE7EEF80E090E00E94652960E082E03A
:102C300090E00E94472960E083E090E00E944729ED
:102C400010928E0210928F021092900210929102B6
:102C500060E084E090E00E94472960E085E090E039
:102C60000E94472960E086E090E00E9447296FEFCC
:102C700087E090E00E94472940E050E0BA0188E0F8
:102C800090E00E94592960E08DE090E00E94472981
:102C900040E050E0BA0188E190E00E94592960E0EC
:102CA00087E190E00E94472940E050E0BA018CE1C2
:102CB00090E00E94592960E080E290E00E9447295C
:102CC00040E050E0BA018FE090E00E94592940E0D6
:102CD00050E0BA0183E190E00C94592980918D0273
:102CE000811110928D02089590918C02809198022A
:102CF000892B20918B02982F922B9093F701809132
:102D00008D028823D9F0892B8093F70180911101DE
:102D1000882331F08091DB0287FF02C08EE101C081
:102D200086E0E9EFF1E090E0815028F02191222344
:102D3000D9F39F5FF9CF91110E946E16E091DE02E8
:102D4000F091DF023097A9F080911101882359F0AA
:102D50008091DB0287FF07C08091F7018093F80123
:102D600085E08093F7010280F381E02D87EF91E009
:102D700009940895BF92CF92DF92EF92FF920F9342
:102D80001F93CF93DF938C01C0908E02D0908F025F
:102D9000E0909002F09091028091860290918702DB
:102DA000A0918802B0918902C82AD92AEA2AFB2A6E
:102DB000CFE1D0E0D701C6010C2E04C0B695A7958F
:102DC000979587950A94D2F780FF07C0BC2EB8016B
:102DD0008C2F0E94810E019719F4219758F7B12C7E
:102DE0008B2DDF91CF911F910F91FF90EF90DF908E
:102DF000CF90BF900895CF93DF93EC010E94BA1655
:102E0000BE010E94810EDF91CF910895292F220FDC
:102E1000920F990F890F682F669566956695982F82
:102E2000977085E0689FB001112440E050E080E099
:102E3000FA01E60FF71FE15BFD4F208130E0092E1C
:102E400002C0369527950A94E2F721703327042EA5
:102E500001C0220F0A94EAF7822B4F5F5F4F453083
:102E6000510531F70895292F220F920F990F890FDD
:102E7000A82FA695A695A695877051E001C0550F7D
:102E80008A95EAF785E0A89FD001112420E030E080
:102E900070E0F901EA0FFB1FE15BFD4F4081CB01C0
:102EA000022E02C0969587950A94E2F781709927C1
:102EB000819584278523842780832F5F3F4F25308A
:102EC000310539F708950F931F93AB01BC01CB0176
:102ED000AA27BB270097A105B10511F0E0E103C0C7
:102EE000DB01CA01E0E0092F1A2F2B2F3327011530
:102EF00011052105310519F0E85FD901C8018C01E0
:102F00009D01F4E03695279517950795FA95D1F729
:102F1000011511052105310519F0EC5FD901C80132
:102F20008C019D01F2E03695279517950795FA9546
:102F3000D1F7011511052105310519F0EE5FD90111
:102F4000C801B695A79597958795892B8A2B8B2BCA
:102F500009F0EF5F56985E9825982D9826982E9840
:102F600027982F988E2F90E0FC013197E730F105DC
:102F7000A8F4E057FF4F0C94A329259A2D9A0EC070
:102F8000259A2D9A269A2E9A09C0259A2D9A04C020
:102F9000259A2D9A269A2E9A279A2F9A409386023E
:102FA0005093870260938802709389021F910F915A
:102FB0000C94A6260F931F9341E050E060E070E070
:102FC00004C0440F551F661F771F8A95D2F740959E
:102FD0005095609570958091860290918702A0919E
:102FE0008802B09189028A019B01082319232A23B0
:102FF0003B23C901B8011F910F910C9463172091D5
:103000008A028095822380938A02982F977079F4A0
:1030100030E0482F082E000C550B2417350739F0E7
:103020008595859585950E94DA1710928A020895F4
:103030000F931F9341E050E060E070E004C0440F44
:10304000551F661F771F8A95D2F78091860290914F
:103050008702A0918802B09189028A019B01082B06
:10306000192B2A2B3B2BC901B8011F910F910C94EE
:10307000631760938E0270938F02809390029093F7
:1030800091020C94A62680914E0290911D02891700
:1030900019F08F5F8770FBCF0895CF93DF93EC011A
:1030A00080EEFE01099581EEFE01DF91CF9109943A
:1030B000CF92DF92FF920F931F93CF93DF931F92D4
:1030C000CDB7DEB7F82E8B0199830E94031D99813D
:1030D00081111CC0CF2CD92E01151105B1F08091A2
:1030E000E80085FD0AC08091E8008E778093E800B3
:1030F0000E94031D882381F309C0F60181916F01AD
:103100008093F10001501109E7CF80E00F90DF912B
:10311000CF911F910F91FF90DF90CF9008951F9353
:10312000CF93DF93CDB7DEB7AA970FB6F894DEBF83
:103130000FBECDBFEFEBF2E088E08E0F9091F10073
:1031400091938E13FBCF8091C002833009F460C04D
:1031500030F4813071F0823009F49CC0B3C08A3001
:1031600009F488C08B3009F46BC0893009F0AAC01B
:1031700020C08091BF02813A09F0A4C08091E8008C
:10318000877F8093E8008091C3029091C402892BCD
:1031900021F460E28BE992E003C060E080E090E01F
:1031A00070E00E94891D8091E8008B778093E80091
:1031B00089C08091BF02813209F084C08091C3022E
:1031C0009091C402029708F07DC08091E800877F4B
:1031D0008093E8008091E80082FD05C08091BD02E7
:1031E0008111F8CF6FC02091F3008091F20090E040
:1031F000922B029729F48091F1008B7F813021F48A
:103200008091F10080939A028091E8008B7756C0FC
:103210008091BF02813A09F055C08091C30290911C
:10322000C402892B09F04EC08091E800877F80930B
:10323000E8008091E80080FFFCCF8091110139C047
:103240008091BF028132F1F58091C3029091C40256
:10325000892BC1F58091E800877F8093E8000E9468
:10326000351D8091C10280931101109298020E9435
:10327000C12628C08091BF02813221F58091E800EB
:10328000877F8093E8000E94351D8091C202809361
:10329000990218C08091BF02813AA1F48091E800A0
:1032A000877F8093E8008091E80080FFFCCF8091C9
:1032B00099028093F1008091E8008E778093E80076
:1032C0000E94351D8091E80083FFD6C18091BF0226
:1032D0009091C002492F50E04A30510508F0CCC10E
:1032E000FA01E956FF4F0C94A329803821F0823867
:1032F00009F0C2C108C08091BB029091BC02992321
:1033000089F082600FC08091C3028F70873008F00F
:10331000B3C18093E9008091EB0085FB882780F999
:103320001092E9009091E800977F9093E8008093D5
:10333000F1001092F10074C1282F2D7F09F09CC17B
:10334000882319F0823061F097C18091C1028130E9
:1033500009F092C1933009F080E08093BC022EC046
:103360008091C10281112AC08091C3028F702FEF1A
:10337000280F263008F080C18093E9002091EB00EF
:1033800020FF1CC0933021F48091EB00806214C0B8
:103390009091EB0090619093EB0021E030E0A90167
:1033A00002C0440F551F8A95E2F74093EA0010923D
:1033B000EA008091EB0088608093EB001092E900B6
:1033C0008091E800877F2FC1811156C11091C10201
:1033D0001F778091E3008078812B8093E3008091B8
:1033E000E800877F8093E8000E94351D8091E80007
:1033F00080FFFCCF8091E30080688093E30011118F
:1034000002C082E001C083E08093BD0235C18058D4
:10341000823008F031C18091C1029091C2028C3D8E
:1034200053E0950779F583E08A838AE289834FB771
:10343000F894DE01139620E03EE051E2E32FF0E045
:1034400050935700E49120FF03C0E295EF703F5F77
:10345000EF708E2F90E0EA3010F0C79601C0C09652
:103460008D939D932F5F243149F74FBF8091E800E2
:10347000877F8093E8006AE270E0CE0101960E94A7
:10348000891DBDC04091C3025091C402292F33272A
:1034900023303105B9F06CF42130310509F4FBC05B
:1034A0002230310509F0E8C08BE390E0EBE5F5E070
:1034B00054C02132310509F433C02232310509F4F8
:1034C0003CC0DAC0992781309105D1F05CF4892B9A
:1034D00009F0D2C0EEEDF5E0E4918E2F90E0EEED34
:1034E000F5E038C08230910599F0039709F0C4C027
:1034F000E8EAF5E0E4918E2F90E0E8EAF5E02AC0F2
:10350000E6ECF5E0E4918E2F90E0E6ECF5E022C0E9
:10351000EEEAF5E0E4918E2F90E0EEEAF5E01AC0D5
:103520004115510509F4BCC04130510509F0A4C052
:1035300089E090E0E6E8F5E010C04115510509F496
:10354000B4C04130510509F097C080EC90E0EBE544
:10355000F4E003C0009709F48FC02091E800277FB2
:103560002093E8002091C5023091C6022817390740
:1035700008F4C90140E0009789F12091BD0222239F
:1035800009F43DC02530D9F12091E80023FD37C072
:103590002091E80022FD2FC02091E80020FFEBCF12
:1035A0004091F3002091F20030E0342B009759F065
:1035B0002830310540F444914093F1003196019751
:1035C0002F5F3F4FF3CF41E02830310509F040E055
:1035D0002091E8002E772093E800CDCF4111CDCF88
:1035E0000AC08091BD02882351F0853041F080915E
:1035F000E80083FD04C08091E80082FFF2CF809153
:10360000E8008B778093E80037C08038A9F5809177
:10361000E800877F8093E8008091BE028093F100EC
:103620008091E8008E778093E8000E94351D24C0C9
:10363000811122C01091C1021230F0F48091E80093
:10364000877F8093E8001093BE020E94351D111100
:1036500006C08091E30087FD02C081E001C084E0E4
:103660008093BD0242E061EC81E00E94541D42E281
:1036700061EC82E00E94541D8091E80083FF1AC033
:103680008091E800877F8093E8008091EB00806262
:103690008093EB000FC082E190E0E6E9F5E05DCFBA
:1036A00089E090E0EDE6F5E058CF80E490E0EBE1D2
:1036B000F5E053CFAA960FB6F894DEBF0FBECDBF8C
:1036C000DF91CF911F9108951F920F920FB60F9225
:1036D00011242F933F934F935F936F937F938F9317
:1036E0009F93AF93BF93CF93DF93EF93FF93C091DB
:1036F000E900CF708091EC00D82FD17080FDD0E828
:103700001092E9008091F000877F8093F000789418
:103710000E948F181092E9008091F00088608093D9
:10372000F000CD2BCF70C093E900FF91EF91DF91B6
:10373000CF91BF91AF919F918F917F916F915F9149
:103740004F913F912F910F900FBE0F901F901895A2
:10375000E8EDF0E080818E7F80831092E20010928D
:10376000DA001092E100A0EEB0E08C9181608C93C1
:1037700080818F77808319BCA7EDB0E08C918E7F1C
:103780008C9380818F7E8083109297020895CF92D0
:10379000DF92EF92FF920F931F93CF93DF93C8EDC9
:1037A000D0E088818F7E8883E7EDF0E080818160C2
:1037B000808384E082BF81E08093970288818E7F3E
:1037C000888302EE10E0F80110821092DA0081EE98
:1037D000C82ED12CF601108288818F77888388814A
:1037E0008068888388818F7D888319BC1092BD0290
:1037F0001092BE021092BC021092BB0290EEE92E13
:10380000F12CF70180818B7F8083888181608883A0
:1038100042E060E080E00E94541DF60180818E7FCE
:103820008083F801808181608083808188608083CB
:10383000F70180818E7F8083888180618883DF911A
:10384000CF911F910F91FF90EF90DF90CF9008954F
:103850001F920F920FB60F9211242F933F934F9305
:103860005F936F937F938F939F93AF93BF93EF93E8
:10387000FF938091E10082FF09C08091E20082FF06
:1038800005C08091E1008B7F8093E1008091DA0098
:1038900080FF2AC08091D80080FF26C08091DA0086
:1038A0008E7F8093DA008091D90080FF18C080E17C
:1038B00089BD82E189BD09B400FEFDCF81E080931E
:1038C000BD028091970281110FC00E94A81B0E9427
:1038D000C71B8091E20084608093E20005C019BCA0
:1038E0001092BD02109297028091E10080FF17C0F4
:1038F0008091E20080FF13C08091E2008E7F809370
:10390000E2008091E20080618093E2008091D80023
:1039100080628093D80019BC85E08093BD028091BD
:10392000E10084FF34C08091E20084FF30C080E178
:1039300089BD82E189BD09B400FEFDCF8091D80028
:103940008F7D8093D8008091E1008F7E8093E1008D
:103950008091E2008F7E8093E2008091E20081609E
:103960008093E2008091BE02882311F084E007C0BA
:103970008091E30087FD02C081E001C083E0809375
:10398000BD02109298020E94C1260E94C723809116
:10399000E10083FF27C08091E20083FF23C0809174
:1039A000E100877F8093E10082E08093BD02109266
:1039B000BE028091E1008E7F8093E1008091E20061
:1039C0008E7F8093E2008091E20080618093E2002C
:1039D00042E060E080E00E94541D8091F000886029
:1039E0008093F000FF91EF91BF91AF919F918F91E4
:1039F0007F916F915F914F913F912F910F900FBEEB
:103A00000F901F9018952091E4003091E50095E605
:103A10004091EC00842F817040FF22C08091E8002B
:103A200080FD1CC08091BD02882391F0853091F00B
:103A30008091EB0085FD10C04091E4005091E500BD
:103A40004217530729F39A01915011F784E0089522
:103A500082E0089583E0089581E0089580E008956C
:103A60004091E80042FFDECF08958091BF0287FFBA
:103A700011C08091E80082FD05C08091BD028111D6
:103A8000F8CF11C08091E8008B770BC08091BD0208
:103A9000882349F08091E80080FFF8CF8091E8000A
:103AA0008E778093E8000895982F973058F590937B
:103AB000E900981739F07091EC002091ED005091D9
:103AC000F00003C0242F762F50E021FF19C0309161
:103AD000EB003E7F3093EB003091ED003D7F309363
:103AE000ED003091EB0031603093EB007093EC000F
:103AF0002093ED005093F0002091EE0027FF07C0C7
:103B00009F5FD3CF8F708093E90081E0089580E0BC
:103B100008952091C5023091C6022617370748F054
:103B20006115710539F42091E8002E772093E800A3
:103B300001C0B90140E061157105A9F12091BD02F4
:103B4000222309F443C0253009F442C02091E80043
:103B500023FD40C02091E80022FD32C02091E80002
:103B600020FFE9CF4091F3002091F20030E0342BA8
:103B7000FC01CF016115710559F02830310540F481
:103B800081918093F100615071092F5F3F4FF1CF18
:103B900041E02830310509F040E02091E8002E771F
:103BA0002093E800C8CF4111C9CF0AC08091BD025F
:103BB000882361F0853061F08091E80083FD0AC0C0
:103BC0008091E80082FFF2CF80E0089582E00895BE
:103BD00083E0089581E0089580911503811107C065
:103BE0008091BD02843011F081E0089582E0089553
:103BF000CF93DF93CDB7DEB72C970FB6F894DEBF27
:103C00000FBECDBF84B7877F84BF0FB6F894A89549
:103C100080916000886180936000109260000FBE08
:103C200080E8809361001092610085B7806885BF4D
:103C300085B7806885BF0E94A81B0E94C71B809122
:103C4000E20084608093E20078948091BD02882332
:103C5000A1F01091E9001F709091EC00892F817004
:103C600090FD80E8182B1092E9008091E80083FD18
:103C70000E948F181F701093E90082E084BD93E0CA
:103C800095BD9AEF97BD80936E000E94DE1090E084
:103C900090931301809312010E94AD110E94BC11F8
:103CA000ADECB2E0E1EEF2E05EE0D52EDE0E119278
:103CB0001D92DE12FCCF8EE090E00E94A929809335
:103CC000C7029093C802FC010E962BEF2193E817D0
:103CD000F907E1F70E940516811102C00E94101633
:103CE0008CE090E00E94332990E0A0E0B0E0809367
:103CF000C9029093CA02A093CB02B093CC0289EA86
:103D00008093800089E08093810024982C983F98CC
:103D10008AB18F7C8AB96E98479A8BB180638BB9D0
:103D2000769A0E9455110E940516811102C00E94C8
:103D3000101682E090E00E9433298093F90284E01B
:103D400090E00E94332990E09093DC028093DB02A4
:103D500083E090E00E943329682F70E080E090E0DB
:103D60000E9439188091DD02811138C08091F902DA
:103D700081608093F9020E940516811104C00E949F
:103D800010160E94150D88E090E00E943B29609378
:103D90000E0370930F0380931003909311036E7FB3
:103DA00071F40E94150D88E090E00E943B29609319
:103DB0000E0370930F0380931003909311030E94DE
:103DC000E60C1092140380910E0380FF04C060E0A3
:103DD00086950E94C31181E08093DD0284E191E029
:103DE0009093DF028093DE0242EEE42E45E0F42E53
:103DF0008091BD02853009F047C08091BD028430BA
:103E000021F11092E00220E488E190E00FB6F894EE
:103E1000A895809360000FBE2093600083B7817FD8
:103E2000846083BF83B7816083BF7894889583B7AC
:103E30008E7F83BF0FB6F894A8958091600088614B
:103E400080936000109260000FBE8091BC028823B6
:103E500009F4CECF0E94DE1090E09093130180937E
:103E600012010E94AD110E94BC11E1EEF2E011922C
:103E7000DE12FDCF0E942312E1EEF2E0819181116A
:103E800084C1DE12FBCFB4CF0E942312EAEFF2E02E
:103E9000A1EEB2E000E010E0302F2D9141914227D9
:103EA000B9F180E090E050E0682F5A01082E02C07E
:103EB000B594A7940A94E2F7A0FE26C089833A83BA
:103EC00081E090E05C0102C0AA0CBB1C6A95E2F79D
:103ED000822F90E08A219B2121E0892B09F420E0A8
:103EE0002B830E9457158160782F9D838C83498195
:103EF0005A816B818D810E94C522F801E650FD4FE9
:103F00008081A826A0821AC001968630910561F6AC
:103F10000F5F1F4F0E30110509F0BECF8FEF8E835C
:103F20008F8318860E9457158160782F9A8789871A
:103F30004E815F8168858A850E94C5228091F60244
:103F40009091F7020E942D159C019091F502992302
:103F500021F02431310508F478C08091F1021091EC
:103F6000F20281110BC0111126C12091F30221111F
:103F700022C12091F40221111EC167C09F3F19F098
:103F80009F5F9093F502181624F40E947C1480938E
:103F9000F1028091F10287FF05C00E947C14819597
:103FA0008093F102111624F40E947C148093F20293
:103FB0008091F20287FF05C00E947C148195809356
:103FC000F2023091F1023323E1F02091F202222338
:103FD000C1F045EB3403C0011124892F990F990BCF
:103FE000009709F481E08093F10235EB2303C001CF
:103FF0001124892F990F990B009709F481E0809380
:10400000F2028091F302181624F40E945A1480934D
:10401000F3028091F30287FF05C00E945A14819534
:104020008093F3028091F402181624F40E945A142B
:104030008093F4028091F40287FF05C00E945A1415
:1040400081958093F4020E9463151091F8020E94FA
:10405000C723181721F00E94C7238093F80280918C
:104060001403882309F4C4CE80911303E0910E0356
:10407000E695E81BE0930A03823049F4F0E0E05152
:10408000FA4FE4910E2F10E021EB32E248C0863067
:1040900049F4F0E0E351FA4FE4910E2F10E021EAE9
:1040A00032E23DC0893051F4E695F0E0E651FA4F36
:1040B000E4910E2F10E025E332E231C08F3051F44D
:1040C000E695F0E0E951FA4FE4910E2F10E025EC6F
:1040D00031E225C0853149F4F0E0EC51FA4FE4912A
:1040E0000E2F10E029E631E21AC0883179F08332D0
:1040F00031F4F701059114912FE532E210C08432BA
:1041000051F404EF11E02CEF30E209C008EE13E0A7
:1041100024E331E204C000ED17E02FED30E280919E
:104120000B038823A9F010920B032B873C870E9476
:104130005715A80140955095840F951F909309033A
:104140008093080310920D0310920C033C852B857D
:1041500080910803909109032B873C870E942D15BD
:104160002B853C858017910708F442CEE091080327
:10417000F09109030E0F1F1F10930903009308030A
:1041800088E093E0F901099533CE80E189BD82E1B1
:1041900089BD09B400FEFDCF8091D8008F7D80934A
:1041A000D8008091E00082608093E0008091E00080
:1041B00081FDFCCF1DCE9F3F09F0E2CEEACE0895EF
:1041C000882319F05198599A02C0519A59985098D9
:1041D000589A95E09A95F1F70000509A589895E012
:1041E0009A95F1F70000882311F0519A599885E0CB
:1041F0008A95F1F700000895EF92FF920F931F93B5
:10420000CF93DF937C01C9E1D3E000E010E0F70138
:104210008481073011051CF4882339F002C0811114
:1042200004C09E014091110302C09E0140E06091D4
:10423000100380910F030E94240D0F5F1F4F2496DF
:104240000F30110521F70E94480CF701248130E05E
:104250002F5F3F4F217033272483DF91CF911F9130
:104260000F91FF90EF900895EF92FF920F931F939D
:10427000CF93DF93EC012C813D812F5F3F4F217065
:1042800033273D832C8389E1E82E83E0F82E10E06C
:1042900005E5812F86954C815D81480F511D842F46
:1042A000817097014091110360911003809F802DD0
:1042B00011240E94240D1F5F84E0E80EF11C1F30C2
:1042C00041F7DF91CF911F910F91FF90EF900C94E8
:1042D000480C0F931F93CF93DF9380E090E0FC0195
:1042E000E75EFC4F11821082128204968C33910596
:1042F000B1F7C0E0D0E00FE010E0CE01B8010E94BD
:104300008F29FC0180911703082E000C990BEE0FEA
:10431000FF1FEE0FFF1FC817D907A4F080911F01E0
:10432000082E000C990B8C179D0764F09F01275EE7
:104330003C4F409111036091100380910F030E9444
:10434000240D05C0E75EFC4F118210821282219677
:10435000CF30D10591F60E94480C80911E019091BA
:104360001703980F9093170320911F01280F209394
:104370001F01121614F49E301CF0819580931E01CB
:10438000DF91CF911F910F910895AF92BF92CF927D
:10439000DF92EF92FF920F931F93CF93DF93FC0175
:1043A000828180FF03C0BB24BA9402C0BB24B394B3
:1043B00029E1E22E23E0F22E0BE113E0C0E0D0E091
:1043C000F80131971082F7011082F801108294E011
:1043D000C92ED12CA12C809116038A0D87FD815FF7
:1043E000082E000C990BC817D90791F4809111037E
:1043F0008C9DA0018D9D500D112455954795559587
:10440000479597016091100380910F030E94240D3E
:10441000AB0CF1E0CF1AD108F1F6219684E0E80E5A
:10442000F11C0C5F1F4FCF30D10551F60E94480C94
:104430008091160391E0B91206C0811102C08EE08E
:1044400007C0815005C090E00196BE010E948F29EF
:1044500080931603DF91CF911F910F91FF90EF9002
:10446000DF90CF90BF90AF900895EF92FF921F938F
:10447000CF93DF93EC0189E1E82E83E0F82E10E082
:104480008C8197014091110360911003810F0E946C
:10449000240D1F5E84E0E80EF11C1F3F89F70E9487
:1044A000480C8A819C8180FF02C09F5F01C09150AF
:1044B0009C83DF91CF911F91FF90EF9008950F9310
:1044C0001F93CF93DF9300D000D0CDB7DEB78C0120
:1044D0008091180381110AC09E012F5F3F4F4FEF5B
:1044E0006FEF0E94240D8A8180931803F801848164
:1044F000813051F028F0823061F4409118030AC0F5
:104500008091180340E007C06091180340E080E00C
:1045100003C040E080E060E00E94CA0CF801248102
:1045200030E0C901019663E070E00E948F29848326
:104530000F900F900F900F90DF91CF911F910F91DF
:104540000895CF93DF93EC01EEE0F3E043816281C5
:104550008C810E94C40D8C818F5F8C83DF91CF9101
:104560000895CF93DF93EC01EC81F0E0EC50FA4F2B
:104570004491EEE0F3E0628181810E94C40D8C8160
:104580008F5F8C83DF91CF910895EF92FF920F930D
:104590001F93CF93DF93CDB7DEB767970FB6F8942D
:1045A000DEBF0FBECDBF4B8B5C8B6D8B7E8B8F8B3D
:1045B0000E891F8901151105C1F15F3F11F44F3FAD
:1045C000A1F1E42EF12CA1E0B0E0042E01C0AA0F6D
:1045D0000A94EAF7852F90E0662319F020916A0388
:1045E00006C09C01255A3C4FF90120812A23222331
:1045F000A9F046E0489F9001499F300D1124F70132
:10460000E20FF31FEE0FFF1FEB5BFE4F4081518166
:10461000FC01E55AFC4F9081A92B06C0FC01E55A2C
:10462000FC4FA0958081A823A08386E0FE013D96E3
:10463000DF01982F1D929A95E9F74D875E876F8766
:10464000198B088BDE01179601900D928A95E1F780
:10465000CE0107960E94DC24811137C086E0FE015E
:104660003796DE01119601900D928A95E1F7FF8150
:10467000E8856A857B856115710539F1EF3F11F495
:10468000FF3F19F120911D0230E0C90101968770AA
:10469000992740914E0250E08417950779F1F983EC
:1046A000EA837D836C8396E0929FD001939FB00D47
:1046B0001124A25EBD4FFE01319601900D929A9594
:1046C000E1F780931D020E94431816E080914E028C
:1046D00090911D02891711F1189FC0011124825E6B
:1046E0009D4F0E94DC248823C9F080914E0290E007
:1046F00001968770992780934E02E8CF1092980216
:104700000E94C12610921D0210924E02E7E1F2E0D3
:1047100086E0DF011D928A95E9F7D7CF67960FB63D
:10472000F894DEBF0FBECDBFDF91CF911F910F91E7
:10473000FF90EF9008952091590330915A0382170A
:10474000930771F090935A0380935903E091DE022E
:10475000F091DF02309721F00084F185E02D09947B
:10476000089520915703309158038217930771F0F1
:104770009093580380935703E091DE02F091DF029B
:10478000309721F00680F781E02D09940895E0919B
:10479000DE02F091DF02309721F00190F081E02DF0
:1047A000099480E00895CF93DF93D82FC8E08D2F30
:1047B00080780E94E020DD0FC150C9F780E00E94A0
:1047C000E02085E08A95F1F7000085E08A95F1F711
:1047D000000080E0DF91CF9108950F931F93CF9356
:1047E000DF93C62FD42F022FFC0182818823C9F0CA
:1047F0006093EF010E9457159093560380935503E1
:1048000080E28C0F883008F050C0C77081E001C092
:10481000880FCA95EAF7DF91CF911F910F910C9401
:10482000DF261091EF01161330C08091550390914F
:1048300056030E942D15883C910538F5C0E2CD0F36
:104840001D17B9F080E2810F883040F4177081E0C5
:1048500001C0880F1A95EAF70E94D426C83048F4A0
:1048600081E09D2F977001C0880F9A95EAF70E940A
:10487000DF26802F0E945027C830B8F4D77081E01F
:1048800001C0880FDA95EAF70AC080E28C0F883001
:1048900060F4C77081E001C0880FCA95EAF7DF9124
:1048A000CF911F910F910C94D426DF91CF911F913E
:1048B0000F91089580911C0282958F7009F054C069
:1048C00080911902882309F44FC080914E02A09173
:1048D0001D02609117027091180240911A025091C6
:1048E0001B02B6E08A1709F43FC090E0411551055C
:1048F000C1F17F3F11F46F3FA1F1B89FF001B99F63
:10490000F00D1124E25EFD4F218172132AC0208137
:10491000621327C02281211124C0238134812417EE
:10492000350710F421503109241B350B283C310583
:10493000C0F420911C022F70206120931C0226E0FD
:10494000289FF001299FF00D1124ED5DFD4F80811E
:104950008F708061808387E192E00E9499030C94BC
:10496000431801968770BECF08950E94FB16292F29
:104970002F7092959F70E92FF0E03297EE30F1059D
:10498000B8F4EF55FF4F0C94A329803F99F018F429
:10499000803E70F40FC0843F59F40CC0803E50F04C
:1049A000813F31F407C0822F8695869586950895BC
:1049B00080E0089581E00895BF92CF92DF92EF9258
:1049C000FF920F931F93CF93DF93CDB7DEB761971D
:1049D0000FB6F894DEBF0FBECDBF8C0185E0F801A5
:1049E000DE011D9601900D928A95E1F7D8013C9168
:1049F00011962C9111971296EC9012971396CD90D8
:104A0000DC901497509117026091180280911A025D
:104A100090911B02009709F44FC16F3F19F45F3F5B
:104A200009F44AC1B0901902BB2009F4ECC04091CE
:104A30001C02C816D90628F0F601E81BF90BCF01B5
:104A400004C0809590958C0D9D1DFF24F394883CA7
:104A5000910548F0F12C407F09F09FC087E192E07A
:104A60000E94990321C1842F807F09F044C0621302
:104A700012C0531310C0E1100EC04F70406140933C
:104A80001C0287E192E00E94990380911C02D801E8
:104A900015968C932EC0CD2819F12F3F11F43F3F6E
:104AA000F9F0FE2CE1101CC080914E0240911D02D5
:104AB00056E0841709F458C090E0589FF001599FC0
:104AC000F00D1124E25EFD4F6181261306C0608166
:104AD000361303C06281611103C001968770E9CF6C
:104AE000FE2CEE2009F421C180911C02816080938C
:104AF0001C02F12C1AC162130AC0531308C0E11042
:104B000006C080911C02D80115968C93B0C03D87D9
:104B10002E878D859E850E94B5248823D1F1EE20B5
:104B2000C1F120911C02822F82958F7090E0029734
:104B300074F0809117029091180298878F831986DC
:104B4000DB86CA862C87CE0107960E94990386E0F1
:104B5000F801A7E1B2E001900D928A95E1F70E9479
:104B60005A24FF24F394E1C03D872E878D859E85CE
:104B70000E94FB16292F22952F7030E0223031053C
:104B80000CF0C7C09F7009F0C1C0805E883008F487
:104B9000CCC0C8010E949903E4CF621314C0531320
:104BA00012C0E11010C080911C02F8018583C80179
:104BB0000E94990386E0E7E1F2E0DF011D928A9509
:104BC000E9F7FB2CB2C03D872E878D859E850E941C
:104BD000B5248823F1F2EE20E1F220911C02822F0D
:104BE00082958F7090E002970CF4B1CF80911702FC
:104BF000909118029A8389831B82DD82CC822E8356
:104C0000CE010196A2CFC816D90638F0C81AD90A23
:104C1000B8ECCB16D10450F007C0809590958C0D60
:104C20009D1D883C910510F0F12C3EC0FE2CEE201D
:104C300009F4AFCF621327C0531325C020911C0283
:104C400020FD18C0822F82958F70482F50E04115AB
:104C5000510581F0F80125834F30510541F08F5FF8
:104C6000982F9295907F822F8F70892B8583C80112
:104C70000E94990386E0F801A7E1B2E001900D924D
:104C80008A95E1F752C03D872E878D859E850E94CB
:104C9000B52481115CCF80911C02816080931C023D
:104CA000C8010E94990341C0E7E1F2E086E0DF011C
:104CB0001D928A95E9F739C0EE2009F46ACF3D8745
:104CC0002E878D859E850E94B524F82E882309F4B1
:104CD00060CF86E0F801A7E1B2E001900D928A95DD
:104CE000E1F780911702909118020E94FB169295AD
:104CF0009F70963041F480916A0391E089278093F8
:104D00006A03909369030E945A240FC081113DCF1A
:104D10000CC0243031050CF03CCF9F7009F435CF26
:104D2000F8019581907F09F030CF8F2D61960FB6F5
:104D3000F894DEBF0FBECDBFDF91CF911F910F91D1
:104D4000FF90EF90DF90CF90BF90089510928C026B
:104D500010928B020E947416EFEEF2E086E0DF0103
:104D60001D928A95E9F71092F502109296020E9420
:104D7000631580E090E00E94B12380E090E00C9405
:104D80009B2380911101882331F08091DB0287FF02
:104D900002C08EE101C086E0E9EFF1E0DF011D9283
:104DA0008A95E9F70C94A626882341F08095909186
:104DB00098028923809398020C947416089588238E
:104DC00039F090919802892B809398020C94741674
:104DD0000895882309F463C0823869F40E94C723C8
:104DE00081FF5DC069E387EF91E00E94CD150E94CD
:104DF000741669E30EC0833891F40E94C72380FFC4
:104E00004EC063E587EF91E00E94CD150E947416B5
:104E100063E587EF91E00E94A2150C947416843824
:104E200069F40E94C72382FF3AC067E487EF91E0EC
:104E30000E94CD150E94741667E4EBCF9CEF980F8B
:104E4000913A10F4682FE5CF90E2980F983088F4EB
:104E5000877021E030E0A90102C0440F551F8A95F8
:104E6000E2F7CA0180959091980289238093980275
:104E7000D4CF9BE5980F933020F480E090E00C9421
:104E8000B12398E5980F973120F480E090E00C94DE
:104E90009B23803F20F00E94D5130C946315089546
:104EA000CF93C82F0E946327C93349F42FEF87EEB1
:104EB00093E0215080409040E1F700C000008C2F2B
:104EC000CF910C94E926882309F416C18238B1F4F5
:104ED0000E94C72381FD10C169E387EF91E00E9422
:104EE000CD150E9474162FEF41EE54E02150404042
:104EF0005040E1F700C0000069E317C08338D9F4DF
:104F00000E94C72380FDF8C063E587EF91E00E940F
:104F1000CD150E9474168FEF91EE24E081509040E1
:104F20002040E1F700C0000063E587EF91E00E94B8
:104F3000A2150C9474168438B1F40E94C72382FD24
:104F4000DBC067E487EF91E00E94CD150E947416E4
:104F50004FEF51EE84E0415050408040E1F700C0F7
:104F6000000067E4E2CF9CEF980F913A30F4682F8D
:104F700087EF91E00E94CD15DCCF90E2980F98303A
:104F800080F4877021E030E0A90102C0440F551F72
:104F90008A95E2F7CA0190919802892B8093980232
:104FA000C8CF9BE5980F933070F4853A29F0863A84
:104FB00031F083E890E005C081E890E002C082E82B
:104FC00090E00C94B12398E5980F973108F08EC0CB
:104FD000883A09F445C0893A09F445C08A3A09F487
:104FE00045C08B3A09F445C08C3A09F445C08B3B67
:104FF00009F445C08C3B09F445C08D3A09F445C01D
:10500000803B09F445C08E3A09F445C08F3A09F453
:1050100045C0813B09F445C0823B09F445C0833B50
:1050200009F445C0843B09F445C0853B09F445C0FB
:10503000863B09F445C0873B09F445C0883B09F429
:1050400045C0893B09F445C08D3B09F445C08E3B02
:1050500009F445C08A3B09F445C080E090E044C0B3
:1050600082EE90E041C089EE90E03EC08AEE90E092
:105070003BC085EB90E038C086EB90E035C083EB19
:1050800090E032C084EB90E02FC087EB90E02CC022
:105090008CEC90E029C08DEC90E026C083E891E094
:1050A00023C08AE891E020C082E991E01DC084E934
:1050B00091E01AC081E292E017C083E292E014C04E
:1050C00084E292E011C085E292E00EC086E292E0B6
:1050D0000BC087E292E008C08FE690E005C080E751
:1050E00090E002C08AE292E00C949B23803F20F083
:1050F0000E949F140C94631508951092B9008CE0DF
:105100008093B8000895EF92FF920F931F93CF936F
:10511000DF93182FEB011092BC0084EA8093BC004F
:105120000E9457157C019091BC0097FD0EC0CF3FA7
:105130008FEFD807C1F30E9457158E199F098C175E
:105140009D0788F38EEF9FEF2EC09091B900987F56
:10515000983041F09091B900987F903119F08FEF1D
:105160009FEF21C01093BB0084E88093BC000E9495
:1051700057158C019091BC0097FD0CC0CF3F8FEF6D
:10518000D807C1F30E945715801B910B8C179D0700
:1051900088F3D8CF8091B900887F883111F08034AE
:1051A000F1F680E090E0DF91CF911F910F91FF9099
:1051B000EF9008950F931F93CF93DF93EB018093AC
:1051C000BB0084E88093BC000E9457158C0190912D
:1051D000BC0097FD0EC0CF3F8FEFD807C1F30E94F0
:1051E0005715801B910B8C179D0788F38EEF9FEF4F
:1051F0000CC02091B900287F81E090E0283211F4A2
:1052000080E090E0919581959109DF91CF911F9178
:105210000F9108950F931F93CF93DF93EC0184E8D0
:105220008093BC000E9457158C019091BC0097FDA3
:105230000EC0CF3F8FEFD807C1F30E945715801BD8
:10524000910B8C179D0788F38EEF9FEF03C0809121
:10525000BB0090E0DF91CF911F910F91089584E9F9
:105260008093BC000895F999FECF92BD81BDF89A54
:10527000992780B50895A6E1B0E044E050E00C9491
:105280006D29A8E1B0E042E050E00C946D29262F92
:10529000F999FECF92BD81BDF89A019700B402162C
:1052A00039F01FBA20BD0FB6F894FA9AF99A0FBEDA
:1052B00008950396272F0E9448290E944729252FE9
:1052C0000E944829242F0C9448290196272F0E94D8
:1052D00048290C944729DC01CB01FC01F999FECF48
:1052E00006C0F2BDE1BDF89A319600B40D9241506E
:1052F0005040B8F70895AA1BBB1B51E107C0AA1F75
:10530000BB1FA617B70710F0A61BB70B881F991F66
:105310005A95A9F780959095BC01CD01089597FB0A
:10532000072E16F4009407D077FD09D00E947B2940
:1053300007FC05D03EF4909581959F4F0895709598
:1053400061957F4F0895EE0FFF1F0590F491E02DBA
:105350000994CF93DF938230910510F482E090E0BE
:10536000E0916D03F0916E0320E030E0C0E0D0E00A
:10537000309711F14081518148175907C0F0481703
:10538000590761F482819381209719F09B838A8366
:105390002BC090936E0380936D0326C021153105B9
:1053A00019F04217530718F49A01BE01DF01EF010B
:1053B0000280F381E02DDCCF2115310509F1281B96
:1053C000390B2430310590F412968D919C911397EE
:1053D0006115710521F0FB019383828304C09093D2
:1053E0006E0380936D03FD01329644C0FD01E20F10
:1053F000F31F81939193225031092D933C933AC02E
:1054000020916B0330916C03232B41F42091020116
:105410003091030130936C0320936B0320910001C2
:10542000309101012115310541F42DB73EB740916E
:10543000040150910501241B350BE0916B03F091A1
:105440006C03E217F307A0F42E1B3F0B2817390754
:1054500078F0AC014E5F5F4F2417350748F04E0FD0
:105460005F1F50936C0340936B038193919302C031
:10547000E0E0F0E0CF01DF91CF9108950F931F930B
:10548000CF93DF93009709F48CC0FC01329713820D
:10549000128200916D0310916E030115110581F4C4
:1054A00020813181820F931F20916B0330916C0317
:1054B0002817390779F5F0936C03E0936B0371C0FB
:1054C000D80140E050E0AE17BF0750F412962D917E
:1054D0003C911397AD012115310509F1D901F3CFA5
:1054E0009D01DA013383228360817181860F971FCA
:1054F0008217930769F4EC0128813981260F371F41
:105500002E5F3F4F318320838A819B8193838283E7
:10551000452B29F4F0936E03E0936D0342C013967C
:10552000FC93EE931297ED01499159919E01240F3E
:10553000351FE217F30771F480819181840F951F65
:10554000029611969C938E938281938113969C93DD
:105550008E931297E0E0F0E0D80112968D919C9125
:105560001397009719F0F8018C01F6CF8D919C915B
:1055700098012E5F3F4F820F931F20916B03309154
:105580006C032817390769F4309729F410926E03D9
:1055900010926D0302C01382128210936C03009369
:1055A0006B03DF91CF911F910F910895FC01415042
:1055B000504030F001900616D1F73197CF01089591
:0A55C000882799270895F894FFCF7B
:1055CA0000006F03200001191A1B1C1D1E1F202139
:1055DA0022012000EF128E136313F2122813010224
:1055EA000001020202020606060909090909090F51
:1055FA000F0F0F0F0F151515181919191919191950
:10560A001919192324000D010D020D030D040D05AE
:10561A000D000C010C020C030C040C050C000B0110
:10562A000B020B030B040B050B000A010A020A0307
:10563A000A040A050A0009010902090309040905FD
:10564A000900080108020803080408050800070100
:10565A0007020703070407050700060106020603F7
:10566A0006040605060005010502050305040505ED
:10567A0005000401040204030404040504000301F0
:10568A0003020303030403050300020102020203E7
:10569A0002040205020001010102010301040105DD
:0E56AA000100000100020003000400050000E2
:00000001FF
