:100000000C948D030C94AA030C94AA030C94AA03D9
:100010000C94AA030C94AA030C94AA030C94AA03AC
:100020000C94AA030C94AA030C9482160C945715F2
:100030000C946A210C94AA030C94AA030C94AA03AE
:100040000C94AA030C94AA030C94AA030C94AA037C
:100050000C94AA030C94C2170C94AA030C94AA0340
:100060000C94AA030C94AA030C94AA030C94AA035C
:100070000C94AA030C94AA030C94AA030C94AA034C
:100080000C94AA030C94AA030C94AA030C94AA033C
:100090000C94AA030C94AA030C94AA030C94AA032C
:1000A0000C94AA030C94AA030C94AA033B093B09E1
:1000B00079097909C209CD0B740BCD0BE209CE0A7F
:1000C000E00AE00A300D330D360D390D3C0D3F0DC1
:1000D000420D28102D1037102B1030103510331012
:1000E0009E12B812E41225137013731378137B1346
:1000F0007E138113841387138A138D139013931324
:1001000096139B13A013A313A6131A294129E12ABE
:100110004129E12A8929AC29E12AAA2ABD2A192BD9
:10012000192B2C2B2C2B222B2C2B2C2B2C2B192B47
:10013000192B272B2C2B2C2B272B2E002C08296F2F
:10014000D75C354100001E00140004001D6134001E
:10015000E0001F001A0016001B00A6002A00200065
:1001600008000700060050002C00210015000900BF
:1001700019004F00E200220017000A0005000000ED
:1001800065642B0A01530000000F0000E3002B08F8
:100190000253000000070000E20023001C000B00D7
:1001A000110000002961240018000D001000520009
:1001B0004B0025000C000E003600510028002600E0
:1001C00012000F0037002F002B00270013003342CE
:1001D000387130004E002D0031003468D85C015178
:1001E00000002900010001000100010000003A00A8
:1001F0001E02200222020100025D3B001F022102BA
:1002000023020100C95C3C002F0226022F000100DE
:10021000CA5C3D003002270230000100025D3E0052
:100220003102350035020000C35C0100010000000E
:1002300001000000015D010001000000010000005C
:10024000C25C3F005200510024020000005D4000EB
:10025000240021001E0001000100410025002200B1
:100260001F003700C55C4200260023002000270045
:10027000C65C430025022E0231002E00010044001E
:1002800045000100010001000000005C01000100C8
:10029000010001000000010001004F080100010001
:1002A00001000100010001004C00010001000100FB
:1002B0004F0401004F0A010001000100010001008C
:1002C00001000100010001000100010050040000D4
:1002D0000100010001000000010000000100010018
:1002E00001000000010000000100010006085000AC
:1002F0000A080000010001001D0851000100010072
:100300000100010010505200010001000100010035
:1003100001004F0001000100010050081908010010
:1003200009080100010001000100010001000100B5
:1003300000000000000000000000000000000000BD
:1003400000000000000000000000000000000000AD
:10035000000000000000000000000000000000009D
:10036000000000000000000000000000000000008D
:10037000000000000000000000000000000000007D
:10038000000000000000000000000000000000006D
:10039000000000000000000000000000000000005D
:1003A000000000000000000000000000000000004D
:1003B000000000000000000000000000000000003D
:1003C000000000000000000000000000000000002D
:1003D000000000000000000000000000000000001D
:1003E000000000000000000000000000000000000D
:1003F00000000000000000000000000000000000FD
:1004000000000000000000000000000000000000EC
:1004100000000000000000000000000000000000DC
:1004200000000000000000000000000000000000CC
:1004300000000000000000000000000000000000BC
:1004400000000000000000000000000000000000AC
:10045000000058AAAB58AAAB58AAAB58AAAB58AAE6
:10046000AB58AAAB58AAAB58AAAB58AAAB58AAAB80
:1004700058AAAB58AAAB58AAAB58AAAB58AAAB58C3
:10048000AAAB58AAAB58AAAB58AAAB58AAAB58AA61
:10049000AB58AAAB58AAAB58AAAB58AAAB58AAAB50
:1004A00058AAAB58AAAB58AAAB58AAAB58AAAB5893
:1004B000AAAB58AAAB58AAAB58AAAB58AAAB58AA31
:1004C000AB58AAAB58AAAB58AAAB58AAAB58AAAB20
:1004D00058AAAB58AAAB58AAAB58AAAB58AAAB5863
:1004E000AAAB0000000000000000000001010101B3
:1004F00001010101010202020202020202030303DE
:1005000003030303040404040405050505050606A6
:1005100006060607070707080808080909090A0A5E
:100520000A0B0B0B0C0C0C0D0D0D0E0E0E0F0F10FD
:100530001010111112121313141415151616171783
:10054000181819191A1A1B1C1C1D1D1E1F1F2021EB
:100550002122232324252526272828292A2B2C2C31
:100560002D2E2F30313132333435363738393A3B4E
:100570003C3D3E3F404142434445464748494B4C41
:100580004D4E4F50525354555758595A5C5D5E600A
:100590006163646567686A6B6C6E6F71727476779D
:1005A000797A7C7D7F8182848687898B8D8E9092FB
:1005B000949597999B9D9FA1A2A4A6A8AAACAEB022
:1005C000B2B4B6B9BBBDBFC1C3C5C8CACCCED0D307
:1005D000D5D7DADCDEE1E3E6E8EAEDEFF2F4F7F9AD
:1005E000FCFF05010980A10185031A81002A83000F
:1005F000160100260300950175108100C0050C0945
:1006000001A10185041A01002A9C02160100269C02
:1006100002950175108100C005010906A10185053B
:10062000050719E029E715002501950875018102E4
:100630000507190029EF1500250195F075018102C4
:1006400005081901290595057501910295017503A4
:100650009101C005010906A101050719E029E71567
:100660000025019508750181029501750881010534
:1006700007190029FF150026FF009506750881005F
:100680000508190129059505750191029501750364
:100690009101C009023B00020100A0FA0904000018
:1006A0000103010100092111010001224000070599
:1006B000810308000A090401000103000000092168
:1006C000110100012271000705820320000A1201B6
:1006D000100100000008EDFE0713010001020301F4
:1006E00004033000000016034500720067006F002D
:1006F00044006F007800200045005A0000001603F7
:100700004500720067006F0044006F007800200011
:1007100045005A0000000403090411241FBECFEF56
:10072000DAE0DEBFCDBF13E0A0E0B1E0E8E2F2E640
:1007300002C005900D92AE36B107D9F726E0AEE6BD
:10074000B3E001C01D92A830B207E1F70E9414186F
:100750000C9412310C9400008F929F92AF92BF9232
:10076000CF92DF92EF92FF920F931F93CF93DF937D
:10077000CDB7DEB728970FB6F894DEBF0FBECDBF5A
:10078000FC01F080118183819481892B11F40C94F8
:10079000C00C1F3F29F40FEFF01611F40C94C00C9D
:1007A0006F0185E0DE01119601900D928A95E1F7C7
:1007B000F601228189819A81222349F00E94222315
:1007C000082F682F89819A810E949B2303C00E9471
:1007D0006E23082F26E0129FF001112434E5039FB9
:1007E000E00DF11D1124EF0DF11DEE0FFF1FE65C72
:1007F000FE4F05911491F60182810E3FFCE51F0723
:1008000059F00F3F2CE5120709F446C0023C3CE5C5
:10081000130709F09CC062C0882309F4D7C09091E7
:10082000840381E0890F8770987F853020F4892BBD
:100830008093840302C09093840380918403877023
:10084000EFEF8E9FC001112495958795959587951B
:100850009927909389008093880090938B008093D0
:100860008A0090938D0080938C0040918403509176
:10087000850360918603709187038FE090E00E946A
:10088000092E6091BC057091BD058091BE059091C7
:10089000BF050E940E109AC0882309F497C080916A
:1008A000840383FB222720F991E0922790FB83F9B0
:1008B00080938403992329F040E060E080E00E9467
:1008C000E91E4091840350918503609186037091E5
:1008D00087038FE090E00E94092E78C0882311F4EE
:1008E0000C94C00C90911701809184039F3F59F4A0
:1008F000109217018F7E8093840340E060E080E0D7
:100900000E94E91E06C09FEF9093170180618093BB
:100910008403409184035091850360918603709114
:1009200087038FE090E028960FB6F894DEBF0FBEE5
:10093000CDBFDF91CF911F910F91FF90EF90DF908E
:10094000CF90BF90AF909F908F900C94092E013064
:10095000FDE51F0749F002302DE5120799F001155A
:100960003DE5130799F567C0882311F40C94C00C7A
:1009700081E00E94F51E8CEA809300068FEF809341
:1009800001060EC0882311F40C94C00C81E00E9473
:10099000F51E86E5809300068FEF8093010680E8C0
:1009A0008093020628960FB6F894DEBF0FBECDBF27
:1009B000DF91CF911F910F91FF90EF90DF90CF903B
:1009C000BF90AF909F908F900C94ED1EF6018281A6
:1009D000882381F0033E8CE5180709F46AC008F00B
:1009E0005DC0013EECE51E0709F051C01092800386
:1009F0000E945F2017FFD1C0F601828181115FC084
:100A00000B3CFCE51F0709F41DC108F435C1033D8B
:100A10009CE5190709F463C308F068C30F3CFCE5C3
:100A20001F0709F44AC708F058C70D3C3CE51307F7
:100A300039F4F6018281882309F4A2C781E013C04A
:100A40000E3C1C4508F40AC1F6018281882309F492
:100A500097C78091FF0586958695825C8F7383305A
:100A600008F446C182E028960FB6F894DEBF0FBEA8
:100A7000CDBFDF91CF911F910F91FF90EF90DF904D
:100A8000CF90BF90AF909F908F900C94F51E023E38
:100A9000FCE51F0709F0AECF81E00EC0043E2CE557
:100AA000120749F0053E3CE5130709F0A3CF84E0A7
:100AB00003C082E001C083E08093800399CF8091DE
:100AC000C80580936E031092C80580918003813021
:100AD00071F048F08230D1F08430F1F486EE0E945B
:100AE000D32C88E117C082EE0E94C22B15C083EE82
:100AF0009CE00E94F22788E10E94C22B88E10E94BC
:100B0000662B83ED9CE00E94F22706C082EE0E94D5
:100B1000C22B87E50E94D32C8FE39CE90197F1F764
:100B200000C000007801E894F7F85CE0A52EB12C35
:100B3000C7010A2C02C0969587950A94E2F7282FE0
:100B40002F7041F0822F90E02A3010F44D9604C0AF
:100B5000069702C087E290E00E94D32C94E0A91A85
:100B6000B108ECEFAE16EFEFBE0611F780918003EF
:100B7000813039F040F0823031F0843051F488E235
:100B800006C08CE204C082EE0E94662B02C00E9466
:100B9000D32C80916E038093C805003FFCE51F07AE
:100BA000B1F180F4083D3CE51307C9F0093D8CE53F
:100BB0001807C9F1073D9CE51907C1F526E241EE8A
:100BC00061EE10C0023FECE51E0749F120F1033F42
:100BD0002CE5120759F527E245EE66EE03C027E241
:100BE00045EE65EEC60128960FB6F894DEBF0FBE3F
:100BF000CDBFDF91CF911F910F91FF90EF90DF90CC
:100C0000CF90BF90AF909F908F900C94A82026E239
:100C100041EE60EEE7CF27E245EE64EEE3CF26E259
:100C200041EE62EEDFCF28E241E0DBCFF6018281C8
:100C3000882319F010926F03E3CE0B3CFCE51F07ED
:100C400009F043C2F6018281882309F499C62091F4
:100C5000030630E1230F08F42FEF0BC0F601828169
:100C6000882309F48DC62091030630E1231B08F484
:100C700020E02093030696CE033C3CE51307E9F4FD
:100C8000F6018281882309F47BC68091C8058272AF
:100C900079F128960FB6F894DEBF0FBECDBFDF9175
:100CA000CF911F910F91FF90EF90DF90CF90BF9069
:100CB000AF909F908F900C94011F043C8CE5180717
:100CC00058F1073C9CE5190709F4A4C508F0AEC526
:100CD000053CFCE51F0709F4BCC508F0C3C5F601D7
:100CE0008281882309F44CC68091C805827289F2FA
:100CF00028960FB6F894DEBF0FBECDBFDF91CF911F
:100D00001F910F91FF90EF90DF90CF90BF90AF9029
:100D10009F908F900C94171F06319CE5190708F0DF
:100D200089C10230ECE51E0708F429C1F601828171
:100D3000882309F439C20E940722811102C00E944F
:100D400012220E94F62190939703809396030F300E
:100D5000FCE51F0709F4CDC008F042C008303CE5AF
:100D6000130709F4A8C0F0F404309CE5190709F44E
:100D700090C068F40230FCE51F0709F486C0033018
:100D80001C4509F0D9C0809196038260D3C006301B
:100D90003CE5130709F487C008F089C080919603E9
:100DA0008860C8C00B309CE5190709F493C068F44B
:100DB0000930FCE51F0709F482C00A301C4509F020
:100DC000BBC08091960388607EC00D303CE5130760
:100DD00009F484C008F085C0809196038D7FAAC075
:100DE000073F9CE5190709F457C050F50231FCE5AF
:100DF0001F0709F486C068F400313CE5130709F4C5
:100E00007CC001311C4509F097C0809196038F7B0F
:100E100091C004319CE5190709F483C008F475C03A
:100E200005311C4509F088C08091960382FB22277A
:100E300020F991E0922790FB82F990FB83F97AC028
:100E40000A3F2CE5120709F450C058F4083F8CE51E
:100E5000180729F1093F1C4509F06EC080919703DE
:100E60005CC00C3FECE51E0709F454C070F10D3F67
:100E70001C4509F061C080919703982F909591705F
:100E80008E7F892B90FB81F949C080919603816008
:100E900051C08091960317C08091970319C080912B
:100EA000970382603BC080919603806143C080912C
:100EB000960380623FC08091960380643BC080911E
:100EC0009603806837C0846035C080919703826044
:100ED000816024C0809196038E7F2CC08091960300
:100EE00017C080919603877F25C0809197038D7FDF
:100EF00015C0809196038F7E1DC0809196038F7DD3
:100F000019C0809196038F7715C080919603877FD3
:100F10008B7F10C0809197038D7F8E7F8093970386
:100F20000BC08091960387FB222720F991E092273E
:100F300090FB87F980939603609196031091970335
:100F400084E090E00E94F72D612F81E290E00E9402
:100F5000F72D1092C80528960FB6F894DEBF0FBE85
:100F6000CDBFDF91CF911F910F91FF90EF90DF9058
:100F7000CF90BF90AF909F908F900C943E2B011517
:100F8000FCE51F0709F044C0F6018281882309F4BB
:100F9000F7C41092C8050E943E2BFFEF04E31CE04B
:100FA000F15000401040E1F700C00000F89481E0EB
:100FB0008093E00080E28093D8001092C9008FE116
:100FC0009EE40197F1F700C000001DBA109268007E
:100FD0001CBC10BE1FBA10927A0010926E001092C4
:100FE0006F0010927100109272001092C90010925E
:100FF000BC0014B817B81AB81DB810BA1092BC00CB
:1010000015B818B81BB81EB811BA0C94003FB8C474
:1010100001301C4509F0C8C0F6018281882309F41B
:10102000AFC48091AA03982F909590FB80F980938C
:10103000AA03A6C406313CE51307A9F59091C8059B
:10104000F6018281882381F09A7A81E009F480E0B8
:1010500080937003811102C069E201C065E38BE2F5
:1010600095E00E94BE210BC080917003811102C0E7
:1010700069E201C065E38BE295E00E949321289626
:101080000FB6F894DEBF0FBECDBFDF91CF911F9199
:101090000F91FF90EF90DF90CF90BF90AF909F9017
:1010A0008F900C94DC22023C1C4509F07DC0F601B7
:1010B0008281882309F464C49091FF0581E0892727
:1010C0008093FF05109206016DCC0C3C2CE51207B5
:1010D00008F479C0033D9CE5190709F0E8C3F6015F
:1010E0008281882309F44CC488E1BDCC0D3DFCE528
:1010F0001F0749F4F6018281882309F441C482E084
:1011000080937D033DC40E3D2CE5120750F5053D4F
:101110003CE5130739F4F6018281882309F430C4D1
:1011200083E2A1CC053D8CE5180780F4F6018281AD
:10113000882309F425C48091FF0586958695895DED
:101140008F73893008F4D4CD89E18DCC0C3D1C45DA
:1011500059F5F6018281882309F412C410927D03A7
:101160000FC40E3DECE51E07C9F4F6018281882309
:1011700009F406C428960FB6F894DEBF0FBECDBFA3
:10118000DF91CF911F910F91FF90EF90DF90CF9063
:10119000BF90AF909F908F900C941222C801875FF0
:1011A0009C45079708F4C2CDF60182810081118128
:1011B000882331F1C8010E942223F82E682FC8012C
:1011C0000E949B2321C0033C3CE5130709F458CD42
:1011D00008F077CD06319CE5190708F011C30230FD
:1011E000ECE51E0708F0A2CD0115FCE51F0709F488
:1011F000CBCE01301C4509F40FCFF60100811181DF
:10120000C8010E946E23F82EB8018F2D0E94950D03
:10121000182F382FF601258122952F700281011198
:101220001092C2058091C0058770A9F0002399F043
:1012300080E2810F883078F082E02F8338879E83A8
:101240000E94FC238091C0058770EE24E3942F81D7
:1012500038859E818111E12CA92EA2944FE0A42211
:10126000B12CFCE0AF16B10408F097C2F501EA5AC0
:10127000FF4F0C94DF2F892F807F9F70F92E8823DA
:1012800019F0F29480EFF8220023B9F0FF2009F45E
:1012900015C280E2810F883010F0311106C09091A4
:1012A000C805F92AF092C80505C09091C205F92A2F
:1012B000F092C2050E94DC2201C2812F38870E9471
:1012C000662B3885FF2009F468C2105EF094183050
:1012D00010F0311106C09091C805F922F092C805AE
:1012E00005C09091C205F922F092C2050E94DC224D
:1012F00054C2492F407F892F8F70403211F0829560
:10130000807F332319F03130E9F025C0002381F0CC
:101310003091C305222351F0213041F4982F932BB3
:10132000391709F43AC29093C30537C2832B17C00B
:10133000222319F0213009F430C28E830E94D62274
:101340008E811DC0002321F0223008F026C207C084
:10135000211123C214C0002329F02111AFC10E9422
:101360005C2B1BC2222359F0193309F0B9C10FEFCE
:1013700027EE33E0015020403040E1F7AFC10E943A
:10138000512B0BC2292F26952695237030E021156D
:10139000310521F02130310559F0FFC1002319F04A
:1013A000812F937002C080E090E00E94BA1EFEC1BF
:1013B000002319F0812F937002C080E090E00E941A
:1013C000A41EF4C1892F837009F070C00111ECC113
:1013D000812F829586958770880F880F412F4F70D7
:1013E00050E060E070E04A015B01082E04C0880C08
:1013F000991CAA1CBB1C0A94D2F714FF12C00FE060
:1014000010E020E030E004C0000F111F221F331F46
:101410008A95D2F7B901A8014095509560957095CD
:1014200003C040E050E0BA01969596959370892FDD
:1014300090E08230910529F183309105C9F0009147
:10144000C4051091C5052091C6053091C7050197C7
:1014500059F0482959296A297B29CB01BA0160230F
:101460007123822393230AC0802A912AA22AB32AB5
:10147000CB01BA01682979298A299B290E9436243F
:1014800093C1482959296A297B298091C4059091E3
:10149000C505A091C605B091C7058A019B01082723
:1014A00019272A273B27C901B801E8CF002319F0E3
:1014B000892F817001C08695882309F475C1812F19
:1014C000829586958770880F880F412F4F7050E066
:1014D00060E070E04A015B01082E04C0880C991C92
:1014E000AA1CBB1C0A94D2F714FF12C00FE010E034
:1014F00020E030E004C0000F111F221F331F8A9527
:10150000D2F7B901A801409550956095709503C038
:1015100040E050E0BA01969596959370892F90E03F
:1015200082309105E9F08330910579F10091BC0595
:101530001091BD052091BE053091BF05019759F06E
:10154000482959296A297B29CB01BA0160237123D3
:101550008223932320C0802A912AA22AB32A15C06D
:10156000482959296A297B298091BC059091BD059C
:10157000A091BE05B091BF058A019B0108271927DC
:101580002A273B27C901B80106C0CB01BA01682947
:1015900079298A299B290E94CB2306C19F70F92EA5
:1015A000002339F0892F0E941524812F0E945C2B83
:1015B000FBC0812F0E94512B8F2D0E94D723F4C096
:1015C000812F323FC9F128F4303F49F0313F79F1A2
:1015D00070C0333FC1F1343F09F44DC06AC00023ED
:1015E00011F12111DAC0292F2F7181E090E0A0E0E4
:1015F000B0E0AC01BD0104C0440F551F661F771F4A
:101600002A95D2F78091BC059091BD05A091BE05A9
:10161000B091BF058A019B01082719272A273B277C
:10162000C901B80125C0223008F0B7C0DCCF0023C3
:1016300029F0892F8F712EC00023D9F3892F8F7144
:101640000E94D723AAC0002381F0292F2F7181E0A7
:1016500090E0A0E0B0E0BC01CD0104C0660F771FB0
:10166000881F991F2A95D2F703C060E070E0CB0174
:101670000E94CB2392C0002381F0192F1F71812F6C
:101680000E94152428E0129FC001112483608093DA
:10169000C005812F0E94152480C081E02F830E9405
:1016A000FC232F81223008F478C082E00E94FC23C2
:1016B00074C0002339F0222309F4BBCF812F0E948C
:1016C000C22B6BC0222309F4B9CF893349F43FEF11
:1016D00087EE93E0315080409040E1F700C0000079
:1016E000812F0E94662B59C0323FB1F028F4303F61
:1016F00049F0313FF9F028C0343FB9F058F0353F98
:1017000071F022C0002309F451C090914C0581E092
:10171000892708C081E0082700934C0547C00111C4
:1017200045C081E080934C0541C001113FC010923B
:101730004C053CC0002329F080914B05882329F3F8
:1017400029C0222311F332C080914B052223C1F01E
:10175000882341F090914C0581E0892780934C05C6
:1017600010924B05812F002319F00E94C22B1EC03E
:101770000E94662B86E0F60111928A95E9F716C061
:101780008823A1F0011112C090914C0581E08927B6
:1017900080934C0510924B0509C0F8E0AF1AB108D0
:1017A00004E0A016B10410F40E94D01EEE2009F44B
:1017B000E7C08091C00580FDE3C0F60112828595E7
:1017C000859585950E941524C6010E94AC038091E1
:1017D000C00585958595859528960FB6F894DEBF4A
:1017E0000FBECDBFDF91CF911F910F91FF90EF9072
:1017F000DF90CF90BF90AF909F908F900C94D723A5
:1018000006313CE5130709F419CC023C1C4509F4E8
:101810004ECCF3CCF6018281882309F4B1C020912B
:10182000010630E1230F08F42FEF10C0093C3CE51E
:10183000130719F170F5F6018281882309F4A0C01D
:101840002091010630E1231B08F420E020930106DB
:10185000A9C8F6018281882309F492C0809100060C
:10186000885F08C0F6018281882309F489C08091CD
:10187000000688508093000695C8F601828188236F
:1018800009F47EC02091020630E1230F08F42FEF07
:101890000BC0F6018281882309F472C020910206F0
:1018A00030E1231B08F420E0209302067BC8043DAE
:1018B000ECE51E0708F4B2C845C0F6018281882312
:1018C00009F45EC08091FF0586958695865C8F73CE
:1018D000823008F40DCA86E0C6C8013D9CE51907B0
:1018E00081F4F6018281882309F44AC08091FF05C2
:1018F000869586958F5C8F73853008F4F9C98FE0E3
:10190000B2C8023D1C4578F4F60182818823C1F1FA
:101910008091FF0586958695895C8F73853008F4E4
:10192000E7C989E0A0C8F6018281882349F1809146
:10193000FF0586958695855D8F73823008F4D8C93A
:1019400085E191C80D3DFCE51F0709F4D3CB60F498
:10195000053D3CE5130709F4DECB08F4E7CB0C3D6D
:101960001C4509F4F6CB49CC0E3DECE51E0709F405
:10197000FCCBC801875F9C45079708F4D7C93DCCCD
:1019800028960FB6F894DEBF0FBECDBFDF91CF9182
:101990001F910F91FF90EF90DF90CF90BF90AF908D
:1019A0009F908F900895282F277081E090E001C0CC
:1019B000880F2A95EAF780959091C2058923809334
:1019C000C2050C94DC22282F277081E090E001C032
:1019D000880F2A95EAF79091C205892B8093C2055A
:1019E0000C94DC22CF93E82F873080F58091090199
:1019F00090910A01892B09F047C0CE2F64E670E070
:101A000080E40E94EC2C90930A0180930901892BB9
:101A1000D1F464E670E082E10E94432D90930A01C4
:101A200080930901892B79F481E090E001C0880F4F
:101A3000CA95EAF764E670E080950E94432D909382
:101A40000A0180930901CF910C94BF2D90E0FC0115
:101A50003797E730F105C0F4EE59FF4F0C94DF2FB4
:101A6000209A289811C0219A29980EC0229A2A9863
:101A70000BC0239A2B9808C0529A5A9805C0539AC3
:101A80005B9802C03E9A4698CF910895CF938730D5
:101A900008F03FC08091090190910A01892B09F05B
:101AA00041C064E670E080E40E94EC2C90930A014F
:101AB00080930901892B11F0C0E027C064E670E033
:101AC00083E10E94432D90930A0180930901892BA1
:101AD00099F764E670E081E40E94EC2C90930A018F
:101AE00080930901892B41F784E690E00E94732DD1
:101AF00097FF05C090930A0180930901DDCFC82F9D
:101B0000C09510920A01109209010E94BF2D8C2FDE
:101B10000AC09FB18FB1807F869586959370892B7F
:101B2000809501C080E0CF910895CF93DF9326E0A8
:101B3000729FF001112434E5839FE00DF11D112403
:101B4000E60FF11DEE0FFF1FE65CFE4FC591D4912D
:101B5000CE01C238D10569F1B0F4C133D10509F421
:101B600075C048F4C932D10509F469C0CA32D1053B
:101B700009F473C079C0C533D10509F459C0C9331C
:101B8000D105B9F071C0C33ED10571F138F4C03E42
:101B9000D105B1F0C23ED10511F166C0C63ED105F6
:101BA000B9F1C73ED105C9F1C43ED10509F05CC009
:101BB00024C02091960320FD29C221FD27C22BC2FB
:101BC0002091960320FD1CC22091970320FF23C281
:101BD0008091960384FDC6C183EE90E01CC22091E3
:101BE000960322FF18C2F4CF8091960382FD0BC2A8
:101BF0008091970380FD0AC2EBCF2091970321FFCC
:101C00000AC28091960384FDADC187EE90E003C2C5
:101C10002091960323FFFFC1F4CF8091960383FDAB
:101C2000F8C18091970381FFECCF84EE90E0F3C17F
:101C30002091960325FFEFC189E290E0ECC120914D
:101C4000960325FFE8C185E390E0E5C12091960366
:101C500026FFE1C18AE290E0DEC12091960326FFD3
:101C6000DAC181E390E0D7C1C11540E5D40708F09F
:101C700047C0C11520E4D20708F034C1C83ED105E1
:101C800018F5C03ED10508F0C6C1C83AD10570F4B8
:101C9000C53AD10508F0B1C0C130D10509F4BBC1C6
:101CA00008F460C1249708F45DC1B5C1CF3BD105EC
:101CB00008F4AEC0C03CD10508F454C1FE01EE0FDB
:101CC000FF1FEE59FC4F03C1C11530E2D30760F48A
:101CD000C11541E0D40708F09EC1C03FD10508F40A
:101CE00041C1CE01906597C1C11580E3D80708F0C6
:101CF000F1C0FE01FF70EE0FFF1FEE51FB4FE7C07A
:101D0000C11595E5D90708F044C0C11524E5D207EF
:101D100008F002C1C11532E5D30710F5C11541E540
:101D2000D40708F0E4C08C2F837021E030E002C0BB
:101D3000220F331F8A95E2F73C68CE0174E0969536
:101D400087957A95E1F78370382BEC2FEF70E69545
:101D5000E69540E2E49FC0011124822B932B5BC1E6
:101D60002C2F26952695AE0143705527C115D345D6
:101D700008F0C3C080E2289F9001112481E090E028
:101D800002C0880F991F4A95E2F7822B932B9C681B
:101D900042C1C1159AE5D907A8F4C11529E5D207B2
:101DA00008F0C9C0C11536E5D30708F4BBC0C1159A
:101DB00048E5D40708F4D6C0FC2FEE27CF01806F8A
:101DC000906A29C1C1158BE5D80708F4CBC0C115AD
:101DD0009CE5D90708F4C2C0CE0190568115904207
:101DE00008F0C0C08D2F8F710E946520FE01FF2773
:101DF000F0628F719F01382BAFC0C53AD10509F44D
:101E0000B4C0C63AD10509F0B3C082E890E403C17A
:101E1000C83AD10509F4AFC0C93AD10509F4AEC03A
:101E2000CA3AD10509F4ADC0CB3AD10509F4ACC02A
:101E3000CC3AD10509F4ABC0CB3BD10509F4AAC01B
:101E4000CC3BD10509F4A9C0CD3AD10509F4A8C00D
:101E5000C03BD10509F4A7C0CE3AD10509F4A6C00C
:101E6000CF3AD10509F4A5C0C13BD10509F4A4C0FE
:101E7000C23BD10509F4A3C0C33BD10509F4A2C0FC
:101E8000C43BD10509F4A1C0C53BD10509F4A0C0EC
:101E9000C63BD10509F49FC0C73BD10509F49EC0DC
:101EA000C83BD10509F49DC0C93BD10509F49CC0CC
:101EB000CD3BD10509F49BC0CE3BD10509F49AC0B6
:101EC000CA3BD10509F499C080E094E4A4C085918F
:101ED0009491A1C0CE019927D3FF02C0986C9BC0FA
:101EE000906C99C0FE01FF70CF01906A94C0FC2FE6
:101EF000EE27CF01816F906A8EC090E2299F9001FA
:101F0000112481E090E002C0880F991F4A95E2F702
:101F1000822B932B9A687FC0FC2FEE27CF01846F12
:101F2000906A79C08C2F0E9465208F7190E0982F65
:101F30008827906270C08C2F8F700E946520FE01F0
:101F400094E0F695E7959A95E1F7EF70F0E0FE2FB3
:101F5000EE27F0699F01282BC9015DC0CE019927AA
:101F6000906659C080E090E056C081E890E453C08C
:101F700083E890E450C082EE94E44DC089EE94E48E
:101F80004AC08AEE94E447C085EB94E444C086EBF3
:101F900094E441C083EB94E43EC084EB94E43BC002
:101FA00087EB94E438C08CEC94E435C08DEC94E479
:101FB00032C083E895E42FC08AE895E42CC082E91A
:101FC00095E429C084E995E426C081E296E423C023
:101FD00083E296E420C084E296E41DC085E296E4A4
:101FE0001AC086E296E417C087E296E414C08FE632
:101FF00094E411C080E794E40EC08AE296E40BC03A
:1020000089E390E008C082EE90E005C080EE90E0A9
:1020100002C086EE90E0DF91CF910895CF92DF92DB
:10202000EF92FF926B017C010E94862256985E9887
:1020300025982D9826982E9827982F9890E0FC01A7
:102040003197E730F105A8F4E759FF4F0C94DF2FE3
:10205000259A2D9A0EC0259A2D9A269A2E9A09C055
:10206000259A2D9A04C0259A2D9A269A2E9A279A57
:102070002F9AC701B601FF90EF90DF90CF9008959F
:1020800080E290E090930A018093090180917803A7
:1020900081110EC00E94E62C81E0809378032FEF1F
:1020A00083ED90E3215080409040E1F700C00000B4
:1020B00064E670E080E40E94EC2C90930A01809327
:1020C0000901892B09F04EC064E670E080E00E94AF
:1020D000432D90930A0180930901892B09F042C096
:1020E00064E670E080E00E94432D90930A018093A3
:1020F0000901892BB9F564E670E08FE30E94432D56
:1021000090930A0180930901892B61F50E94BF2DEC
:1021100064E670E080E40E94EC2C90930A018093C6
:102120000901892BF9F464E670E08CE00E94432DEC
:1021300090930A0180930901892BA1F464E670E071
:1021400080E00E94432D90930A0180930901892B1E
:1021500049F464E670E08FE30E94432D90930A01F6
:10216000809309010E94BF2D809109010895CF93AA
:10217000DF9356985E9825982D9826982E98279844
:102180002F98C8E8D0E08FEF90E099838883AAE881
:10219000B0E011969C938E93ECE8F0E091838083FD
:1021A000259A2D9A2FEF80E792E0215080409040B1
:1021B000E1F700C00000269A2E9A2FEF80E792E008
:1021C000215080409040E1F700C00000279A2F9AEC
:1021D0002FEF80E792E0215080409040E1F700C06F
:1021E000000025982D982FEF80E792E02150804045
:1021F0009040E1F700C0000026982E982FEF80E76E
:1022000092E0215080409040E1F700C00000279804
:102210002F988091840387702FEF829FC001112433
:102220009595879595958795992799838883119694
:102230009C938E939183808356985E9825982D98D1
:1022400026982E9827982F98DF91CF91089584B1E2
:10225000807F84B985B1807F85B98AB1837F8AB94F
:102260008BB1837F8BB93E984698089580B38C706C
:1022700080BB81B3836F81BB08954F925F926F9251
:102280007F928F929F92AF92BF92CF92DF92EF9206
:10229000FF920F931F93CF93DF931F92CDB7DEB7BB
:1022A0008091090190910A01892B91F08091770327
:1022B0008F5F8093770381110BC00E94401090E0E4
:1022C00090930A0180930901892B11F40E94B710A1
:1022D00038E8E32E33E0F32E4FE8C42E43E0D42E4B
:1022E0005701912C10E007E0090D892D0E94F20C96
:1022F000802F0E94F20C892D0E94460DD5019C91E1
:10230000981721F08C938824839401C0812C802F0E
:102310000E94460DF6019081981719F0808381E0A4
:1023200001C080E08829182B0E9427119394FFEFA9
:10233000AF1ABF0A2FEFC21AD20A37E09312D3CFD7
:102340000E945E216AEF70E00E94B72FBC01482F07
:10235000809172038823D9F110927203E0917E0379
:10236000F0917F03DF011E9690E08BEF2AEFA22E03
:10237000B12C20812B3F99F0C22ED12C421720F096
:102380009B012C193D0905C095012C193D09260F0B
:10239000371F2E31310514F0808301C091E0319652
:1023A000EA17FB0731F790937203111102C09111E4
:1023B00010C01092710360917E0370917F03909121
:1023C0007203EBE9F3E080E03EE03E0F32C0111112
:1023D000F0CF809171038111ECCF60917303709104
:1023E000740380917503909176030E94E8172FB7CC
:1023F000F8948090790390907A03A0907B03B0903A
:102400007C032FBF8092730390927403A092750394
:10241000B09276034090FB055090FC056090FD055E
:102420007090FE05AFEF4A165A066A067A06D1F496
:102430003AC0D7012D917D015081521749F0DB013F
:102440005C915B3F21F44C93208391E001C081E0DB
:102450006F5F7F4F31963E13ECCF90937203809362
:102460007103BBCFAB01BC01662777276A017B01F3
:10247000C094D094E094F094C414D504E604F70416
:1024800020F48FEF9FEFDC0106C0DB01CA01840D51
:10249000951DA61DB71D8093FB059093FC05A09389
:1024A000FD05B093FE05F090BA03F11009C09091BC
:1024B000FF05892F837021F0792E7694769401C0E0
:1024C000712C809106018130A1F038F0823009F43E
:1024D00054C1833009F45EC16EC11092160180921E
:1024E000F7059092F805A092F905B092FA0581E0FF
:1024F0004EC180910801781210C08091FF05837051
:1025000090E02091070130E051E040E0821793070E
:1025100009F450E0252F342F02C021E030E0822F53
:10252000817080931801872D90E08531910508F026
:1025300012C1FC01E059FF4F0C94DF2F909116015E
:10254000232B09F408C1E92EEE0CEE0CE90E05E090
:102550000E0D013308F000E3E01608F0BDC020E0E6
:1025600040E060E08E2D90E00E94EB1EE394F4CFFB
:1025700090911601C92ECC0CCC0CC90E05E00C0DA7
:10258000013308F000E3609100067091010680912C
:1025900002060E94C61FE62ED82EC01608F09CC068
:1025A000EC2DF0E0DF01A35CBC4F8C919091170102
:1025B000982341F02D2D4E2D672FCF0179830E9456
:1025C000EB1E7981C394E9CF80911601A82EAA0C45
:1025D000AA0CA80E35E03A0D313308F030E3E09054
:1025E0000106B09002062091030600E4029F012D2F
:1025F0001124A31628F5CA2CD12CF601E35CFC4F5C
:102600008081909117019823C9F0F601EE0FFF1F0A
:10261000E252FD4F908192959F7060910006099F54
:10262000600D11247E2D8B2D39830E94C61F462FED
:10263000282F672FC6010E94EB1E3981A394D9CFA2
:1026400081E0303308F488C086C080911601C82E1E
:10265000CC0CCC0CC80E05E00C0D013308F000E3E7
:10266000E090000670910106D0900206809103066A
:10267000682F6695669566958091F7059091F805A7
:1026800079830E94BB1F0E94391F8058982F97FDA5
:102690009195990F292F3D2D239F212D11246E2DCA
:1026A0007981822F0E94C61FE62ED82EC016A0F474
:1026B000EC2DF0E0DF01A35CBC4F8C9190911701F1
:1026C000982341F02D2D4E2D672FCF0179830E9445
:1026D000EB1E7981C394EACF81E00033E8F13BC07F
:1026E00087E49BE102C08BE19BE10E94A82734C0F4
:1026F00080E29CE11DC081E09CE11AC086EE9BE176
:102700001CC08BEC9BE119C089E19BE1EECF80E11D
:102710009BE1EBCF87E09BE1E8CF8CEE9AE1E5CF40
:102720008DED9AE10AC08CE89FE102C08AEB9BE143
:102730000E944C2711C086EA9BE10E94D0260CC063
:102740008FEA9AE105C08DE79AE102C08FE39AE132
:102750000E946F2601C080E0909116019F5F9093C8
:102760001601811128C082E0809306018091180132
:10277000811121C0772051F01EC070920801809114
:10278000FF058370809307010E94701C83E0809393
:10279000060111C06091F7057091F8058091F90567
:1027A0009091FA050E94E8176A317105810591053B
:1027B00010F010920601F11084C08091BA038111CB
:1027C00080C08091840383FD7CC06091BC057091C2
:1027D000BD058091BE059091BF050E948622823082
:1027E00009F067C082E5E82E84E0F82E612C712C98
:1027F000F70164913196749131968491611107C00B
:10280000711105C0811103C020E040E043C00E9467
:10281000C61FC62E072FD82E90910206692F70E092
:1028200080E090E00E94BC2E20E030E04FE753E4CF
:102830000E941B2E4B015C016D2D70E080E090E04A
:102840000E94BE2E9B01AC01C501B4010E944A2F1B
:102850000E948D2ED62E6C2D70E080E090E00E94BC
:10286000BE2E9B01AC01C501B4010E944A2F0E94FB
:102870008D2EC62E602F70E080E090E00E94BE2E6C
:102880009B01AC01C501B4010E944A2F0E948D2E0C
:102890002D2D4C2DC3010E94EB1EFFEF6F1A7F0AF6
:1028A00023E0E20EF11C30E36316710409F0A0CFBF
:1028B00008C080911701811104C040E060E00E94CF
:1028C000E91E812F0F90DF91CF911F910F91FF9003
:1028D000EF90DF90CF90BF90AF909F908F907F90C0
:1028E0006F905F904F900895E8EDF0E080818E7FCB
:1028F00080831092E2001092DA001092E100A0EEC4
:10290000B0E08C9181608C9380818F77808319BC3B
:10291000A7EDB0E08C918E7F8C9380818F7E808339
:102920001092B903089508958091CA050895CF9330
:10293000DF9300D01F92CDB7DEB79C0190917D034D
:10294000911105C08091ED05843049F504C09230A5
:1029500011F0943021F584E089833B832A8382E05F
:102960008093E9008FEF9091E800815095FD06C0BB
:1029700095ED9A95F1F700008111F5CF8091E8006F
:1029800085FF0DC040E050E063E070E0CE010196AD
:102990000E94FD278091E8008E778093E8000F90D9
:1029A0000F900F90DF91CF910895CF93DF9300D0D8
:1029B0001F92CDB7DEB72091ED05243031F523E02D
:1029C0002983805891099B838A8382E08093E90060
:1029D0008FEF9091E800815095FD06C095ED9A9596
:1029E000F1F700008111F5CF8091E80085FF0DC05F
:1029F00040E050E063E070E0CE0101960E94FD27C8
:102A00008091E8008E778093E8000F900F900F90F0
:102A1000DF91CF910895CF93DF9320917D03211112
:102A200003C02091ED0502C0223011F02430E1F501
:102A300020911501222339F02091960327FF03C02E
:102A400060E222E002C068E021E02093E9002FEF7D
:102A50003091E800215035FD06C035ED3A95F1F78B
:102A600000002111F5CF2091E80025FF1DC0EC01E9
:102A700080911501811105C040E050E068E070E0F0
:102A800003C070E040E050E0CE010E94FD2780913D
:102A9000E8008E778093E80080E2FE01ABECB5E0C1
:102AA00001900D928A95E1F7DF91CF9108951F92E1
:102AB0000F920FB60F9211242F933F934F935F9372
:102AC0006F937F938F939F93AF93BF93CF93DF9336
:102AD000EF93FF93C091E900CF708091EC00D82F65
:102AE000D17080FDD0E81092E9008091F000877FDE
:102AF0008093F00078940E9434281092E90080912D
:102B0000F00088608093F000CD2BCF70C093E90077
:102B1000FF91EF91DF91CF91BF91AF919F918F91F5
:102B20007F916F915F914F913F912F910F900FBEC9
:102B30000F901F9018952091E4003091E50095E6E4
:102B40004091EC00842F817040FF22C08091E8000A
:102B500080FD1CC08091ED05882391F0853091F0B7
:102B60008091EB0085FD10C04091E4005091E5009C
:102B70004217530729F39A01915011F784E0089501
:102B800082E0089583E0089581E0089580E008954B
:102B90004091E80042FFDECF08958091EF0587FF66
:102BA00011C08091E80082FD05C08091ED05811182
:102BB000F8CF11C08091E8008B770BC08091ED05B4
:102BC000882349F08091E80080FFF8CF8091E800E9
:102BD0008E778093E8000895982F973058F590935A
:102BE000E900981739F07091EC002091ED005091B8
:102BF000F00003C0242F762F50E021FF19C0309140
:102C0000EB003E7F3093EB003091ED003D7F309341
:102C1000ED003091EB0031603093EB007093EC00ED
:102C20002093ED005093F0002091EE0027FF07C0A5
:102C30009F5FD3CF8F708093E90081E0089580E09B
:102C40000895CF92DF92EF92FF920F931F93CF934D
:102C5000DF93C8EDD0E088818F7E8883E7EDF0E0D8
:102C600080818160808384E082BF81E08093B903AA
:102C700088818E7F888302EE10E0F8011082109226
:102C8000DA0081EEC82ED12CF601108288818F7770
:102C9000888388818068888388818F7D888319BC38
:102CA0001092ED051092EE051092EC051092EB05D6
:102CB00090EEE92EF12CF70180818B7F8083888153
:102CC0008160888342E060E080E00E94EC15F601BC
:102CD00080818E7F8083F801808181608083808104
:102CE00088608083F70180818E7F80838881806106
:102CF0008883DF91CF911F910F91FF90EF90DF902C
:102D0000CF9008951F920F920FB60F9211242F9318
:102D10003F934F935F936F937F938F939F93AF9363
:102D2000BF93EF93FF938091E10082FF09C08091F0
:102D3000E20082FF05C08091E1008B7F8093E1007B
:102D40008091DA0080FF2AC08091D80080FF26C0E1
:102D50008091DA008E7F8093DA008091D90080FF25
:102D600018C080E189BD82E189BD09B400FEFDCFB4
:102D700081E08093ED058091B90381110FC00E941D
:102D800074140E9421168091E20084608093E20016
:102D900005C019BC1092ED051092B9038091E100B5
:102DA00080FF17C08091E20080FF13C08091E20095
:102DB0008E7F8093E2008091E20080618093E20048
:102DC0008091D80080628093D80019BC85E0809300
:102DD000ED058091E10084FF36C08091E20084FF20
:102DE00032C080E189BD82E189BD09B400FEFDCF1A
:102DF0008091D8008F7D8093D8008091E1008F7EF4
:102E00008093E1008091E2008F7E8093E2008091C8
:102E1000E20081608093E2008091EE05882311F04A
:102E200084E007C08091E30087FD02C081E001C01B
:102E300083E08093ED051092C8050E943E2B0E940E
:102E4000D01E1092BA038091E10083FF27C08091C9
:102E5000E20083FF23C08091E100877F8093E1003F
:102E600082E08093ED051092EE058091E1008E7F67
:102E70008093E1008091E2008E7F8093E200809158
:102E8000E20080618093E20042E060E080E00E9426
:102E9000EC158091F00088608093F000FF91EF9135
:102EA000BF91AF919F918F917F916F915F914F9162
:102EB0003F912F910F900FBE0F901F90189520916A
:102EC000F5053091F6052617370748F061157105AD
:102ED00039F42091E8002E772093E80001C0B90171
:102EE00040E061157105A9F12091ED05222309F457
:102EF00043C0253009F442C02091E80023FD40C0C2
:102F00002091E80022FD32C02091E80020FFE9CFA7
:102F10004091F3002091F20030E0342BFC01CF010E
:102F20006115710559F02830310540F48191809385
:102F3000F100615071092F5F3F4FF1CF41E0283020
:102F4000310509F040E02091E8002E772093E80059
:102F5000C8CF4111C9CF0AC08091ED05882361F027
:102F6000853061F08091E80083FD0AC08091E8001F
:102F700082FFF2CF80E0089582E0089583E0089513
:102F800081E0089578941F920F920FB60F9211244A
:102F90008F939F93AF93BF938091790390917A031E
:102FA000A0917B03B0917C030196A11DB11D80937C
:102FB000790390937A03A0937B03B0937C03BF9132
:102FC000AF919F918F910F900FBE0F901F9018950A
:102FD000CF92DF92EF92FF920F931F932FB7F89447
:102FE000C0907903D0907A03E0907B03F0907C034B
:102FF0002FBF97018601061B170B280B390BC6162E
:10300000D706E806F90618F0C901B80106C0C901DB
:10301000B80161507109810991091F910F91FF90C9
:10302000EF90DF90CF900895CF93DF93CDB7DEB7C9
:103030002A970FB6F894DEBF0FBECDBF84B7877F47
:1030400084BF0FB6F894A895809160008861809342
:103050006000109260000FBE80E8809361001092C3
:10306000610085B7806885BF85B7806885BF0E948D
:1030700074140E9421168091E20084608093E20023
:1030800078948091ED058823A1F01091E9001F70DC
:103090009091EC00892F817090FD80E8182B1092A0
:1030A000E9008091E80083FD0E9434281F7010938E
:1030B000E90082E084BD93E095BD9AEF97BD8093CF
:1030C0006E000E94401090E090930A0180930901E5
:1030D0000E9427110E943611A8E8B3E0EBE9F3E063
:1030E0006EE0F62EFE0E11921D92FE12FCCF8EE0C7
:1030F00090E00E94E52F80937E0390937F03FC0174
:103100000E962BEF2193E817F907E1F70E940722AB
:10311000811102C00E9412220E940B1D0E940722F0
:10312000811104C00E9412220E942D1F45E050E030
:103130006CE170E08FEF95E00E94C32D8091FF0558
:103140008C7F11F40E942D1F8CE090E00E94D32D03
:1031500090E0A0E0B0E08093800390938103A0937F
:103160008203B093830389EA8093800089E080938F
:10317000810024982C983F988AB18F7C8AB96E98E8
:10318000479A8BB180638BB9769A8FE090E00E946A
:10319000DB2D609384037093850380938603909363
:1031A000870367708FEF869FB0011124759567952F
:1031B0007595679577277093890060938800709361
:1031C0008B0060938A0070938D0060938C009091C7
:1031D000840394FF03C08093170102C0109217016B
:1031E0000E94B7100E940722811102C00E94122281
:1031F00082E090E00E94D32D8093AA030E94F621E2
:10320000909397038093960383E090E00E94D32DE0
:10321000682F70E080E090E00E9436240E94DC1E5F
:103220000E94DC1E0E94ED1E8BE091E090939903BA
:103230008093980399249A94CC24C394D12CEE249F
:10324000E39490E1592E22E1422E38E1A32EB12CD5
:1032500040E4842E8091ED05853009F052C040E0B5
:1032600060E080E00E94E91EE092BA038091ED05E3
:10327000843041F110929A030FB6F894A895A09269
:1032800060000FBE8092600040E060E080E00E943D
:10329000E91EE092BA0383B7817F846083BF83B75E
:1032A000816083BF7894889583B78E7F83BF0FB684
:1032B000F894A895809160008861809360001092D6
:1032C00060000FBE8091EC05882309F4C3CF0E94F3
:1032D000401090E090930A01809309010E94271109
:1032E0000E943611EBE9F3E01192FE12FDCF0E942D
:1032F0003D11EBE9F3E08191811167C0FE12FBCF34
:10330000A9CF0E943D11EBEAF3E0ABE9B3E000E0A6
:1033100010E0702F6D9121912627B1F180E090E0AF
:1033200030E0782EA901082E02C0559547950A94E1
:10333000E2F740FF25C089837A83C60102C0880F67
:10334000991F7A94E2F73C01862F90E0862197211D
:1033500021E0892B09F420E02B830E945E2181600B
:10336000782F9D838C8349815A816B818D810E9446
:10337000CE1DF801E555FC4F80816826608219C09A
:1033800001968630910569F60F5F1F4F0E301105CB
:1033900009F0BFCF9E829F8218860E945E218160C5
:1033A000782F9A8789874E815F8168858A850E94F8
:1033B000CE1D1091A9030E94D01E181709F44ACF00
:1033C0000E94D01E8093A90345CF59BC49BC09B4C3
:1033D00000FEFDCF8091D8008F7D8093D800809132
:1033E000E00082608093E0008091E00081FDFCCFEE
:1033F00031CF8033910540F5880F991F880F991FB1
:10340000FC01EF5DFE4F52813381808183707181B9
:10341000A82FB0E0E0E98E9FC00111248F529C4F8D
:10342000FC01E70FF11DB4976083FC01E50FF11D6E
:10343000B4974083830F911DFC01B4972083FD0155
:10344000E153FC4F81E080830895FF920F931F9317
:10345000CF93DF93182F062FF42EC0E0D0E02F2D4E
:10346000402F612FCE010E94F9192196C033D1055A
:10347000B1F7DF91CF911F910F91FF9008950F93B6
:103480001F9310E0F801EE0FFF1FE352FD4F9081F4
:10349000905797FD9195000F111FF801E252FD4FD3
:1034A000E081F0E0B097DF01AA0FBB1F8D010E0F86
:1034B0001F1F2003D001219FB00D1124E8E3F0E08D
:1034C000E91BF10997FDF3959F01220F331F890135
:1034D0000E0F1F1F40039001419F300D11242A0F32
:1034E0003B1F37FF02C021583F4F220F232F221FBF
:1034F000330B620F1F910F9108950F931F93522F5B
:1035000010E0F801EE0FFF1FE252FD4FE081F0E006
:10351000B097EE0FFF1F9F015203D001539FB00DD4
:103520001124000F111FF801E352FD4F008110E03C
:1035300000571109000F111F40039001419F300DEA
:1035400011242A0F3B1F37FF02C021583F4F220F83
:10355000232F221F330B620F1F910F9108950F939A
:103560001F93522F10E0F801EE0FFF1FE252FD4FA4
:10357000E081F0E0B0979F015203D001539FB00D5E
:103580001124000F111FF801E352FD4F008110E0DC
:103590000057110940039001419F300D11242A0F5B
:1035A0003B1F37FF02C021583F4F220F232F221FFE
:1035B000330B620F1F910F910895EF920F931F939A
:1035C00093E0099F80011124159507956E2D600FDA
:1035D0001F910F91EF90089550E0FA01EE0FFF1F39
:1035E000E252FD4F9081905297FD9195440F551FE7
:1035F000FA01E352FD4F408150E0FA01E21BF1096C
:103600009F01290F311D97FD3A95620F0895E42F10
:10361000F0E0EE0FFF1FE252FD4F6081621B089544
:10362000E42FF0E0EE0FFF1FE352FD4F6081621BBD
:103630000895622F0895E42FF0E0EE0FFF1FE3528C
:10364000FD4F408134EE439F412D1124E82FF0E0DF
:1036500050E0445E5F4FDA01A21BB1099D01B7FF44
:1036600003C031952195310993E0220F331F9A95BC
:10367000E1F7AF01421B530B9A0157FF02C020E054
:1036800030E0582F259F212D1124822F0895E42FFB
:10369000F0E0EE0FFF1FE352FD4F408134EE439FF9
:1036A000412D1124E72FF0E050E0445E5F4FDA0136
:1036B000A21BB1099D01B7FF03C0319521953109C6
:1036C00093E0220F331F9A95E1F7AF01421B530B92
:1036D0009A0157FF02C020E030E0279F212D1124DE
:1036E000722F0895FC01CB01309721F477FF2CC095
:1036F00080E808959F01F7FF04C0222733272E1B7F
:103700003F0BBC01621B730B280F391F97FD0DC0C7
:10371000CB0145E0880F991F4A95E1F7B9010E9456
:10372000CB2F80E2861B682F09C0C90125E0880FD6
:10373000991F2A95E1F70E94CB2F605A862FF7FF39
:1037400002C081950895089580E00895EF920F9347
:10375000CF93DF93D72FC82FC9010E19BA010E944A
:10376000721B602F681B7D2F8C2FDF91CF910F91E3
:10377000EF9008950F93CF93DF93D72FC82FC901F0
:10378000BA010E94721B682F600F7D2F8C2FDF9172
:10379000CF910F910895EF920F931F93CF93DF93E3
:1037A000D62FC72F182FC9010E19010FBA010E9479
:1037B000721B081B019F012D11246D2F7C2F802F60
:1037C000DF91CF911F910F91EF900895EF920F939A
:1037D0001F93CF93DF93D62F172FC82FC9010E1930
:1037E000070FBA010E94721B081B702F719F712D69
:1037F00011246D2F8C2FDF91CF911F910F91EF909E
:103800000895FF920F931F93CF93DF93F62ED72F38
:10381000182FC901C12FC01BBA010E94721B982F1B
:10382000880F980F2C2F291B219F212D11246F2DDC
:103830007D2F822FDF91CF911F910F91FF900895DF
:10384000FF920F931F93CF93DF93F62E172FD82F4E
:10385000C901C72FC01BBA010E94721B982F880F85
:10386000980FC91B7C2F719F712D11246F2D8D2FE7
:10387000DF91CF911F910F91FF900895EF92FF92EA
:103880001F93CF93DF937B01182F110FC0E0D0E07F
:103890008C2F8C5D8093BB0320E030E0F901EC0FAE
:1038A000FD1FEE0DFF1D8081F901E554FC4F818362
:1038B0002F5F3F4F2031310589F724E630E041E1A9
:1038C00050E06BEB73E0812F0E94982D6096C03919
:1038D000D105F1F6DF91CF911F91FF90EF90089500
:1038E0008091CF03882329F061ED73E084E70E9483
:1038F0003E1C1092CF038091D003882329F061E60B
:1039000074E087E70E943E1C1092D0030895EBEB11
:10391000F3E06083418324E630E042E050E0BF0101
:10392000880F0C94982DFF920F931F93CF93DF93E2
:10393000E62FF0E0EB5EFA4F90819923B1F0F82E7C
:1039400082E1689FE001112400E010E0F801EC0F33
:10395000FD1FEF50FB4F4081602F8F2D0E94871C71
:103960000F5F1F4F0231110589F7DF91CF911F9132
:103970000F91FF900895CF93DF93C82F4BE06DEF29
:103980000E94871C40E06AE08C2F0E94871C8FE316
:103990009CE90197F1F700C0000040E060E08C2F47
:1039A0000E94871C40E061E08C2F0E94871C40E051
:1039B00066E08C2F0E94871C40E06DEF8C2F0E94E8
:1039C000871CD0E040E06D2F8C2F0E94871CDF5FAA
:1039D000D231C1F740E06D2F8C2F0E94871CDF5F32
:1039E000D432C1F740E06D2F8C2F0E94871CDF5F1F
:1039F000D43BC1F74BE06DEF8C2F0E94871C41E058
:103A00006AE08C2F0E94871C40E06DEF8C2FDF91C5
:103A1000CF910C94871C6F927F928F929F92AF925E
:103A2000BF92CF92DF92EF92FF920F931F93CF93AB
:103A3000DF930E94E62C84E70E94BB1C87E70E946C
:103A4000BB1CE4E2EE2EE1E0FE2EC12CD12CF2E113
:103A50007F2EA8E08A2E912CAA24A394B12C662450
:103A60006394F7013297608170E0CB0184973196BF
:103A7000C081D0E0A497D701EC91F0E0B497D601D3
:103A8000AA0FBB1FAA0FBB1FAF5DBE4F2C912370A7
:103A900030E0AC0197FF02C0495F5F4F63E055958E
:103AA00047956A95E1F7729E8001739E100D11246F
:103AB000040F111D0F501B4FB4010E94CB2FA50105
:103AC00002C0440F551F8A95E2F7CA01D8019C91A4
:103AD000892B8C93CE01D7FD079653E0959587955A
:103AE0005A95E1F7729E8001739E100D1124080F04
:103AF000111D0F501B4FCE01B4010E94CB2FA50109
:103B000002C0440F551F8A95E2F7CA01D8019C9163
:103B1000892B8C93CF01F7FD079643E09595879508
:103B20004A95E1F7729EE001739ED00D1124C80FF3
:103B3000D11DCF50DB4FCF01B4010E94CB2FA50187
:103B400002C0440F551F8A95E2F7CA019881892B5C
:103B50008883F901EB5EFA4F60825FEFC51AD50AE0
:103B600084E0E80EF11CA0E3CA16D10409F079CF75
:103B700060E084E70E94931C61E087E7DF91CF91CA
:103B80001F910F91FF90EF90DF90CF90BF90AF907B
:103B90009F908F907F906F900C94931CEF92FF9268
:103BA0000F931F93CF93DF93CDB7DEB767970FB611
:103BB000F894DEBF0FBECDBF4B8B5C8B6D8B7E8BC5
:103BC0008F8B0E891F8901151105C1F15F3F11F41B
:103BD0004F3FA1F1E42EF12CA1E0B0E0042E01C092
:103BE000AA0F0A94EAF7852F90E0662319F0209136
:103BF0004C0506C09C01235E3A4FF90120812A231F
:103C00002223A9F046E0489F9001499F300D1124DE
:103C1000F701E20FF31FEE0FFF1FEF51FE4F408140
:103C20005181FC01E35EFA4F9081A92B06C0FC0193
:103C3000E35EFA4FA0958081A823A08386E0FE0171
:103C40003D96DF01982F1D929A95E9F74D875E8783
:103C50006F87198B088BDE01179601900D928A955C
:103C6000E1F7CE0107960E94A524811137C086E0B6
:103C7000FE013796DE01119601900D928A95E1F7CB
:103C8000FF81E8856A857B856115710539F1EF3F14
:103C900011F4FF3F19F12091530530E0C90101965D
:103CA000877099274091840550E08417950779F132
:103CB000F983EA837D836C8396E0929FD001939F82
:103CC000B00D1124AC5ABA4FFE01319601900D92FD
:103CD0009A95E1F7809353050E94402416E0809165
:103CE000840590915305891711F1189FC001112483
:103CF0008C5A9A4F0E94A5248823C9F0809184058C
:103D000090E001968770992780938405E8CF109200
:103D1000C8050E943E2B1092530510928405EDE4D5
:103D2000F5E086E0DF011D928A95E9F7D7CF679627
:103D30000FB6F894DEBF0FBECDBFDF91CF911F91BC
:103D40000F91FF90EF90089520911B0530911C0575
:103D50008217930771F090931C0580931B05E091E7
:103D60009803F0919903309721F00084F185E02DBC
:103D7000099408952091190530911A058217930727
:103D800071F090931A0580931905E0919803F091D2
:103D90009903309721F00680F781E02D099408956A
:103DA000E0919803F0919903309721F00190F08110
:103DB000E02D099480E008958091FF05837011F44F
:103DC000109206018091FF058C7F81608093FF0532
:103DD00008950C94251A0C94F91945E050E06CE113
:103DE00070E08FEF95E00C94E72DEFEFF5E0880F92
:103DF000880F90819370892B8083109206010C9418
:103E0000ED1E9091FF05892F86958695815C8F73B5
:103E10009370882321F0880F880F892B02C0892F87
:103E200080658093FF05109206010C94ED1E909121
:103E3000FF05892F869586958F5F8F7393708531E7
:103E400020F4880F880F892B02C0892F846080930B
:103E5000FF05109206010C94ED1EEFEFF5E08DE2E8
:103E6000808311828FEF828383838FE784830C9416
:103E7000ED1E482F982F46FD9095E92FEF739F7008
:103E800046FD9F5FE295EF70EE0FF0E0E75EFE4FBC
:103E90002181299F802D212D112482958F702295BB
:103EA000207F822B3081982F930F892F47FD81959A
:103EB00080580895BC018230910508F40895613E50
:103EC0008EE1780748F49B0195E0369527959A9501
:103ED000E1F748E0420F01C04FEF91E0242F30E0BE
:103EE000290F311D35952795229FF001239FF00D55
:103EF000F00D11246E177F0718F44FEF420F05C025
:103F00002F3F310539F091E0920F491738F78FEFC5
:103F1000890F08958FEF08950F931F93CF93DF9329
:103F20001F92CDB7DEB7182F47FD4195E8E3F0E0CB
:103F3000CF01841B910947FD9395889FF001899FCC
:103F4000F00DF00D1124229FC001239F900D900DC4
:103F500011248E0F9F1F79830E945A1F982F880F5C
:103F6000980F692F600F7981812F0F90DF91CF918A
:103F70001F910F91089520E030E0A901869F412D07
:103F8000969F400D511D1124CA010895CF92DF92D2
:103F9000EF92FF920F931F93CF93DF937B01282F14
:103FA000382FE82FF0E0F11006C0EE51FB4F64917E
:103FB000762F862F7BC00F2D10E046E0649FC00156
:103FC0001124CFEFD0E0BE010E94B72FAB016BEA06
:103FD0006403C001659F900D11248E0D911D8E0DFF
:103FE000911D982F990F890FBE01601B710B6E9F59
:103FF000D0016F9FB00D7E9FB00D11249B2F8F9D20
:10400000B0011124672F77277E01E61AF70AEE9E8A
:10401000B001EF9E700DFE9E700D11246E01C81A46
:10402000D108C09E7001C19EF00CD09EF00C1124EE
:104030000F2D1127C01BD10BCE9F8001CF9F100DDC
:10404000DE9F100D1124812F4230510591F04CF468
:1040500041155105E1F041305105B9F4822F272F68
:1040600016C04430510569F044F04630510579F0EE
:104070000CC0822F2B2F912F0AC02B2F932F872F0D
:1040800006C08B2F922F212F02C08B2F972FE22F4C
:10409000F0E0EE51FB4F7491E82FF0E0EE51FB4F52
:1040A0006491E92FF0E0EE51FB4F8491DF91CF91C5
:1040B0001F910F91FF90EF90DF90CF900895609146
:1040C00080038CE090E00C94F72D9091960392FF82
:1040D0000DC0282F2871283019F4877F846006C00E
:1040E000282F2471243011F48B7F886093FF0DC03A
:1040F000282F2871283119F4877E846106C0282F63
:104100002471243111F48B7E88612091970320FF64
:104110000DC0382F3871383019F4877F816006C0A0
:10412000382F3171313011F48E7F886021FF0DC03E
:10413000282F2871283119F4877E816106C0282F25
:104140002171213111F48E7E886194FD877E08955E
:104150006F927F928F929F92AF92BF92CF92DF9297
:10416000EF92FF920F931F93CF93DF931F92CDB7E0
:10417000DEB7742E622EFC018281882331F16093B8
:104180006F0369830E945E21909318058093170541
:10419000698180E2860F883008F080C0677081E016
:1041A00001C0880F6A95EAF70F90DF91CF911F91B8
:1041B0000F91FF90EF90DF90CF90BF90AF909F90C6
:1041C0008F907F906F900C945C2B90916F0396135F
:1041D0004AC040911705509118058FB7F894009187
:1041E000790310917A0320917B0330917C038FBF78
:1041F00048015901AA24BB246A01E12CF12C041BBB
:10420000150B8C149D04AE04BF0410F40150110969
:10421000083C110540F510E2170D9715B9F080E242
:10422000890F883040F4977081E001C0880F9A951B
:10423000EAF70E94512B183048F481E0972D9770CF
:1042400001C0880F9A95EAF70E945C2B862D0E9488
:10425000D32C183018F5972D977081E001C0880F86
:104260009A95EAF70AC080E2860F8830B8F4677042
:1042700081E001C0880F6A95EAF70F90DF91CF9136
:104280001F910F91FF90EF90DF90CF90BF90AF9074
:104290009F908F907F906F900C94512B0F90DF9197
:1042A000CF911F910F91FF90EF90DF90CF90BF9033
:1042B000AF909F908F907F906F9008952FB7F89454
:1042C0008091790390917A03A0917B03B0917C0354
:1042D0002FBF08951F920F920FB60F9211248F9344
:1042E0009F93AF93BF9380919A03811113C08091E4
:1042F000790390917A03A0917B03B0917C0341965E
:10430000A11DB11D8093790390937A03A0937B0341
:10431000B0937C03BF91AF919F918F910F900FBE8F
:104320000F901F90189520911501222321F02091C4
:10433000960327FD04C0FC013296089619C0262F6B
:104340002695269526952E31C0F4FC01E20FF11D2D
:10435000677081E090E001C0880F6A95EAF7809568
:1043600092818923828308953196E817F90729F00D
:1043700020812613F9CF1082F7CF089520911501DF
:10438000222321F02091960327FD05C0FC013296DF
:104390002FEF30E019C0262F2695269526952E3131
:1043A00020F5FC01E20FF11D677081E090E001C093
:1043B000880F6A95EAF79281892B828308952F3FAF
:1043C00039F03F5F363041F041914613F8CF0DC0D0
:1043D0004111F7CF232FF5CF2F3F39F0FC01E20F2A
:1043E000F11D27FDFA95628308950895CF9384E027
:1043F00090E00E94D32DC82F81E290E00E94D32D3F
:104400002C2F30E0A901582BCA01CF91089580E0EC
:1044100090E00E94E12D21E08F3E9E4F09F020E0C8
:10442000822F08956FEE7EEF80E090E00E94152EBF
:1044300060E082E090E00E94F72D60E083E090E091
:104440000E94F72D1092C4051092C5051092C60562
:104450001092C70560E084E090E00E94F72D60E0D4
:1044600081E290E00E94F72D60E085E090E00E94FC
:10447000F72D60E086E090E00E94F72D6FEF87E077
:1044800090E00E94F72D40E050E0BA0188E090E013
:104490000E94092E60E08DE090E00E94F72D40E040
:1044A00050E0BA0188E190E00E94092E60E087E1C7
:1044B00090E00E94F72D40E050E0BA018CE190E0DE
:1044C0000E94092E60E080E290E00E94F72D109299
:1044D000840310928503109286031092870384E070
:1044E000806180938403409184035091850360919F
:1044F0008603709187038FE090E00E94092E40E0D0
:1045000050E0BA0183E190E00C94092ECF92DF9243
:10451000EF92FF926C01EE24FF24C114D104E10458
:10452000F10421F0C701B60120E101C020E0C72E4F
:10453000D82EE92EFF24C114D104E104F10419F0AE
:10454000285FC701B6016B017C0154E0F694E79443
:10455000D794C7945A95D1F7C114D104E104F1045A
:1045600019F02C5FC701B6016B017C0142E0F694A3
:10457000E794D794C7944A95D1F7C114D104E104C4
:10458000F10419F02E5FC701B601DC01CB01B6952D
:10459000A79597958795892B8A2B8B2B09F02F5FF1
:1045A000822FFF90EF90DF90CF9008958091C30508
:1045B00081111092C30508959091C2058091C8059C
:1045C000892B2091C105982F922B90932B058091D8
:1045D000C3058823D9F0892B80932B058091150181
:1045E000882331F08091960387FF02C08EE101C0DD
:1045F00086E0EDE2F5E090E0815028F02191222361
:10460000D9F39F5FF9CF91110E94D622E0919803D0
:10461000F09199033097A9F080911501882359F002
:104620008091960387FF07C080912B0580932C050E
:1046300085E080932B050280F381E02D8BE295E0ED
:1046400009940895BF92CF92DF92EF92FF920F9359
:104650001F93CF93DF938C01C090C405D090C50504
:10466000E090C605F090C7058091BC059091BD050E
:10467000A091BE05B091BF05C82AD92AEA2AFB2A13
:10468000CFE1D0E0D701C6010C2E04C0B695A795A6
:10469000979587950A94D2F780FF07C0BC2EB80182
:1046A0008C2F0E94950D019719F4219758F7B12C82
:1046B0008B2DDF91CF911F910F91FF90EF90DF90A5
:1046C000CF90BF900895CF93DF93EC010E942223F7
:1046D000BE010E94950DDF91CF910895292F220FE1
:1046E000920F990F890F682F669566956695982F9A
:1046F000977085E0689FB001112440E050E080E0B1
:10470000FA01E60FF71FEB57FA4F208130E0092E30
:1047100002C0369527950A94E2F721703327042EBC
:1047200001C0220F0A94EAF7822B4F5F5F4F45309A
:10473000510531F70895292F220F920F990F890FF4
:10474000A82FA695A695A695877051E001C0550F94
:104750008A95EAF785E0A89FD001112420E030E097
:1047600070E0F901EA0FFB1FEB57FA4F4081CB01D4
:10477000022E02C0969587950A94E2F781709927D8
:10478000819584278523842780832F5F3F4F2530A1
:10479000310539F708950E940E106093BC0570939F
:1047A000BD058093BE059093BF050C94302B0F93ED
:1047B0001F9341E050E060E070E004C0440F551FDB
:1047C000661F771F8A95D2F7409550956095709532
:1047D0008091BC059091BD05A091BE05B091BF052B
:1047E0008A019B01082319232A233B23C901B8010D
:1047F0001F910F910C94CB232091C00580958223AB
:104800008093C005982F977079F430E0482F082ED8
:10481000000C550B2417350739F08595859585953E
:104820000E94D7231092C00508950F931F9341E073
:1048300050E060E070E004C0440F551F661F771F12
:104840008A95D2F78091BC059091BD05A091BE05D7
:10485000B091BF058A019B01082B192B2A2B3B2BFA
:10486000C901B8011F910F910C94CB236093C4052B
:104870007093C5058093C6059093C7050C94302BA3
:104880008091840590915305891719F08F5F877087
:10489000FBCF08958091520582958F7009F054C026
:1048A00080914F05882309F44FC080918405A09121
:1048B000530560914D0570914E0540915005509102
:1048C0005105B6E08A1709F43FC090E04115510543
:1048D000C1F17F3F11F46F3FA1F1B89FF001B99F83
:1048E000F00D1124EC5AFA4F218172132AC0208155
:1048F000621327C02281211124C02381348124170F
:10490000350710F421503109241B350B283C3105A3
:10491000C0F4209152052F7020612093520526E0AB
:10492000289FF001299FF00D1124E75AFA4F80814A
:104930008F70806180838DE495E00E94AC030C94BD
:10494000402401968770BECF0895BF92CF92DF9228
:10495000EF92FF920F931F93CF93DF93CDB7DEB704
:1049600061970FB6F894DEBF0FBECDBF8C0185E016
:10497000F801DE011D9601900D928A95E1F7D801AC
:104980003C9111962C9111971296EC9012971396D8
:10499000CD90DC90149750914D0560914E0580911B
:1049A000500590915105009709F44FC16F3F19F4DC
:1049B0005F3F09F44AC1B0904F05BB2009F4ECC039
:1049C00040915205C816D90628F0F601E81BF90BEC
:1049D000CF0104C0809590958C0D9D1DFF24F3940C
:1049E000883C910548F0F12C407F09F09FC08DE490
:1049F00095E00E94AC0321C1842F807F09F044C060
:104A0000621312C0531310C0E1100EC04F7040610A
:104A1000409352058DE495E00E94AC0380915205CD
:104A2000D80115968C932EC0CD2819F12F3F11F483
:104A30003F3FF9F0FE2CE1101CC0809184054091AD
:104A4000530556E0841709F458C090E0589FF001D0
:104A5000599FF00D1124EC5AFA4F6181261306C0BC
:104A60006081361303C06281611103C001968770B3
:104A7000E9CFFE2CEE2009F421C18091520581601E
:104A800080935205F12C1AC162130AC0531308C057
:104A9000E11006C080915205D80115968C93B0C0E4
:104AA0003D872E878D859E850E94092B8823D1F115
:104AB000EE20C1F120915205822F82958F7090E0F7
:104AC000029774F080914D0590914E0598878F83E1
:104AD0001986DB86CA862C87CE0107960E94AC0316
:104AE00086E0F801ADE4B5E001900D928A95E1F71A
:104AF0000E944A24FF24F394E1C03D872E878D85D0
:104B00009E850E946323292F22952F7030E022304A
:104B100031050CF0C7C09F7009F0C1C0805E8830BD
:104B200008F4CCC0C8010E94AC03E4CF621314C0E7
:104B3000531312C0E11010C080915205F801858313
:104B4000C8010E94AC0386E0EDE4F5E0DF011D92B0
:104B50008A95E9F7FB2CB2C03D872E878D859E850F
:104B60000E94092B8823F1F2EE20E1F220915205F8
:104B7000822F82958F7090E002970CF4B1CF8091D4
:104B80004D0590914E059A8389831B82DD82CC82EC
:104B90002E83CE010196A2CFC816D90638F0C81AC6
:104BA000D90AB8ECCB16D10450F007C08095909587
:104BB0008C0D9D1D883C910510F0F12C3EC0FE2C03
:104BC000EE2009F4AFCF621327C0531325C0209104
:104BD000520520FD18C0822F82958F70482F50E01B
:104BE0004115510581F0F80125834F30510541F001
:104BF0008F5F982F9295907F822F8F70892B85835E
:104C0000C8010E94AC0386E0F801ADE4B5E0019074
:104C10000D928A95E1F752C03D872E878D859E853E
:104C20000E94092B81115CCF809152058160809395
:104C30005205C8010E94AC0341C0EDE4F5E086E0F6
:104C4000DF011D928A95E9F739C0EE2009F46ACF99
:104C50003D872E878D859E850E94092BF82E8823FF
:104C600009F460CF86E0F801ADE4B5E001900D9263
:104C70008A95E1F780914D0590914E050E9463233E
:104C800092959F70963041F480914C0591E0892770
:104C900080934C0590934B050E944A240FC08111CC
:104CA0003DCF0CC0243031050CF03CCF9F7009F48F
:104CB00035CFF8019581907F09F030CF8F2D619627
:104CC0000FB6F894DEBF0FBECDBFDF91CF911F911D
:104CD0000F91FF90EF90DF90CF90BF9008959F923B
:104CE000AF92BF92CF92DF92EF92FF920F931F93FA
:104CF000CF93DF936C0180911601C82FCC0FCC0F9E
:104D0000C80FD5E0DC0FD13308F0D0E36091030683
:104D1000669566958091F7059091F8050E94BB1FF6
:104D2000182F80E4810F0E94391F90E8F92EF80EA9
:104D3000812F0E94391F20E8922E980ECD1700F582
:104D4000AC2EB12CF501E35CFC4F808190911701F2
:104D50009823A1F0609100067091010680910206EF
:104D6000E12E0C2F292D4F2DF60109950E94C61F0B
:104D7000462F282F672FC5010E94EB1ECF5FDECF85
:104D800081E0D03308F080E0DF91CF911F910F9147
:104D9000FF90EF90DF90CF90BF90AF909F900895DD
:104DA0006F927F928F929F92AF92BF92CF92DF923B
:104DB000EF920F931F93CF93DF934C0180911601D5
:104DC000C82FCC0FCC0FC80FD5E0DC0FD13308F0C3
:104DD000D0E36091030666958091F7059091F80500
:104DE0000E94BB1F182FCD1708F044C06C2E712CE9
:104DF000F301E35CFC4F9081809117018923C1F19D
:104E0000F301EE0FFF1FE352FD4FC080D12C80E76E
:104E1000C81AD108F301EE0FFF1FE252FD4FA08028
:104E2000B12CE0E2AE1AB108CC9C9001CD9C300DC3
:104E3000300D1124AA9CC001AB9C900D900D112443
:104E4000820F931F0E945A1F082F609100067091D5
:104E5000010680910206E12E9501A601F401099553
:104E60000E94C61F462F282F672FC3010E94EB1EEA
:104E7000CF5FB9CF81E0D03308F080E0DF91CF91F0
:104E80001F910F91EF90DF90CF90BF90AF909F90C8
:104E90008F907F906F900895CF92DF92EF92FF9264
:104EA0000F931F93CF93DF937C0180911601C82F3E
:104EB000CC0FCC0FC80FD5E0DC0FD13308F0D0E316
:104EC0006091030666958091F7059091F8050E9420
:104ED000BB1F182FCD1778F5CC2ED12CF601E35C33
:104EE000FC4F908180911701892319F1F601EE0F93
:104EF000FF1FE252FD4F208130E020523109F601C0
:104F0000EE0FFF1FE352FD4F408150E04057510923
:104F1000609100067091010680910206012FF70151
:104F200009950E94C61F462F282F672FC6010E9491
:104F3000EB1ECF5FCFCF81E0D03308F080E0DF9170
:104F4000CF911F910F91FF90EF90DF90CF90089538
:104F5000DF92EF92FF920F931F93CF93DF937C0129
:104F600090911601C92FCC0FCC0FC90FD5E0DC0FE3
:104F7000D13308F0D0E36091030666956695809181
:104F8000F7059091F8050E94BB1FD82ECD17F0F4BD
:104F90000C2F10E0F801E35CFC4F80819091170129
:104FA000982391F0609100067091010680910206AD
:104FB0002D2D4C2FF70109950E94C61F462F282F33
:104FC000672FC8010E94EB1ECF5FE0CF81E0D03396
:104FD00008F080E0DF91CF911F910F91FF90EF904B
:104FE000DF900895CF93DF93EC0180EEFE010995E9
:104FF00081EEFE01DF91CF910994CF92DF92FF9273
:105000000F931F93CF93DF931F92CDB7DEB7F82E88
:105010008B0199830E949B15998181111CC0CF2C13
:10502000D92E01151105B1F08091E80085FD0AC067
:105030008091E8008E778093E8000E949B1588237A
:1050400081F309C0F60181916F018093F100015055
:105050001109E7CF80E00F90DF91CF911F910F9161
:10506000FF90DF90CF9008951F93CF93DF93CDB73C
:10507000DEB7AA970FB6F894DEBF0FBECDBFEFEE36
:10508000F5E088E08E0F9091F10091938E13FBCFA5
:105090008091F005833009F460C030F4813071F004
:1050A000823009F49CC0B3C08A3009F488C08B30C8
:1050B00009F46BC0893009F0AAC020C08091EF05C7
:1050C000813A09F0A4C08091E800877F8093E800CE
:1050D0008091F3059091F405892B21F460E28BEC2B
:1050E00095E003C060E080E090E070E00E945F1710
:1050F0008091E8008B778093E80089C08091EF056C
:10510000813209F084C08091F3059091F4050297F3
:1051100008F07DC08091E800877F8093E80080914F
:10512000E80082FD05C08091ED058111F8CF6FC0C8
:105130002091F3008091F20090E0922B029729F4E5
:105140008091F1008B7F813021F48091F100809378
:10515000CA058091E8008B7756C08091EF05813AAF
:1051600009F055C08091F3059091F405892B09F061
:105170004EC08091E800877F8093E8008091E8002E
:1051800080FFFCCF8091150139C08091EF058132FD
:10519000F1F58091F3059091F405892BC1F580918B
:1051A000E800877F8093E8000E94CD158091F1058B
:1051B000809315011092C8050E943E2B28C0809153
:1051C000EF05813221F58091E800877F8093E80028
:1051D0000E94CD158091F2058093C90518C0809179
:1051E000EF05813AA1F48091E800877F8093E80081
:1051F0008091E80080FFFCCF8091C9058093F10089
:105200008091E8008E778093E8000E94CD15809110
:10521000E80083FFD6C18091EF059091F005492FFA
:1052200050E04A30510508F0CCC1FA01EB57FF4F6E
:105230000C94DF2F803821F0823809F0C2C108C0F9
:105240008091EB059091EC05992389F082600FC065
:105250008091F3058F70873008F0B3C18093E90027
:105260008091EB0085FB882780F91092E9009091EE
:10527000E800977F9093E8008093F1001092F1008E
:1052800074C1282F2D7F09F09CC1882319F082302A
:1052900061F097C18091F105813009F092C193309E
:1052A00009F080E08093EC052EC08091F10581111A
:1052B0002AC08091F3058F702FEF280F263008F059
:1052C00080C18093E9002091EB0020FF1CC0933047
:1052D00021F48091EB00806214C09091EB0090610A
:1052E0009093EB0021E030E0A90102C0440F551F6C
:1052F0008A95E2F74093EA001092EA008091EB0071
:1053000088608093EB001092E9008091E800877F2D
:105310002FC1811156C11091F1051F778091E300D3
:105320008078812B8093E3008091E800877F8093D1
:10533000E8000E94CD158091E80080FFFCCF8091AD
:10534000E30080688093E300111102C082E001C095
:1053500083E08093ED0535C18058823008F031C17B
:105360008091F1059091F2058C3D53E0950779F518
:1053700083E08A838AE289834FB7F894DE0113962B
:1053800020E03EE051E2E32FF0E050935700E4913B
:1053900020FF03C0E295EF703F5FEF708E2F90E02B
:1053A000EA3010F0C79601C0C0968D939D932F5F91
:1053B000243149F74FBF8091E800877F8093E80050
:1053C0006AE270E0CE0101960E945F17BDC0409175
:1053D000F3055091F405292F332723303105B9F017
:1053E0006CF42130310509F4FBC02230310509F09D
:1053F000E8C08BE390E0E3E9F6E054C021323105E8
:1054000009F433C02232310509F43CC0DAC09927CF
:1054100081309105D1F05CF4892B09F0D2C0E6E12E
:10542000F7E0E4918E2F90E0E6E1F7E038C08230BB
:10543000910599F0039709F0C4C0E0EEF6E0E4911D
:105440008E2F90E0E0EEF6E02AC0EEEFF6E0E49179
:105450008E2F90E0EEEFF6E022C0E6EEF6E0E4916B
:105460008E2F90E0E6EEF6E01AC04115510509F4E2
:10547000BCC04130510509F0A4C089E090E0EEEBDA
:10548000F6E010C04115510509F4B4C04130510592
:1054900009F097C081E790E0E2EEF5E003C00097E5
:1054A00009F48FC02091E800277F2093E800209125
:1054B000F5053091F6052817390708F4C90140E0D1
:1054C000009789F12091ED05222309F43DC0253094
:1054D000D9F12091E80023FD37C02091E80022FD9A
:1054E0002FC02091E80020FFEBCF4091F3002091E6
:1054F000F20030E0342B009759F02830310540F4A9
:1055000044914093F100319601972F5F3F4FF3CFC5
:1055100041E02830310509F040E02091E8002E7785
:105520002093E800CDCF4111CDCF0AC08091ED0589
:10553000882351F0853041F08091E80083FD04C05C
:105540008091E80082FFF2CF8091E8008B77809312
:10555000E80037C08038A9F58091E800877F809304
:10556000E8008091EE058093F1008091E8008E774D
:105570008093E8000E94CD1524C0811122C01091B3
:10558000F1051230F0F48091E800877F8093E80005
:105590001093EE050E94CD15111106C08091E30015
:1055A00087FD02C081E001C084E08093ED0542E008
:1055B00061EC81E00E94EC1542E261EC82E00E9425
:1055C000EC158091E80083FF1AC08091E800877F86
:1055D0008093E8008091EB0080628093EB000FC025
:1055E00082E190E0EEECF6E05DCF89E090E0E5EA64
:1055F000F6E058CF80E490E0E3E5F6E053CFAA96DA
:105600000FB6F894DEBF0FBECDBFDF91CF911F91D3
:1056100008950E946323292F2F7092959F70E92F80
:10562000F0E03297EE30F105B8F4E157FF4F0C94FB
:10563000DF2F803F99F018F4883E70F40FC0843F4C
:1056400059F40CC0883E50F0813F31F407C0822FDE
:10565000869586958695089580E0089581E0089561
:105660001092C2051092C1050E94DC2280E090E0F9
:105670000E94BA1E80E090E00C94A41E8091150157
:10568000882331F08091960387FF02C08EE101C02C
:1056900086E0EDE2F5E0DF011D928A95E9F70C94D2
:1056A000302B882341F080959091C8058923809301
:1056B000C8050C94DC220895882339F09091C80520
:1056C000892B8093C8050C94DC220895882309F463
:1056D00058C0682F823869F40E94D01E81FF51C0E3
:1056E00069E38BE295E00E94BE210E94DC2269E31F
:1056F0000EC0833891F40E94D01E80FF42C063E543
:105700008BE295E00E94BE210E94DC2263E58BE2E1
:1057100095E00E9493210C94DC22843869F40E9465
:10572000D01E82FF2EC067E48BE295E00E94BE216E
:105730000E94DC2267E4EBCF8CEF860F813A38F3CE
:1057400080E2860F883070F4677081E090E001C0DD
:10575000880F6A95EAF780959091C8058923809310
:10576000C805D9CF8BE5860F833020F480E090E028
:105770000C94BA1E685A673120F480E090E00C94D3
:10578000A41E0895882309F40DC1682F8238B1F44E
:105790000E94D01E81FD06C169E38BE295E00E9464
:1057A000BE210E94DC222FEF81EE94E02150804048
:1057B0009040E1F700C0000069E317C08338D9F4D6
:1057C0000E94D01E80FDEEC063E58BE295E00E9452
:1057D000BE210E94DC222FEF81EE94E02150804018
:1057E0009040E1F700C0000063E58BE295E00E9485
:1057F00093210C94DC228438B1F40E94D01E82FDE7
:10580000D1C067E48BE295E00E94BE210E94DC22B9
:105810002FEF81EE94E0215080409040E1F700C0EE
:10582000000067E4E2CF8CEF860F813A28F48BE228
:1058300095E00E94BE21DDCF80E2860F883068F4BB
:10584000677081E090E001C0880F6A95EAF7909157
:10585000C805892B8093C805CCCF8BE5860F833094
:1058600070F4653A29F0663A31F083E890E005C0BB
:1058700081E890E002C082E890E00C94BA1E88E5CE
:10588000860F873108F08EC0683A09F445C0693A3E
:1058900009F445C06A3A09F445C06B3A09F445C0B9
:1058A0006C3A09F445C06B3B09F445C06C3B09F404
:1058B00045C06D3A09F445C0603B09F445C06E3AF5
:1058C00009F445C06F3A09F445C0613B09F445C08D
:1058D000623B09F445C0633B09F445C0643B09F4ED
:1058E00045C0653B09F445C0663B09F445C0673BCC
:1058F00009F445C0683B09F445C0693B09F445C05B
:105900006D3B09F445C06E3B09F445C06A3B09F4A0
:1059100045C080E090E044C082EE90E041C089EE56
:1059200090E03EC08AEE90E03BC085EB90E038C04E
:1059300086EB90E035C083EB90E032C084EB90E0E2
:105940002FC087EB90E02CC08CEC90E029C08DEC50
:1059500090E026C083E891E023C08AE891E020C06F
:1059600082E991E01DC084E991E01AC081E292E0F1
:1059700017C083E292E014C084E292E011C085E295
:1059800092E00EC086E292E00BC087E292E008C08F
:105990008FE690E005C080E790E002C08AE292E0E6
:1059A0000C94A41E0895CF93C82F0E94C22BC93314
:1059B00049F42FEF87EE93E0215080409040E1F7CB
:1059C00000C000008C2FCF910C94662B1092B90070
:1059D0008CE08093B8000895EF92FF920F931F938D
:1059E000CF93DF93182FEB011092BC0084EA8093D1
:1059F000BC000E945E217C019091BC0097FD0EC00E
:105A0000CF3F8FEFD807C1F30E945E218E199F0907
:105A10008C179D0788F38EEF9FEF2EC09091B900F1
:105A2000987F983041F09091B900987F903119F0AB
:105A30008FEF9FEF21C01093BB0084E88093BC00E0
:105A40000E945E218C019091BC0097FD0CC0CF3F5D
:105A50008FEFD807C1F30E945E21801B910B8C173A
:105A60009D0788F3D8CF8091B900887F883111F0E5
:105A70008034F1F680E090E0DF91CF911F910F919B
:105A8000FF90EF9008950F931F93CF93DF93EB0157
:105A90008093BB0084E88093BC000E945E218C014F
:105AA0009091BC0097FD0EC0CF3F8FEFD807C1F398
:105AB0000E945E21801B910B8C179D0788F38EEF4F
:105AC0009FEF0CC02091B900287F81E090E0283240
:105AD00011F480E090E0919581959109DF91CF914B
