:100000000C9487040C94A4040C94A4040C94A404ED
:100010000C94A4040C94A4040C94A4040C94A404C0
:100020000C94A4040C94A4040C9402160C94D714FD
:100030000C9481230C94A4040C94A4040C94A404A4
:100040000C94A4040C94A4040C94A4040C94A40490
:100050000C94A4040C94E3220C94A4040C94A40423
:100060000C94A4040C94A4040C94A4040C94A40470
:100070000C94A4040C94A4040C94A4040C94A40460
:100080000C94A4040C94A4040C94A4040C94A40450
:100090000C94A4040C94A4040C94A4040C94A40440
:1000A0000C94A4040C94A4040C94A4046D086D088E
:1000B000AB08AB08F4081409E80A410B5609420AD8
:1000C000540A540A7C0C7E0C890C800C820C840C23
:1000D000860C880C8B0C8D0C8F0C9A0C910C930C4D
:1000E000950C970C990C9C0C7E0D810D840D870D41
:1000F0008A0D8D0D900D84108910931087108C102F
:1001000091108F10E212FC1228136913B413B71365
:10011000BC13BF13C213C513C813CB13CE13D11313
:10012000D413D713DA13DF13E413E713EA13B62655
:10013000B626C926C926BF26C926C926C926B62677
:10014000B626C426C926C926C4260E2D352DD52E81
:10015000352DD52E7D2DA02DD52E9E2EB12E2E00E7
:100160004C00296FE100354100001E00140004001E
:100170001D61340000611F001A0016001B00A6005C
:100180002A00200008000700060050002C00210073
:100190001500090019004F00E200220017000A00B4
:1001A000050000006564500001530000000F0000CE
:1001B000E3004F000253000000070000E2002300AC
:1001C0001C000B00110000002961240018000D0024
:1001D000100052004B0025000C000E0036005100AC
:1001E0002800260012000F0037002F002B002700E8
:1001F00013003342387130004E002D003100346856
:10020000E50001510000290001000100010001008A
:1002100000003A001E02200222020100FC5C3B00AA
:100220001F02210223020100C95C3C002F022602AA
:100230002F000100CA5C3D0030022702300001009F
:10024000FC5C3E003102350035020000C35C010059
:100250000100000001000000FB5C01000100000043
:1002600001000000C25C3F00520051002402000067
:10027000F95C4000240021001E0001000100410043
:10028000250022001F003700C55C42002600230025
:1002900020002700C65C430025022E0231002E00FC
:1002A00001004400450001000100010000000100C0
:1002B0000100010001000100000001000100010037
:1002C0000100010001000100010001000100010026
:1002D0000100010001000100010001000100010016
:1002E000005CF900010001000100010001000100B3
:1002F000FA00000001000100010000000100000000
:1003000001000100010000000100000001000100E7
:100310000100F20001000000010001000100F100F5
:100320000100A900010001000100F000AC00AA00DA
:10033000F40001000100F300AB00A800F50001008B
:100340000100010001000100010001000100AE00F8
:10035000010001000000000000000000000000009B
:10036000000000000000000000000000000000008D
:10037000000000000000000000000000000000007D
:10038000000000000000000000000000000000006D
:10039000000000000000000000000000000000005D
:1003A000000000000000000000000000000000004D
:1003B000000000000000000000000000000000003D
:1003C000000000000000000000000000000000002D
:1003D000000000000000000000000000000000001D
:1003E000000000000000000000000000000000000D
:1003F00000000000000000010101010101000101F5
:1004000001010000000000000000000000000000EA
:1004100001000100010101010101010101010101CE
:1004200001010101010101010101010101010101BC
:1004300001000000010100000000000000000000B9
:1004400000000000000000000000000000000000AC
:1004500000010101010000000000000000002A2B43
:100460002800000000000000000000000000000064
:100470000029000000002C1E3420212224342627CD
:10048000252E362D3738271E1F20212223242526EE
:100490003333362E37381F0405060708090A0B0CBC
:1004A0000D0E0F101112131415161718191A1B1C04
:1004B0001D2F3130232D350405060708090A0B0CC2
:1004C0000D0E0F101112131415161718191A1B1CE4
:1004D0001D2F3130354C00000000000000000000EE
:1004E000000000000000000000000000000000000C
:1004F00000000000000000000000000000000000FC
:1005000000000000000000000000000000000000EB
:1005100000000000000000000000000000000000DB
:1005200000000000000000000000000000000000CB
:1005300000000000000000000000000000000000BB
:1005400000000000000000000000000000000000AB
:10055000000000000000000000000000000000009B
:10056000000000000000000000000000000000008B
:10057000000000000000000000000000000000007B
:10058000000000000000000000000000000000006B
:10059000000000000000000000000000000000005B
:1005A000000000000000000000000000000000004B
:1005B000000000000000000000000000000000003B
:1005C000000000000000000000000000000000002B
:1005D000000000000000000000000000000000001B
:1005E000000000000000000000000000000000000B
:1005F00000000000000000000000000000000000FB
:1006000000000000000000000000000000000000EA
:100610000000000055CB9E55CB9E55CB9E55CB9EE2
:1006200000000000000000000000000000000000CA
:1006300000000000000000000000000000000000BA
:1006400000000000000000000000000000000000AA
:100650000AE1FF000000000000000000000000555B
:10066000CB9E00000000000000000055CB9E000063
:10067000000000000000000000000000000000007A
:10068000000000000000000000000000000000006A
:100690000101010101010101010202020202020243
:1006A0000203030303030303040404040405050510
:1006B00005050606060606070707070808080809CD
:1006C00009090A0A0A0B0B0B0C0C0C0D0D0D0E0E72
:1006D0000E0F0F1010101111121213131414151500
:1006E00016161717181819191A1A1B1C1C1D1D1E6F
:1006F0001F1F2021212223232425252627282829BE
:100700002A2B2C2C2D2E2F303131323334353637E5
:1007100038393A3B3C3D3E3F4041424344454647E1
:1007200048494B4C4D4E4F50525354555758595AB7
:100730005C5D5E606163646567686A6B6C6E6F7157
:1007400072747677797A7C7D7F8182848687898BC3
:100750008D8E9092949597999B9D9FA1A2A4A6A8F7
:10076000AAACAEB0B2B4B6B9BBBDBFC1C3C5C8CAEE
:10077000CCCED0D3D5D7DADCDEE1E3E6E8EAEDEFA4
:10078000F2F4F7F9FCFF05010902A1018502090154
:10079000A100050919012905150025019505750117
:1007A0008102950175038101050109300931158127
:1007B000257F95027508810609381581257F9501E9
:1007C00075088106050C0A38021581257F9501758B
:1007D000088106C0C005010980A10185031601003A
:1007E0002603001A81002A8300751095018100C03C
:1007F000050C0901A1018504160100269C021A01BD
:10080000002A9C02751095018100C005010906A10E
:10081000018505050719E029E715002501950875EB
:1008200001810205081901290595057501910295B7
:1008300001750391010507190029EF1500250195A0
:10084000F075018102C005010906A101050719E043
:1008500029E71500250195087501810295017508A4
:100860008101050819012905950575019102950178
:10087000750391010507190029FF150026FF009552
:100880000675088100C009023B00020100A0FA09B8
:1008900004000001030101000921110100012240AF
:1008A000000705810308000A090401000103000094
:1008B0000009211101000122C00007058203200068
:1008C0000A1201100100000008EDFE0713010001EB
:1008D00002030104033000000016034500720067A4
:1008E000006F0044006F007800200045005A0000AF
:1008F0000016034500720067006F0044006F007827
:1009000000200045005A00000004030904001124DF
:100910001FBECFEFDAE0DEBFCDBF13E0A0E0B1E055
:10092000E0E2FCE602C005900D92A637B107D9F7C8
:1009300026E0A6E7B3E001C01D92AE31B207E1F7B1
:100940000E944E170C940E360C9400008F929F92CA
:10095000AF92BF92CF92DF92EF92FF920F931F93CD
:10096000CF93DF93CDB7DEB760970FB6F894DEBFB5
:100970000FBECDBFFC01F080118183819481892B52
:1009800011F40C94B80C1F3F29F40FEFF01611F47A
:100990000C94B80C6F0185E0DE01199601900D9260
:1009A0008A95E1F7F601228189859A85222349F00B
:1009B0000E942325082F682F89859A850E949C25EF
:1009C00003C00E946F25082F26E0129FF00111241A
:1009D00034E5039FE00DF11D1124EF0DF11DEE0F25
:1009E000FF1FE25AFE4F05911491F6018281073FE5
:1009F000FCE51F0759F0083F2CE5120709F446C033
:100A0000023C3CE5130709F08AC062C0882309F460
:100A1000BEC090918D0381E0890F8770987F8530EB
:100A200020F4892B80938D0302C090938D038091D5
:100A30008D038770EFEF8E9FC001112495958795E8
:100A40009595879599279093890080938800909336
:100A50008B0080938A0090938D0080938C0040914E
:100A60008D0350918E0360918F03709190038FE0FE
:100A700090E00E9420306091CB057091CC05809170
:100A8000CD059091CE050E946A1081C0882309F49B
:100A90007EC080918D0383FB222720F991E092276D
:100AA00090FB83F980938D03992329F040E060E067
:100AB00080E00E94BF1E40918D0350918E03609193
:100AC0008F03709190038FE090E00E9420305FC010
:100AD000882309F44DC790911A0180918D039F3F9F
:100AE00059F410921A018F7E80938D0340E060E0EC
:100AF00080E00E94BF1E06C09FEF90931A018061A4
:100B000080938D0340918D0350918E0360918F03EC
:100B1000709190038FE090E00E94203029C70A3F37
:100B2000FCE51F0779F028F4093F3CE5130771F055
:100B30002EC00B3F9CE5190769F00C3FECE51E0742
:100B4000B1F025C0882309F413C721C6882309F40E
:100B50000FC76CC6882309F40BC781E00E94CB1E27
:100B60008CEA809316068FEF809317060DC08823BA
:100B700009F4FEC681E00E94CB1E86E5809316062E
:100B80008FEF8093170680E8809318064CC6F60115
:100B90008281882319F1033EFCE51F07C1F050F460
:100BA000013E3CE5130781F0023E8CE51807B1F4E5
:100BB00081E010C0043E9CE5190759F0053EECE5C4
:100BC0001E0761F484E006C01092890305C082E02C
:100BD00001C083E0809389030E94352017FF6DC018
:100BE000F6018281882309F468C08091DE05809334
:100BF00076031092DE0580918903813071F048F010
:100C00008230A1F08430C1F486EE0E945B2A88E134
:100C100011C082EE0E9441290FC088E193E00E943A
:100C2000541088E193E00E943E1006C082EE0E94BC
:100C3000412987E50E945B2A8FE39CE90197F1F740
:100C400000C000007801E894F7F85CE0A52EB12C14
:100C5000C7010A2C02C0969587950A94E2F7282FBF
:100C60002F7041F0822F90E02A3010F44D9604C08E
:100C7000069702C087E290E00E945B2A94E0A91ADE
:100C8000B108ECEFAE16EFEFBE0611F780918903C5
:100C9000813039F040F0823031F0843051F488E214
:100CA00006C08CE204C082EE0E94DA2802C00E94D4
:100CB0005B2A809176038093DE05F601828188238A
:100CC00009F4CFC00731FCE51F0709F443C070F4F5
:100CD0000430110508F4C5C00832110508F4A8C095
:100CE000C8018D970C9708F4A3C0BBC00A313CE53E
:100CF000130709F490C018F508319CE5190781F134
:100D00000931ECE51E0709F0ACC0809108018F9312
:100D1000809107018F938CE191E09F938F931F92B5
:100D200088E08F93CE0101967C019F938F930E9460
:100D300029330FB6F894DEBF0FBECDBF25C00B31EF
:100D4000FCE51F0709F46BC00C312CE5120709F410
:100D50006AC087C08091070190910801059605C07F
:100D60008091070190910801059790930801809365
:100D700007017AC02230C1F4F70181810E94412924
:100D80007501FFEFEF1AFF0AF7012081222309F412
:100D90006BC0C70101965C01213061F7F1808F2D96
:100DA0000E9441298F2D04C0233029F4F70181814D
:100DB0000E94DA28E5CF30E0F901EA5AFB4F94901F
:100DC000F901EA52FC4FE491BB24B394E11101C054
:100DD000B12CF901EA5AFC4F2491AA24A3942111C1
:100DE00001C0A12CBB2019F081EE0E944129AA204C
:100DF00019F086EE0E944129892D0E945B2AAA20C3
:100E000019F086EE0E94DA28BB2009F4BACF81EEF1
:100E10000E94DA28B6CF80910601811104C081E0DA
:100E20008093060121C0109206010E94821E1CC000
:100E30000E94821E80910601882309F4CCC0809113
:100E4000DE058111C8C00E945F2390937A038093CE
:100E50007903109378030093770382E00E94FD25C5
:100E600087C50E94821EB7C0F6018281882309F4DB
:100E70008BC010927B030A3CFCE51F0709F4BBC43E
:100E800008F041C0033C3CE5130709F48CC4E8F4C6
:100E90000531ECE51E0778F40230FCE51F0708F089
:100EA0000CC501152CE5120709F42CC401301C45B2
:100EB00009F467C4D0C006319CE5190709F469C07C
:100EC000023C1C4509F466C4C6C0063CFCE51F078D
:100ED00009F47BC450F4043C3CE5130709F46AC4EC
:100EE000053C1C4509F46DC4B6C0083C9CE51907D7
:100EF00009F471C408F078C42091170630E1230F7B
:100F000008F42FEF6EC4013DFCE51F0709F4ADC4E2
:100F1000D0F40D3C3CE5130709F488C450F40B3CB5
:100F20009CE5190709F470C40C3C1C4509F473C412
:100F300092C0809115060F3CFCE51F0709F483C49D
:100F400008F478C489C4053D3CE5130709F4ACC432
:100F500060F4033D9CE5190709F49BC480911506D4
:100F6000043D1C4508F48CC496C40D3DFCE51F07E8
:100F700009F49FC40E3D2CE5120709F408C40C3D8A
:100F80001C4509F068C092C40631FCE51F0709F052
:100F90009AC39091DE05882381F09A7A81E009F462
:100FA00080E080937C03811102C069E201C065E3A7
:100FB0008CE395E00E94D5230BC080917C038111C6
:100FC00002C069E201C065E38CE395E00E94AA23B8
:100FD0000E94DD24CDC4003FFCE51F0739F426E262
:100FE00041EE60EEC6010E945E20C2C4013F2CE5C6
:100FF0001207C0F4083D3CE5130721F427E245EE53
:1010000065EEF0CF093D8CE5180719F428E241E0C0
:10101000F7CF073D9CE5190709F026CF26E241EE00
:1010200061EEE0CF023FECE51E0721F426E241EE3F
:1010300062EED8CF023FFCE51F0720F427E245EE21
:1010400064EED0CF033F2CE5120709F00DCF27E265
:1010500045EE66EEC7CFF60100811181C8010E94FE
:101060002325F82E682FC8010E949C25B8018F2DDA
:101070000E94E30D182F382FF601258122952F703D
:10108000028101111092D1058091CF058770A9F0DE
:10109000002399F080E2810F883078F082E02F877A
:1010A000388B9E870E94FD258091CF058770EE24A6
:1010B000E3942F8538899E858111E12CA92EA29475
:1010C0004FE0A422B12CFCE0AF16B10408F0D9C265
:1010D000F501EA5AFF4F0C94F631892F807F9F70FB
:1010E000F92E882319F0F29480EFF8220023B9F04A
:1010F000FF2009F457C280E2810F883010F03111CF
:1011000006C09091DE05F92AF092DE0505C09091A7
:10111000D105F92AF092D1050E94DD2443C2812F26
:10112000388B0E94DA283889FF2009F4AAC2105EA1
:10113000F094183010F0311106C09091DE05F922BC
:10114000F092DE0505C09091D105F922F092D1050B
:101150000E94DD2496C2492F407F892F8F70403234
:1011600011F08295807F332319F03130E9F025C0EA
:10117000002381F03091D205222351F0213041F437
:10118000982F932B391709F47CC29093D20579C21A
:10119000832B17C0222319F0213009F472C28E87E5
:1011A0000E94D7248E851DC0002321F0223008F034
:1011B00068C207C0211165C214C0002329F02111A3
:1011C000F1C10E94D0285DC2222359F0193309F0E1
:1011D000FBC10FEF27EE33E0015020403040E1F734
:1011E000F1C10E94C5284DC2292F2695269523704E
:1011F00030E02115310521F02130310559F041C28F
:10120000002319F0812F937002C080E090E00E94CB
:10121000601E40C2002319F0812F937002C080E04D
:1012200090E00E944A1E36C20023F9F0153F51F0AB
:10123000163F71F0143FA9F480917D0390917E03D5
:1012400081600BC080917D0390917E03826005C018
:1012500080917D0390917E03846090937E038093C0
:101260007D03812F0E947B221EC0153F51F0163F47
:1012700071F0143FA9F480917D0390917E038E7FDD
:101280000BC080917D0390917E038D7F05C080917E
:101290007D0390917E038B7F90937E0380937D03EB
:1012A000812F0E94B1210E946B23F4C1892F83708A
:1012B00009F070C00111ECC1812F8295869587706D
:1012C000880F880F412F4F7050E060E070E04A01B6
:1012D0005B01082E04C0880C991CAA1CBB1C0A9434
:1012E000D2F714FF12C00FE010E020E030E004C09D
:1012F000000F111F221F331F8A95D2F7B901A801D1
:10130000409550956095709503C040E050E0BA015B
:10131000969596959370892F90E08230910529F1EA
:1013200083309105C9F00091D3051091D405209127
:10133000D5053091D605019759F0482959296A29D0
:101340007B29CB01BA0160237123822393230AC036
:10135000802A912AA22AB32ACB01BA0168297929C5
:101360008A299B290E94372693C1482959296A292D
:101370007B298091D3059091D405A091D505B0919A
:10138000D6058A019B01082719272A273B27C9016F
:10139000B801E8CF002319F0892F817001C086952C
:1013A000882309F475C1812F829586958770880FEF
:1013B000880F412F4F7050E060E070E04A015B0100
:1013C000082E04C0880C991CAA1CBB1C0A94D2F7D6
:1013D00014FF12C00FE010E020E030E004C0000F66
:1013E000111F221F331F8A95D2F7B901A80140951A
:1013F00050956095709503C040E050E0BA01969515
:1014000096959370892F90E082309105E9F08330B2
:10141000910579F10091CB051091CC052091CD0576
:101420003091CE05019759F0482959296A297B291D
:10143000CB01BA01602371238223932320C0802A29
:10144000912AA22AB32A15C0482959296A297B2939
:101450008091CB059091CC05A091CD05B091CE05A2
:101460008A019B01082719272A273B27C901B801B0
:1014700006C0CB01BA01682979298A299B290E94D3
:10148000CC2506C19F70F92E002339F0892F0E94C8
:101490001626812F0E94D028FBC0812F0E94C528CC
:1014A0008F2D0E94D825F4C0812F323FC9F128F436
:1014B000303F49F0313F79F170C0333FC1F1343FE3
:1014C00009F44DC06AC0002311F12111DAC0292F9F
:1014D0002F7181E090E0A0E0B0E0AC01BD0104C05C
:1014E000440F551F661F771F2A95D2F78091CB05B1
:1014F0009091CC05A091CD05B091CE058A019B01BC
:10150000082719272A273B27C901B80125C02230FF
:1015100008F0B7C0DCCF002329F0892F8F712EC0CF
:101520000023D9F3892F8F710E94D825AAC00023E8
:1015300081F0292F2F7181E090E0A0E0B0E0BC01A4
:10154000CD0104C0660F771F881F991F2A95D2F717
:1015500003C060E070E0CB010E94CC2592C0002364
:1015600081F0192F1F71812F0E94162628E0129FEB
:10157000C001112483608093CF05812F0E9416261D
:1015800080C081E02F870E94FD252F85223008F43E
:1015900078C082E00E94FD2574C0002339F0222328
:1015A00009F4BBCF812F0E9441296BC0222309F48B
:1015B000B9CF893349F43FEF87EE93E03150804053
:1015C0009040E1F700C00000812F0E94DA2859C046
:1015D000323FB1F028F4303F49F0313FF9F028C0F4
:1015E000343FB9F058F0353F71F022C0002309F4C0
:1015F00051C09091DD0581E0892708C081E008276E
:101600000093DD0547C0011145C081E08093DD05F1
:1016100041C001113FC01092DD053CC0002329F0FC
:101620008091DC05882329F329C0222311F332C0DD
:101630008091DC052223C1F0882341F09091DD05E3
:1016400081E089278093DD051092DC05812F00233E
:1016500019F00E9441291EC00E94DA2886E0F60196
:1016600011928A95E9F716C08823A1F0011112C0E2
:101670009091DD0581E089278093DD051092DC05DE
:1016800009C0F8E0AF1AB10804E0A016B10410F4E4
:101690000E94761EEE2009F46BC18091CF0580FD7B
:1016A00067C1F60112828595859585950E9416265B
:1016B000C6010E94A6048091CF05859585958595E4
:1016C0000E94D82555C107312CE5120750F40115A9
:1016D0003CE5130708F444C102301C4508F448C136
:1016E0003FC1023CECE51E0708F43AC1063DFCE5AB
:1016F0001F0708F43DC10C5D1C450330110508F4BB
:1017000037C12EC11092DE050E94B2280FEF14E3FC
:101710002CE0015010402040E1F700C00000F89498
:1017200081E08093E00080E28093D8001092C900AD
:101730008FE19EE40197F1F700C000001DBA1092FE
:1017400068001CBC10BE1FBA10927A0010926E0086
:1017500010926F0010927100109272001092C900E6
:101760001092BC0014B817B81AB81DB810BA10926D
:10177000BC0015B818B81BB81EB811BA0C94003FBD
:10178000F7C08091BC0381608093BC03F1C00E94CC
:101790001824EEC09091150681E0892780931506E4
:1017A0001092090140C08091DE05827239F00E94DA
:1017B000D71EDEC08091DE058272C9F30E94ED1E45
:1017C000D7C080911606885F03C0809116068850A6
:1017D0008093160628C02091170630E1231B08F4D9
:1017E00020E0209317061FC02091180630E1230F38
:1017F00008F42FEF06C02091180630E1231B08F4EF
:1018000020E0209318060FC02091190630E1230F25
:1018100008F42FEF06C02091190630E1231B08F4CD
:1018200020E0209319060E94C31EA2C081E00E94FE
:10183000CB1E9EC086958695825C8F73833008F49C
:10184000BDCF82E0F4CF86958695865C8F7382301B
:1018500008F4B4CF86E0EBCF86958695895C8F73CC
:10186000853008F4ABCF89E0E2CF809115068695EC
:1018700086958F5C8F73853008F4A0CF8FE0D7CF2B
:1018800086958695855D8F73823008F497CF85E1C4
:10189000CECF88E1CCCF86958695895D8F738930D0
:1018A00008F48CCF89E1C3CF83E2C1CF1092CB0380
:1018B0005FC082E08093CB035BC00E940D24811146
:1018C00002C00E94182484E090E00E94EA2F90E079
:1018D0009093A00380939F03F801E350FC45E2310D
:1018E000F10530F4EE59FF4F80919F030C94F631CF
:1018F00080919F03816027C0826025C0846023C0DF
:10190000806121C080621FC080641DC080681BC0D0
:101910008460886018C08E7F16C08D7F14C08B7F56
:1019200012C08F7E10C08F7D0EC08F7B0CC08F7752
:101930000AC08B7F877F07C087FB222720F991E0B1
:10194000922790FB87F980939F0360919F0384E027
:1019500090E00E940E301092DE050E94B22808C06E
:10196000F60100811181C8010E946F25F82E7ECBFF
:1019700060960FB6F894DEBF0FBECDBFDF91CF915A
:101980001F910F91FF90EF90DF90CF90BF90AF909D
:101990009F908F9008950F931F93CF93DF939C0197
:1019A0003A9521153F4148F5EB018C0190FF03C0AA
:1019B00080EEFB01099511FF03C081EEFE01099540
:1019C00012FF03C082EEFE01099513FF03C083EEF0
:1019D000FE0109950115104180F084EEFE01099584
:1019E00085EEFE01099586EEFE01099587EEFE0162
:1019F000DF91CF911F910F910994DF91CF911F91AA
:101A00000F910895282F277081E090E001C0880F82
:101A10002A95EAF780959091D10589238093D10585
:101A20000C94DD24282F277081E090E001C0880FFE
:101A30002A95EAF780959091D10589238093D10565
:101A40000C94DD24282F277081E090E001C0880FDE
:101A50002A95EAF79091D105892B8093D1050C94B2
:101A6000DD24282F277081E090E001C0880F2A959F
:101A7000EAF79091D105892B8093D1050C94DD2450
:101A8000CF93E82F873080F580910C0190910D0164
:101A9000892B09F047C0CE2F64E670E080E40E94F5
:101AA000032F90930D0180930C01892BD1F464E6F0
:101AB00070E082E10E945A2F90930D0180930C01F7
:101AC000892B79F481E090E001C0880FCA95EAF78C
:101AD00064E670E080950E945A2F90930D018093E8
:101AE0000C01CF910C94D62F90E0FC013797E73092
:101AF000F105C0F4EC58FF4F0C94F631209A289869
:101B000011C0219A29980EC0229A2A980BC0239AB4
:101B10002B9808C0529A5A9805C0539A5B9802C0F5
:101B20003E9A4698CF910895CF93873008F03FC0F2
:101B300080910C0190910D01892B09F041C064E660
:101B400070E080E40E94032F90930D0180930C01BC
:101B5000892B11F0C0E027C064E670E083E10E94A9
:101B60005A2F90930D0180930C01892B99F764E60D
:101B700070E081E40E94032F90930D0180930C018B
:101B8000892B41F784E690E00E948A2F97FF05C0D9
:101B900090930D0180930C01DDCFC82FC09510925A
:101BA0000D0110920C010E94D62F8C2F0AC09FB1FC
:101BB0008FB1807F869586959370892B809501C023
:101BC00080E0CF910895CF93DF9326E0729FF001DC
:101BD000112434E5839FE00DF11D1124E60FF11D62
:101BE000EE0FFF1FE25AFE4FC591D491CE01C238CD
:101BF000D10549F1B0F4C133D10509F464C048F40A
:101C0000C932D10509F458C0CA32D10509F462C0FD
:101C100068C0C533D10509F448C0C933D10599F06E
:101C200060C0C33ED10541F138F4C03ED10591F00A
:101C3000C23ED105B1F055C0C63ED10521F1C73E27
:101C4000D10561F14EC020919F0320FD12C221FDFC
:101C500010C211C220919F0320FF0DC289E390E0C2
:101C60000AC220919F0322FF06C280919F0384FD38
:101C7000B2C183EE90E0FFC180919F0382FFF5CF58
:101C800082EE90E0F8C120919F0323FFF4C1809180
:101C90009F0384FDA0C187EE90E0EDC180919F037A
:101CA00083FFF5CF86EE90E0E6C120919F0325FFEC
:101CB000E2C189E290E0DFC120919F0325FFDBC1F3
:101CC00085E390E0D8C120919F0326FFD4C18AE22A
:101CD00090E0D1C120919F0326FFCDC181E390E028
:101CE000CAC1C11520E5D20708F047C0C11530E4CC
:101CF000D30708F034C1C83ED10518F5C03ED10560
:101D000008F0B9C1C83AD10570F4C53AD10508F058
:101D1000B0C0C130D10509F4AEC108F45CC124974C
:101D200008F459C1A8C1CF3BD10508F4ADC0C03CEF
:101D3000D10508F450C1FE01EE0FFF1FEA5FFA4F14
:101D400002C1C11520E2D20760F4C11531E0D3070A
:101D500008F091C1C03FD10508F43DC1CE019065A6
:101D60008AC1C11580E3D80708F0F0C0FE01FF70FA
:101D7000EE0FFF1FEA57F94FE6C0C11595E5D907E9
:101D800008F044C0C11524E5D20708F000C1C11510
:101D900032E5D30710F5C11581E5D80708F0E3C097
:101DA0002C2F237081E090E002C0880F991F2A95A4
:101DB000E2F79C689E0174E0369527957A95E1F7E5
:101DC0002370922BEC2FEF70E695E69530E2E39FBF
:101DD000F00111248E2B9F2B4EC18C2F869586955A
:101DE000AE0143705527C115D34508F0C1C090E23C
:101DF000899F9001112481E090E002C0880F991F13
:101E00004A95E2F7822B932B9C6835C1C1152AE5D0
:101E1000D207A0F4C11539E5D30708F0C6C0C11533
:101E200086E5D80708F4B8C0C11598E5D90708F4C5
:101E3000D2C09C2F8827806F906A1DC1C1152BE5E9
:101E4000D20708F4C8C0CE01C1153CE5D30708F499
:101E5000BFC090568115904208F0BDC08D2F8F7184
:101E60000E943B20FE01FF27F0628F719F01382BFB
:101E7000ADC0C53AD10509F4B1C0C63AD10509F0E3
:101E8000B0C082E890E4F7C0C83AD10509F4ACC00C
:101E9000C93AD10509F4ABC0CA3AD10509F4AAC0C0
:101EA000CB3AD10509F4A9C0CC3AD10509F4A8C0B0
:101EB000CB3BD10509F4A7C0CC3BD10509F4A6C0A2
:101EC000CD3AD10509F4A5C0C03BD10509F4A4C0A1
:101ED000CE3AD10509F4A3C0CF3AD10509F4A2C086
:101EE000C13BD10509F4A1C0C23BD10509F4A0C092
:101EF000C33BD10509F49FC0C43BD10509F49EC082
:101F0000C53BD10509F49DC0C63BD10509F49CC071
:101F1000C73BD10509F49BC0C83BD10509F49AC061
:101F2000C93BD10509F499C0CD3BD10509F498C04E
:101F3000CE3BD10509F497C0CA3BD10509F496C040
:101F400080E094E498C08591949195C09E013327D8
:101F5000C901D3FF02C0986C8EC0906C8CC0CE01BA
:101F60009F70906A88C09C2F8827816F906A83C079
:101F700090E2899F9001112481E090E002C0880FD7
:101F8000991F4A95E2F7822B932B9A6874C09C2F75
:101F90008827846F906A6FC08C2F0E943B208F71BE
:101FA00090E0982F8827906266C08C2F8F700E94D7
:101FB0003B20FE0194E0F695E7959A95E1F7EF70E6
:101FC000F0E0FE2FEE27F0699F01282BC90153C0D6
:101FD0009927906650C080E090E04DC081E890E481
:101FE0004AC083E890E447C082EE94E444C089EE9E
:101FF00094E441C08AEE94E43EC085EB94E43BC097
:1020000086EB94E438C083EB94E435C084EB94E42D
:1020100032C087EB94E42FC08CEC94E42CC08DECA0
:1020200094E429C083E895E426C08AE895E423C0B7
:1020300082E995E420C084E995E41DC081E296E43C
:102040001AC083E296E417C084E296E414C085E2E5
:1020500096E411C086E296E40EC087E296E40BC0D7
:102060008FE694E408C080E794E405C08AE296E431
:1020700002C080EE90E0DF91CF910895CF93DF937F
:10208000EC010E94DA28CE01805E9109089710F0D9
:10209000209719F462E07DE002C062E17DE0CE01AC
:1020A000DF91CF910C94CB0CCF93DF93EC01805E4A
:1020B0009109089710F0209719F462E27DE002C0C0
:1020C00061E37DE0CE010E94CB0C8C2FDF91CF919C
:1020D0000C944129CF92DF92EF92FF926B017C0129
:1020E0000E94872456985E9825982D9826982E98B9
:1020F00027982F9890E0FC013197E730F105A8F47C
:10210000E558FF4F0C94F631259A2D9A0EC0259A6A
:102110002D9A269A2E9A09C0259A2D9A04C0259A9E
:102120002D9A269A2E9A279A2F9AC701B601FF90C8
:10213000EF90DF90CF90089580E290E090930D01B2
:1021400080930C018091860381110EC00E94FD2EA8
:1021500081E0809386032FEF83ED90E32150804050
:102160009040E1F700C0000064E670E080E40E9467
:10217000032F90930D0180930C01892B09F04EC021
:1021800064E670E080E00E945A2F90930D018093E6
:102190000C01892B09F042C064E670E080E00E94E7
:1021A0005A2F90930D0180930C01892BB9F564E6A9
:1021B00070E08FE30E945A2F90930D0180930C01E1
:1021C000892B61F50E94D62F64E670E080E40E94BE
:1021D000032F90930D0180930C01892BF9F464E691
:1021E00070E08CE00E945A2F90930D0180930C01B7
:1021F000892BA1F464E670E080E00E945A2F90934E
:102200000D0180930C01892B49F464E670E08FE3A3
:102210000E945A2F90930D0180930C010E94D62F9B
:1022200080910C01089556985E9825982D982698CF
:102230002E9827982F988FEF90E0909389008093A5
:10224000880090938B0080938A0090938D008093F8
:102250008C00259A2D9A2FEF80E792E02150804044
:102260009040E1F700C00000269A2E9A2FEF80E7F9
:1022700092E0215080409040E1F700C00000279A92
:102280002F9A2FEF80E792E0215080409040E1F7B5
:1022900000C0000025982D982FEF80E792E0215094
:1022A00080409040E1F700C0000026982E982FEF64
:1022B00080E792E0215080409040E1F700C00000AC
:1022C00027982F9856985E9825982D9826982E989E
:1022D00027982F98089584B1807F84B985B1807F35
:1022E00085B98AB1837F8AB98BB1837F8BB93E98D8
:1022F0004698089580B38C7080BB81B3836F81BB97
:1023000008954F925F926F927F928F929F92AF92B9
:10231000BF92CF92DF92EF92FF920F931F93CF93D2
:10232000DF931F92CDB7DEB780910C0190910D0124
:10233000892B91F0809185038F5F809385038111B4
:102340000BC00E949C1090E090930D0180930C01B3
:10235000892B11F40E94131131E9E32E33E0F32E9F
:1023600048E9C42E43E0D42E5701912C10E007E039
:10237000090D892D0E94400D802F0E94400D892D4E
:102380000E94940DD5019C91981721F08C9388247C
:10239000839401C0812C802F0E94940DF6019081BE
:1023A000981719F0808381E001C080E08829182BFC
:1023B0000E946B119394FFEFAF1ABF0A2FEFC21A5E
:1023C000D20A37E09312D3CF0E945F236AEF70E006
:1023D0000E94CE31BC01482F809180038823D9F11F
:1023E00010928003E0918703F0918803DF011E962D
:1023F00090E08BEF2AEFA22EB12C20812B3F99F099
:10240000C22ED12C421720F09B012C193D0905C08A
:1024100095012C193D09260F371F2F30310514F077
:10242000808301C091E03196EA17FB0731F7909362
:102430008003111102C0911110C010927F036091AE
:1024400087037091880390918003E4EAF3E080E0D1
:102450003EE03E0F32C01111F0CF80917F03811119
:10246000ECCF6091810370918203809183039091FE
:1024700084030E9409232FB7F8948090D705909089
:10248000D805A090D905B090DA052FBF80928103BE
:1024900090928203A0928303B0928403409011062D
:1024A000509012066090130670901406AFEF4A1613
:1024B0005A066A067A06D1F43AC0D7012D917D01F9
:1024C0005081521749F0DB015C915B3F21F44C9342
:1024D000208391E001C081E06F5F7F4F31963E1312
:1024E000ECCF9093800380937F03BBCFAB01BC0103
:1024F000662777276A017B01C094D094E094F0941A
:10250000C414D504E604F70420F48FEF9FEFDC0138
:1025100006C0DB01CA01840D951DA61DB71D809361
:10252000110690931206A0931306B0931406F09030
:10253000CD03F11009C090911506892F837021F009
:10254000792E7694769401C0712C809109018130A6
:10255000A1F038F0823009F454C1833009F45EC12F
:102560006EC11092190180920D0690920E06A092F3
:102570000F06B092100681E04EC180910B017812D7
:1025800010C080911506837090E020910A0130E020
:1025900051E040E08217930709F450E0252F342FD3
:1025A00002C021E030E0822F817080931B01872DD3
:1025B00090E08531910508F012C1FC01EE57FF4F04
:1025C0000C94F63190911901232B09F408C1E92EDE
:1025D000EE0CEE0CE90E05E00E0D013308F000E301
:1025E000E01608F0BDC020E040E060E08E2D90E0F5
:1025F0000E94C11EE394F4CF90911901C92ECC0C16
:10260000CC0CC90E05E00C0D013308F000E360911D
:10261000160670911706809118060E949C1FE62EE0
:10262000D82EC01608F09CC0EC2DF0E0DF01AB5BAB
:10263000BC4F8C9190911A01982341F02D2D4E2D75
:10264000672FCF0179830E94C11E7981C394E9CF9E
:1026500080911901A82EAA0CAA0CA80E35E03A0DFB
:10266000313308F030E3E0901706B090180620915F
:10267000190600E4029F012D1124A31628F5CA2C87
:10268000D12CF601EB5BFC4F808190911A019823CD
:10269000C9F0F601EE0FFF1FEA51FD4F90819295B0
:1026A0009F7060911606099F600D11247E2D8B2D61
:1026B00039830E949C1F462F282F672FC6010E9436
:1026C000C11E3981A394D9CF81E0303308F488C08A
:1026D00086C080911901C82ECC0CCC0CC80E05E028
:1026E0000C0D013308F000E3E09016067091170618
:1026F000D090180680911906682F669566956695A4
:1027000080910D0690910E0679830E94911F0E9480
:102710000F1F8058982F97FD9195990F292F3D2DC8
:10272000239F212D11246E2D7981822F0E949C1FC1
:10273000E62ED82EC016A0F4EC2DF0E0DF01AB5B46
:10274000BC4F8C9190911A01982341F02D2D4E2D64
:10275000672FCF0179830E94C11E7981C394EACF8C
:1027600081E00033E8F13BC08FE09BE102C083EEE3
:102770009AE10E94A72B34C088EE9BE11DC089EC32
:102780009BE11AC08EEA9BE11CC083E99BE119C062
:1027900081EE9AE1EECF88ED9AE1EBCF8FEC9AE1F2
:1027A000E8CF84EB9AE1E5CF85EA9AE10AC082E6B8
:1027B0009FE102C082E89BE10E944B2B11C08EE694
:1027C0009BE10E94CF2A0CC087E79AE105C085E40F
:1027D0009AE102C087E09AE10E946E2A01C080E07F
:1027E000909119019F5F90931901811128C082E097
:1027F0008093090180911B01811121C0772051F044
:102800001EC070920B0180911506837080930A019F
:102810000E94381C83E08093090111C060910D066D
:1028200070910E0680910F06909110060E94092368
:102830006A3171058105910510F010920901F110BE
:1028400084C08091CD03811180C080918D0383FD70
:102850007CC06091CB057091CC058091CD059091A5
:10286000CE050E948724823009F067C086EFE82EEB
:1028700085E0F82E612C712CF701649131967491EA
:1028800031968491611107C0711105C0811103C097
:1028900020E040E043C00E949C1FC62E072FD82E88
:1028A00090911806692F70E080E090E00E94D3308C
:1028B00020E030E04FE753E40E9432304B015C01EE
:1028C0006D2D70E080E090E00E94D5309B01AC015E
:1028D000C501B4010E9461310E94A430D62E6C2D36
:1028E00070E080E090E00E94D5309B01AC01C50112
:1028F000B4010E9461310E94A430C62E602F70E0A6
:1029000080E090E00E94D5309B01AC01C501B4018C
:102910000E9461310E94A4302D2D4C2DC3010E94D4
:10292000C11EFFEF6F1A7F0A23E0E20EF11C30E3B5
:102930006316710409F0A0CF08C080911A018111BB
:1029400004C040E060E00E94BF1E812F0F90DF9125
:10295000CF911F910F91FF90EF90DF90CF90BF909C
:10296000AF909F908F907F906F905F904F90089561
:10297000E8EDF0E080818E7F80831092E20010927B
:10298000DA001092E100A0EEB0E08C9181608C93AF
:1029900080818F77808319BCA7EDB0E08C918E7F0A
:1029A0008C9380818F7E80831092CC0308951F9238
:1029B0000F920FB60F9211242F933F934F935F9373
:1029C0006F937F938F939F93AF93BF93CF93DF9337
:1029D000EF93FF93C091E900CF708091EC00D82F66
:1029E000D17080FDD0E81092E9008091F000877FDF
:1029F0008093F00078940E94282C1092E900809136
:102A0000F00088608093F000CD2BCF70C093E90078
:102A1000FF91EF91DF91CF91BF91AF919F918F91F6
:102A20007F916F915F914F913F912F910F900FBECA
:102A30000F901F9018952091E4003091E50095E6E5
:102A40004091EC00842F817040FF22C08091E8000B
:102A500080FD1CC080910306882391F0853091F0A1
:102A60008091EB0085FD10C04091E4005091E5009D
:102A70004217530729F39A01915011F784E0089502
:102A800082E0089583E0089581E0089580E008954C
:102A90004091E80042FFDECF08958091050687FF50
:102AA00011C08091E80082FD05C08091030681116C
:102AB000F8CF11C08091E8008B770BC0809103069E
:102AC000882349F08091E80080FFF8CF8091E800EA
:102AD0008E778093E8000895982F973058F590935B
:102AE000E900981739F07091EC002091ED005091B9
:102AF000F00003C0242F762F50E021FF19C0309141
:102B0000EB003E7F3093EB003091ED003D7F309342
:102B1000ED003091EB0031603093EB007093EC00EE
:102B20002093ED005093F0002091EE0027FF07C0A6
:102B30009F5FD3CF8F708093E90081E0089580E09C
:102B40000895CF92DF92EF92FF920F931F93CF934E
:102B5000DF93C8EDD0E088818F7E8883E7EDF0E0D9
:102B600080818160808384E082BF81E08093CC0398
:102B700088818E7F888302EE10E0F8011082109227
:102B8000DA0081EEC82ED12CF601108288818F7771
:102B9000888388818068888388818F7D888319BC39
:102BA000109203061092040610920206109201067B
:102BB00090EEE92EF12CF70180818B7F8083888154
:102BC0008160888342E060E080E00E946C15F6013D
:102BD00080818E7F8083F801808181608083808105
:102BE00088608083F70180818E7F80838881806107
:102BF0008883DF91CF911F910F91FF90EF90DF902D
:102C0000CF9008951F920F920FB60F9211242F9319
:102C10003F934F935F936F937F938F939F93AF9364
:102C2000BF93EF93FF938091E10082FF09C08091F1
:102C3000E20082FF05C08091E1008B7F8093E1007C
:102C40008091DA0080FF2AC08091D80080FF26C0E2
:102C50008091DA008E7F8093DA008091D90080FF26
:102C600018C080E189BD82E189BD09B400FEFDCFB5
:102C700081E0809303068091CC0381110FC00E94F4
:102C8000B8140E94A1158091E20084608093E20054
:102C900005C019BC109203061092CC038091E1008C
:102CA00080FF17C08091E20080FF13C08091E20096
:102CB0008E7F8093E2008091E20080618093E20049
:102CC0008091D80080628093D80019BC85E0809301
:102CD00003068091E10084FF36C08091E20084FF0A
:102CE00032C080E189BD82E189BD09B400FEFDCF1B
:102CF0008091D8008F7D8093D8008091E1008F7EF5
:102D00008093E1008091E2008F7E8093E2008091C9
:102D1000E20081608093E20080910406882311F034
:102D200084E007C08091E30087FD02C081E001C01C
:102D300083E0809303061092DE050E94B2280E9471
:102D4000761E1092CD038091E10083FF27C0809111
:102D5000E20083FF23C08091E100877F8093E10040
:102D600082E080930306109204068091E1008E7F3A
:102D70008093E1008091E2008E7F8093E200809159
:102D8000E20080618093E20042E060E080E00E9427
:102D90006C158091F00088608093F000FF91EF91B6
:102DA000BF91AF919F918F917F916F915F914F9163
:102DB0003F912F910F900FBE0F901F90189520916B
:102DC0000B0630910C062617370748F06115710580
:102DD00039F42091E8002E772093E80001C0B90172
:102DE00040E061157105A9F120910306222309F441
:102DF00043C0253009F442C02091E80023FD40C0C3
:102E00002091E80022FD32C02091E80020FFE9CFA8
:102E10004091F3002091F20030E0342BFC01CF010F
:102E20006115710559F02830310540F48191809386
:102E3000F100615071092F5F3F4FF1CF41E0283021
:102E4000310509F040E02091E8002E772093E8005A
:102E5000C8CF4111C9CF0AC080910306882361F011
:102E6000853061F08091E80083FD0AC08091E80020
:102E700082FFF2CF80E0089582E0089583E0089514
:102E800081E008958091CB03811107C080910306F2
:102E9000843011F081E0089582E00895CF93DF93AC
:102EA000CDB7DEB72A970FB6F894DEBF0FBECDBF01
:102EB00084B7877F84BF0FB6F894A895809160008F
:102EC000886180936000109260000FBE80E880935C
:102ED00061001092610085B7806885BF85B7806802
:102EE00085BF0E94B8140E94A1158091E200846001
:102EF0008093E2007894809103068823A1F01091DA
:102F0000E9001F709091EC00892F817090FD80E89E
:102F1000182B1092E9008091E80083FD0E94282C74
:102F20001F701093E90082E084BD93E095BD9AEF95
:102F300097BD80936E000E949C1090E090930D01CD
:102F400080930C010E946B110E947A11A1E9B3E0F9
:102F5000E4EAF3E01EE0E12EEE0E11921D92EE1275
:102F6000FCCF8EE090E00E94FC3180938703909329
:102F70008803FC010E962BEF2193E817F907E1F780
:102F80000E940D24811102C00E9418240E94A51CD9
:102F90000E940D24811104C00E9418240E94031F66
:102FA00045E050E06CE170E085E196E00E94DA2FA8
:102FB000809115068C7F11F40E94031F8CE090E035
:102FC0000E94EA2F90E0A0E0B0E080938903909304
:102FD0008A03A0938B03B0938C0389EA80938000CB
:102FE00089E08093810024982C983F988AB18F7C47
:102FF0008AB96E98479A8BB180638BB9769A8FE0C5
:1030000090E00E94F22F60938D0370938E03809363
:103010008F039093900367708FEF869FB001112408
:103020007595679575956795772770938900609377
:10303000880070938B0060938A0070938D0060937A
:103040008C0090918D0394FF03C080931A0102C0FD
:1030500010921A010E9413110E940D24811102C0C6
:103060000E94182482E090E00E94EA2F8093BC0323
:1030700084E090E00E94EA2F90E09093A003809378
:103080009F0383E090E00E94EA2F682F70E080E0C9
:1030900090E00E9437260E94B21E0E94B21E0E943B
:1030A000C31E8EE091E09093A2038093A103FF24BE
:1030B000F39499249A94CC24C394D12C50E1452EB6
:1030C00062E1562E78E1A72EB12CE0E48E2E80919D
:1030D0000306853009F052C040E060E080E00E94C5
:1030E000BF1EF092CD0380910306843041F110920F
:1030F000A3030FB6F894A895A09260000FBE80922B
:10310000600040E060E080E00E94BF1EF092CD03CE
:1031100083B7817F846083BF83B7816083BF7894E6
:10312000889583B78E7F83BF0FB6F894A89580915A
:103130006000886180936000109260000FBE8091F3
:103140000206882309F4C3CF0E949C1090E090935C
:103150000D0180930C010E946B110E947A11E4EA28
:10316000F3E01192EE12FDCF0E948111E4EAF3E048
:1031700081918111F2C0EE12FBCFA9CF0E94811183
:10318000EDEBF3E0A4EAB3E000E010E0702F6D9106
:1031900021912627B1F180E090E030E0782EA9015E
:1031A000082E02C0559547950A94E2F740FF25C0C6
:1031B00089837A83C60102C0880F991F7A94E2F747
:1031C0003C01862F90E08621972121E0892B09F48C
:1031D00020E02B830E945F238160782F9D838C8366
:1031E00049815A816B818D810E94741DF801E354DD
:1031F000FC4F80816826608219C001968630910557
:1032000069F60F5F1F4F0E30110509F0BFCF9E8288
:103210009F8218860E945F238160782F9A87898712
:103220004E815F8168858A850E94741D8091B903F3
:103230009091BA030E9435239C019091B803992381
:1032400021F02431310508F47CC08091B403109141
:10325000B50381110BC0111194C02091B603211147
:1032600090C02091B70321118CC06BC09F3F19F013
:103270009F5F9093B803181624F40E9458228093FD
:10328000B4038091B40387FF05C00E945822819542
:103290008093B403111624F40E9458228093B5033E
:1032A0008091B50387FF05C00E94582281958093C5
:1032B000B5033091B403332301F12091B5032223E8
:1032C000E1F045EB3403C0011124892F990F990BCC
:1032D000009719F08093B40302C0F092B40335EB69
:1032E0002303C0011124892F990F990B009719F01E
:1032F0008093B50302C0F092B5038091B60318160F
:1033000024F40E9436228093B6038091B60387FF8F
:1033100005C00E94362281958093B6038091B70341
:10332000181624F40E9436228093B7038091B703C5
:1033300087FF05C00E94362281958093B7030E94C3
:103340006B231091BB030E94761E181709F4BFCEA1
:103350000E94761E8093BB03BACE49BC59BC09B407
:1033600000FEFDCF8091D8008F7D8093D8008091A2
:10337000E00082608093E0008091E00081FDFCCF5E
:10338000A6CE9F3F09F074CF7CCF8033910520F506
:10339000880F991F880F991FFC01E75DFE4F52812E
:1033A0003381808183707181E0E98E9FC001112497
:1033B000885F9B4FFC01E70FF11DB4976083FC0110
:1033C000E50FF11DB4974083830F911DFC01B49765
:1033D000208381E0809307040895FF920F931F9349
:1033E000CF93DF93182F062FF42EC0E0D0E02F2DBF
:1033F000402F612FCE010E94C5192196C033D105FF
:10340000B1F7DF91CF911F910F91FF9008950F9326
:103410001F9310E0F801EE0FFF1FEB51FD4F90815D
:10342000905797FD9195000F111FF801EA51FD4F3C
:10343000E081F0E0B097DF01AA0FBB1F8D010E0FF6
:103440001F1F2003D001219FB00D1124E8E3F0E0FD
:10345000E91BF10997FDF3959F01220F331F8901A5
:103460000E0F1F1F40039001419F300D11242A0FA2
:103470003B1F37FF02C021583F4F220F232F221F2F
:10348000330B620F1F910F9108950F931F93522FCB
:1034900010E0F801EE0FFF1FEA51FD4FE081F0E070
:1034A000B097EE0FFF1F9F015203D001539FB00D45
:1034B0001124000F111FF801EB51FD4F008110E0A6
:1034C00000571109000F111F40039001419F300D5B
:1034D00011242A0F3B1F37FF02C021583F4F220FF4
:1034E000232F221F330B620F1F910F9108950F930B
:1034F0001F93522F10E0F801EE0FFF1FEA51FD4F0E
:10350000E081F0E0B0979F015203D001539FB00DCE
:103510001124000F111FF801EB51FD4F008110E045
:103520000057110940039001419F300D11242A0FCB
:103530003B1F37FF02C021583F4F220F232F221F6E
:10354000330B620F1F910F910895EF920F931F930A
:1035500093E0099F80011124159507956E2D600F4A
:103560001F910F91EF90089550E0FA01EE0FFF1FA9
:10357000EA51FD4F9081905297FD9195440F551F50
:10358000FA01EB51FD4F408150E0FA01E21BF109D5
:103590009F01290F311D97FD3A95620F0895E42F81
:1035A000F0E0EE0FFF1FEA51FD4F6081621B0895AE
:1035B000E42FF0E0EE0FFF1FEB51FD4F6081621B27
:1035C0000895622F0895E42FF0E0EE0FFF1FEB51F6
:1035D000FD4F408134EE439F412D1124E82FF0E050
:1035E00050E0445E5F4FDA01A21BB1099D01B7FFB5
:1035F00003C031952195310993E0220F331F9A952D
:10360000E1F7AF01421B530B9A0157FF02C020E0C4
:1036100030E0582F259F212D1124822F0895E42F6B
:10362000F0E0EE0FFF1FEB51FD4F408134EE439F62
:10363000412D1124E72FF0E050E0445E5F4FDA01A6
:10364000A21BB1099D01B7FF03C031952195310936
:1036500093E0220F331F9A95E1F7AF01421B530B02
:103660009A0157FF02C020E030E0279F212D11244E
:10367000722F0895FC01CB01309721F477FF2CC005
:1036800080E808959F01F7FF04C0222733272E1BEF
:103690003F0BBC01621B730B280F391F97FD0DC038
:1036A000CB0145E0880F991F4A95E1F7B9010E94C7
:1036B000E23180E2861B682F09C0C90125E0880F2E
:1036C000991F2A95E1F70E94E231605A862FF7FF91
:1036D00002C081950895089580E00895EF920F93B8
:1036E000CF93DF93D72FC82FC9010E19BA010E94BB
:1036F0003A1B602F681B7D2F8C2FDF91CF910F918C
:10370000EF9008950F93CF93DF93D72FC82FC90160
:10371000BA010E943A1B682F600F7D2F8C2FDF911A
:10372000CF910F910895EF920F931F93CF93DF9353
:10373000D62FC72F182FC9010E19010FBA010E94E9
:103740003A1B081B019F012D11246D2F7C2F802F08
:10375000DF91CF911F910F91EF900895EF920F930A
:103760001F93CF93DF93D62F172FC82FC9010E19A0
:10377000070FBA010E943A1B081B702F719F712D11
:1037800011246D2F8C2FDF91CF911F910F91EF900E
:103790000895FF920F931F93CF93DF93F62ED72FA9
:1037A000182FC901C12FC01BBA010E943A1B982FC4
:1037B000880F980F2C2F291B219F212D11246F2D4D
:1037C0007D2F822FDF91CF911F910F91FF90089550
:1037D000FF920F931F93CF93DF93F62E172FD82FBF
:1037E000C901C72FC01BBA010E943A1B982F880F2E
:1037F000980FC91B7C2F719F712D11246F2D8D2F58
:10380000DF91CF911F910F91FF900895EF92FF925A
:103810001F93CF93DF937B01182F110FC0E0D0E0EF
:103820008C2F8C5D8093F30320E030E0F901EC0FE6
:10383000FD1FEE0DFF1D8081F901ED50FC4F8183CE
:103840002F5F3F4F2031310589F724E630E041E119
:1038500050E063EF73E0812F0E94AF2F6096C03974
:10386000D105F1F6DF91CF911F91FF90EF90089570
:1038700080910704882351F068E074E084E70E9497
:10388000061C68E974E087E70E94061C1092070492
:103890000895E3EFF3E06083418324E630E042E003
:1038A00050E0BF01880F0C94AF2FCF93DF93C82F48
:1038B0004BE06DEF0E94491C40E06AE08C2F0E94B3
:1038C000491C8FE39CE90197F1F700C0000040E03C
:1038D00060E08C2F0E94491C40E061E08C2F0E9428
:1038E000491C40E066E08C2F0E94491C40E06DEFCF
:1038F0008C2F0E94491CD0E040E06D2F8C2F0E943D
:10390000491CDF5FD231C1F740E06D2F8C2F0E9440
:10391000491CDF5FD432C1F740E06D2F8C2F0E942D
:10392000491CDF5FD43BC1F74BE06DEF8C2F0E9449
:10393000491C41E06AE08C2F0E94491C40E06DEF79
:103940008C2FDF91CF910C94491C7F928F929F9284
:10395000AF92BF92CF92DF92EF92FF920F931F939D
:10396000CF93DF930E94FD2E84E70E94551C87E7CA
:103970000E94551CECE2EE2EE1E0FE2EC12CD12C73
:10398000F2E17F2EA8E08A2E912CAA24A394B12CD8
:10399000F7013297608170E0CB0184973196E08126
:1039A000F0E0B497D7012C9130E024523109D601D0
:1039B000AA0FBB1FAA0FBB1FA75DBE4FCC91C37040
:1039C000D0E0AC0197FF02C0495F5F4F63E05595BF
:1039D00047956A95E1F77C9E80017D9E100D11242C
:1039E000040F111D02531C4FB4010E94E231A501C6
:1039F00002C0440F551F8A95E2F7CA01D8019C9175
:103A0000892B8C93CF01F7FD079653E09595879509
:103A10005A95E1F77C9E80017D9E100D1124080FC0
:103A2000111D02531C4FCF01B4010E94E231F50178
:103A300002C0EE0FFF1F8A95E2F7CF01D8019C91DB
:103A4000892B8C93C90137FD079643E0959587959F
:103A50004A95E1F77C9EF0017D9EF00D1124E80F60
:103A6000F11DE253FC4FC901B4010E94E2319501FE
:103A700002C0220F331F8A95E2F7C9019081892B7A
:103A800080833FEFC31AD30A44E0E40EF11C50E3F5
:103A9000C516D10409F07CCF81E08093F2030EECCF
:103AA00013E0C0E0D0E0D8014D918D016C2F84E788
:103AB0000E94491CFE01E253FC4F42896C2F87E7AC
:103AC0000E94491C2196C231D10569F7DF91CF913F
:103AD0001F910F91FF90EF90DF90CF90BF90AF902C
:103AE0009F908F907F900895EF92FF920F931F9376
:103AF000CF93DF93CDB7DEB767970FB6F894DEBFED
:103B00000FBECDBF4B8B5C8B6D8B7E8B8F8B0E89ED
:103B10001F8901151105C1F15F3F11F44F3FA1F15C
:103B2000E42EF12CA1E0B0E0042E01C0AA0F0A940B
:103B3000EAF7852F90E0662319F02091DD0506C095
:103B40009C01225D3A4FF90120812A232223A9F00A
:103B500046E0489F9001499F300D1124F701E20F84
:103B6000F31FEE0FFF1FE751FE4F40815181FC0113
:103B7000E25DFA4F9081A92B06C0FC01E25DFA4F8D
:103B8000A0958081A823A08386E0FE013D96DF01F9
:103B9000982F1D929A95E9F74D875E876F87198B4D
:103BA000088BDE01179601900D928A95E1F7CE0100
:103BB00007960E94CD26811137C086E0FE01379618
:103BC000DE01119601900D928A95E1F7FF81E8855B
:103BD0006A857B856115710539F1EF3F11F4FF3F6F
:103BE00019F12091620530E0C9010196877099278B
:103BF0004091930550E08417950779F1F983EA83A2
:103C00007D836C8396E0929FD001939FB00D112429
:103C1000AD59BA4FFE01319601900D929A95E1F798
:103C2000809362050E94412616E080919305909151
:103C30006205891711F1189FC00111248D599A4FFF
:103C40000E94CD268823C9F08091930590E00196CB
:103C50008770992780939305E8CF1092DE050E9424
:103C6000B2281092620510929305ECE5F5E086E02B
:103C7000DF011D928A95E9F7D7CF67960FB6F894C2
:103C8000DEBF0FBECDBFDF91CF911F910F91FF908F
:103C9000EF90089520912C0530912D058217930700
:103CA00071F090932D0580932C05E091A103F09184
:103CB000A203309721F00084F185E02D0994089546
:103CC00020912A0530912B058217930771F090936C
:103CD0002B0580932A05E091A103F091A203309770
:103CE00021F00680F781E02D09940895E091A10369
:103CF000F091A203309721F00190F081E02D09941A
:103D000080E00895CF93DF938091770390917803BB
:103D1000892B29F18091790390917A030E943523B0
:103D200020910701309108012817390760F4C091EC
:103D30007703D0917803D260CE010E945410CE0157
:103D40000E943E1004C0809177030E945B2A10926B
:103D50007A03109279031092780310927703DF911F
:103D6000CF91089580911506837011F41092090186
:103D7000809115068C7F81608093150608950C94C0
:103D8000ED190C94C51945E050E06CE170E085E157
:103D900096E00C94FE2FE5E1F6E0880F880F908105
:103DA0009370892B8083109209010C94C31E90910B
:103DB0001506892F86958695815C8F73937088236D
:103DC00021F0880F880F892B02C0892F806580938E
:103DD0001506109209010C94C31E90911506892FA7
:103DE000869586958F5F8F739370853120F4880F49
:103DF000880F892B02C0892F84608093150610924A
:103E000009010C94C31EE5E1F6E08DE28083118286
:103E10008FEF828383838FE784830C94C31E482FA4
:103E2000982F46FD9095E92FEF739F7046FD9F5F99
:103E3000E295EF70EE0FF0E0EF5DFE4F2181299FDC
:103E4000802D212D112482958F702295207F822B29
:103E50003081982F930F892F47FD819580580895C1
:103E6000BC018230910508F40895613E8EE1780727
:103E700048F49B0195E0369527959A95E1F748E03F
:103E8000420F01C04FEF91E0242F30E0290F311D88
:103E900035952795229FF001239FF00DF00D1124F9
:103EA0006E177F0718F44FEF420F05C02F3F310503
:103EB00039F091E0920F491738F78FEF890F089585
:103EC0008FEF08950F931F93CF93DF931F92CDB77A
:103ED000DEB7182F47FD4195E8E3F0E0CF01841BE2
:103EE000910947FD9395889FF001899FF00DF00D92
:103EF0001124229FC001239F900D900D11248E0F3D
:103F00009F1F79830E94301F982F880F980F692F69
:103F1000600F7981812F0F90DF91CF911F910F91C9
:103F2000089520E030E0A901869F412D969F400D25
:103F3000511D1124CA010895CF92DF92EF92FF9292
:103F40000F931F93CF93DF937B01282F382FE82FF8
:103F5000F0E0F11006C0EA57F94F6491762F862FF2
:103F60007BC00F2D10E046E0649FC0011124CFEF0D
:103F7000D0E0BE010E94CE31AB016BEA6403C00108
:103F8000659F900D11248E0D911D8E0D911D982F02
:103F9000990F890FBE01601B710B6E9FD0016F9F3F
:103FA000B00D7E9FB00D11249B2F8F9DB001112469
:103FB000672F77277E01E61AF70AEE9EB001EF9E83
:103FC000700DFE9E700D11246E01C81AD108C09E9E
:103FD0007001C19EF00CD09EF00C11240F2D112702
:103FE000C01BD10BCE9F8001CF9F100DDE9F100D07
:103FF0001124812F4230510591F04CF441155105A7
:10400000E1F041305105B9F4822F272F16C044301A
:10401000510569F044F04630510579F00CC0822F0B
:104020002B2F912F0AC02B2F932F872F06C08B2F5A
:10403000922F212F02C08B2F972FE22FF0E0EA570B
:10404000F94F7491E82FF0E0EA57F94F6491E92FA6
:10405000F0E0EA57F94F8491DF91CF911F910F91D2
:10406000FF90EF90DF90CF900895609189038CE0EE
:1040700090E00C940E3090919F0392FF0DC0282F7A
:104080002871283019F4877F846006C0282F247196
:10409000243011F48B7F886093FF0DC0282F287186
:1040A000283119F4877E846106C0282F24712431B9
:1040B00011F48B7E886194FD877E08950F931F9382
:1040C000CF93DF93C62FD42F022FFC018281882348
:1040D000C9F060937B030E945F239093290580932E
:1040E000280580E28C0F883008F050C0C77081E04E
:1040F00001C0880FCA95EAF7DF91CF911F910F9108
:104100000C94D02810917B03161330C080912805A1
:10411000909129050E943523883C910538F5C0E22D
:10412000CD0F1D17B9F080E2810F883040F4177071
:1041300081E001C0880F1A95EAF70E94C528C830AF
:1041400048F481E09D2F977001C0880F9A95EAF797
:104150000E94D028802F0E945B2AC830B8F4D77004
:1041600081E001C0880FDA95EAF70AC080E28C0F7F
:10417000883060F4C77081E001C0880FCA95EAF703
:10418000DF91CF911F910F910C94C528DF91CF91B2
:104190001F910F9108958091E0050895CF93DF93CB
:1041A00000D01F92CDB7DEB720910306243031F541
:1041B00023E02983805891099B838A8382E080933E
:1041C000E9008FEF9091E800815095FD06C095EDD4
:1041D0009A95F1F700008111F5CF8091E80085FFF5
:1041E0000DC040E050E063E070E0CE0101960E9417
:1041F000F12B8091E8008E778093E8000F900F906C
:104200000F90DF91CF9108950F931F93CF93DF937A
:1042100000D01F92CDB7DEB78C010E9442178230CA
:1042200011F0843021F584E089831B830A8382E0C6
:104230008093E9008FEF9091E800815095FD06C0D2
:1042400095ED9A95F1F700008111F5CF8091E80086
:1042500085FF0DC040E050E063E070E0CE010196C4
:104260000E94F12B8091E8008E778093E8000F90F8
:104270000F900F90DF91CF911F910F910895CF93E1
:10428000DF93EC010E944217823011F08430F9F480
:1042900082E08093E9009FEF8091E800915085FDD6
:1042A00006C085ED8A95F1F700009111F5CF809158
:1042B000E80085FF0CC040E050E066E070E0CE0111
:1042C0000E94F12B8091E8008E778093E800DF91C7
:1042D000CF910895CF93DF93EC010E944217823073
:1042E00011F08430D9F580911801882339F080913C
:1042F0009F0387FF03C060E282E002C068E081E0C4
:104300008093E9008FEF9091E800815095FD06C001
:1043100095ED9A95F1F700008111F5CF8091E800B5
:1043200085FF1CC080911801811105C040E050E05C
:1043300068E070E003C070E040E050E0CE010E9411
:10434000F12B8091E8008E778093E80080E2FE01F7
:10435000A1EEB5E001900D928A95E1F7DF91CF9142
:104360000895803F39F48091B50387FF6CC01092A7
:10437000B50369C0813F29F48091B5031816BCF3D9
:1043800062C09091B403823F29F497FF5CC0109201
:10439000B40359C0833F19F41916CCF354C0893FB4
:1043A00041F48091B60318160CF04DC01092B6037C
:1043B0004AC08A3F29F48091B60387FF44C0F6CFF4
:1043C0008B3F39F48091B70387FF3DC01092B7034C
:1043D0003AC08C3F29F48091B7031816BCF333C060
:1043E000843F21F48091B3038E7F17C0853F21F471
:1043F0008091B3038D7F11C0863F21F48091B30378
:104400008B7F0BC0873F21F48091B303877F05C06A
:10441000883F31F48091B3038F7E8093B30313C040
:104420008D3F21F48091DB058E7F0BC08E3F21F400
:104430008091DB058D7F05C08F3F29F48091DB05DE
:104440008B7F8093DB058091B40381110EC0809136
:10445000B50381110AC08091B603811106C0809115
:10446000B703811102C01092B80308958091DB0553
:1044700080FD16C081FD16C082FD18C08091B80372
:10448000882391F0883290F428E0829FC0011124A3
:1044900068E270E00E94E231862F672B29F007C0A6
:1044A00082E0089584E0089581E0089588E0089509
:1044B0008091DB0580FD17C081FD17C082FD19C00A
:1044C0008091B803882399F08C3398F423E2829F7B
:1044D000C00111246CE370E00E94E231862F672B4B
:1044E00049F481E0089588E0089581E1089585E028
:1044F000089583E20895803F21F40E945822819517
:1045000004C0813F29F40E9458228093B503089586
:10451000823F21F40E945822819504C0833F29F4F0
:104520000E9458228093B4030895893F19F40E9491
:10453000362205C08A3F31F40E943622819580934D
:10454000B60308958B3F21F40E943622819504C062
:104550008C3F29F40E9436228093B7030895843F4C
:1045600021F48091B303816017C0853F21F48091CD
:10457000B303826011C0863F21F48091B30384604D
:104580000BC0873F21F48091B303886005C0883F4A
:1045900031F48091B30380618093B30308958D3F1C
:1045A00021F48091DB0581600BC08E3F21F4809166
:1045B000DB05826005C08F3F29F48091DB058460B4
:1045C0008093DB05089578941F920F920FB60F9297
:1045D00011248F939F93AF93BF938091D7059091B0
:1045E000D805A091D905B091DA050196A11DB11D9C
:1045F0008093D7059093D805A093D905B093DA0599
:10460000BF91AF919F918F910F900FBE0F901F9010
:104610001895CF92DF92EF92FF920F931F932FB7CF
:10462000F894C090D705D090D805E090D905F090C7
:10463000DA052FBF97018601061B170B280B390BD4
:10464000C616D706E806F90618F0C901B80106C073
:10465000C901B80161507109810991091F910F9138
:10466000FF90EF90DF90CF900895CF92DF92EF927E
:10467000FF920F931F932FB7F8944091D705509155
:10468000D8056091D9057091DA052FBF6A017B01C9
:10469000EE24FF248C0120E030E0C016D106E206B3
:1046A000F30610F4415051099A01281B390BC90136
:1046B0001F910F91FF90EF90DF90CF9008952FB74B
:1046C000F8948091D7059091D805A091D905B09123
:1046D000DA052FBF0895E091A103F091A20330976E
:1046E00049F082E08093B2030480F581E02D82EBF3
:1046F00093E009950E945F239093BA038093B903D6
:1047000008951F920F920FB60F9211248F939F93CB
:10471000AF93BF938091A303811113C08091D705FC
:104720009091D805A091D905B091DA054196A11DC7
:10473000B11D8093D7059093D805A093D905B09368
:10474000DA05BF91AF919F918F910F900FBE0F909F
:104750001F90189520911801222321F020919F038A
:1047600027FD04C0FC013296089619C0262F269515
:10477000269526952E31C0F4FC01E20FF11D6770DD
:1047800081E090E001C0880F6A95EAF780959281F8
:104790008923828308953196E817F90729F020814B
:1047A0002613F9CF1082F7CF089520911801222304
:1047B00021F020919F0327FD05C0FC0132962FEFC9
:1047C00030E019C0262F2695269526952E3120F506
:1047D000FC01E20FF11D677081E090E001C0880FDD
:1047E0006A95EAF79281892B828308952F3F39F0E9
:1047F0003F5F363041F041914613F8CF0DC0411173
:10480000F7CF232FF5CF2F3F39F0FC01E20FF11D39
:1048100027FDFA9562830895089580E090E00E9454
:10482000F82F21E08E3E9E4F09F020E0822F089560
:104830006EEE7EEF80E090E00E942C3060E082E03F
:1048400090E00E940E3060E083E090E00E940E3025
:104850001092D3051092D4051092D5051092D6056A
:1048600060E084E090E00E940E3060E085E090E03F
:104870000E940E3060E086E090E00E940E306FEF04
:1048800087E090E00E940E3040E050E0BA0188E0FE
:1048900090E00E94203060E08DE090E00E940E30B9
:1048A00040E050E0BA0188E190E00E94203060E0F2
:1048B00087E190E00E940E3040E050E0BA018CE1C8
:1048C00090E00E94203060E080E290E00E940E3094
:1048D00010928D0310928E0310928F03109290030A
:1048E00084E0806180938D0340918D0350918E030D
:1048F00060918F03709190038FE090E00E942030D0
:1049000040E050E0BA0183E190E00C942030CF9277
:10491000DF92EF92FF926C01EE24FF24C114D104C8
:10492000E104F10421F0C701B60120E101C020E05B
:10493000C72ED82EE92EFF24C114D104E104F104BE
:1049400019F0285FC701B6016B017C0154E0F694B1
:10495000E794D794C7945A95D1F7C114D104E104D0
:10496000F10419F02C5FC701B6016B017C0142E034
:10497000F694E794D794C7944A95D1F7C114D1041B
:10498000E104F10419F02E5FC701B601DC01CB018F
:10499000B695A79597958795892B8A2B8B2B09F030
:1049A0002F5F822FFF90EF90DF90CF90089580913E
:1049B000D20581111092D20508959091D105809170
:1049C000DE05892B2091D005982F922B90933C05E2
:1049D0008091D2058823D9F0892B80933C05809162
:1049E0001801882331F080919F0387FF02C08EE178
:1049F00001C086E0EEE3F5E090E0815028F02191DF
:104A00002223D9F39F5FF9CF91110E94D724E0911F
:104A1000A103F091A2033097A9F080911801882397
:104A200059F080919F0387FF07C080913C058093D8
:104A30003D0585E080933C050280F381E02D8CE309
:104A400095E009940895BF92CF92DF92EF92FF9282
:104A50000F931F93CF93DF938C01C090D305D09019
:104A6000D405E090D505F090D6058091CB059091C6
:104A7000CC05A091CD05B091CE05C82AD92AEA2A45
:104A8000FB2ACFE1D0E0D701C6010C2E04C0B695B9
:104A9000A795979587950A94D2F780FF07C0BC2EFB
:104AA000B8018C2F0E94E30D019719F4219758F754
:104AB000B12C8B2DDF91CF911F910F91FF90EF9033
:104AC000DF90CF90BF900895CF93DF93EC010E94C9
:104AD0002325BE010E94E30DDF91CF910895292F78
:104AE000220F920F990F890F682F6695669566952C
:104AF000982F977085E0689FB001112440E050E046
:104B000080E0FA01E60FF71FEC56FA4F208130E003
:104B1000092E02C0369527950A94E2F721703327B3
:104B2000042E01C0220F0A94EAF7822B4F5F5F4FD9
:104B30004530510531F70895292F220F920F990F13
:104B4000890FA82FA695A695A695877051E001C05C
:104B5000550F8A95EAF785E0A89FD001112420E03F
:104B600030E070E0F901EA0FFB1FEC56FA4F40818C
:104B7000CB01022E02C0969587950A94E2F78170C8
:104B80009927819584278523842780832F5F3F4F32
:104B90002530310539F708950E946A106093CB05DE
:104BA0007093CC058093CD059093CE050C949728F7
:104BB0000F931F9341E050E060E070E004C0440FA9
:104BC000551F661F771F8A95D2F7409550956095BF
:104BD00070958091CB059091CC05A091CD05B091B9
:104BE000CE058A019B01082319232A233B23C901EF
:104BF000B8011F910F910C94CC252091CF05809581
:104C000082238093CF05982F977079F430E0482F56
:104C1000082E000C550B2417350739F0859585951E
:104C200085950E94D8251092CF0508950F931F9364
:104C300041E050E060E070E004C0440F551F661F83
:104C4000771F8A95D2F78091CB059091CC05A091E2
:104C5000CD05B091CE058A019B01082B192B2A2B7B
:104C60003B2BC901B8011F910F910C94CC25609387
:104C7000D3057093D4058093D5059093D6050C94F5
:104C800097288091930590916205891719F08F5F9D
:104C90008770FBCF08958091610582958F7009F030
:104CA00054C080915E05882309F44FC0809193051C
:104CB000A091620560915C0570915D0540915F0572
:104CC00050916005B6E08A1709F43FC090E04115A5
:104CD0005105C1F17F3F11F46F3FA1F1B89FF00181
:104CE000B99FF00D1124ED59FA4F218172132AC09A
:104CF0002081621327C02281211124C023813481A5
:104D00002417350710F421503109241B350B283C9A
:104D10003105C0F4209161052F7020612093610559
:104D200026E0289FF001299FF00D1124E859FA4F41
:104D300080818F70806180838CE595E00E94A6045D
:104D40000C94412601968770BECF08950E94642579
:104D5000292F2F7092959F70E92FF0E03297EE3057
:104D6000F105B8F4E956FF4F0C94F631803F99F005
:104D700018F4883E70F40FC0843F59F40CC0883E8C
:104D800050F0813F31F407C0822F86958695869535
:104D9000089580E0089581E00895BF92CF92DF9258
:104DA000EF92FF920F931F93CF93DF93CDB7DEB7B0
:104DB00061970FB6F894DEBF0FBECDBF8C0185E0C2
:104DC000F801DE011D9601900D928A95E1F7D80158
:104DD0003C9111962C9111971296EC901297139684
:104DE000CD90DC90149750915C0560915D058091A9
:104DF0005F0590916005009709F44FC16F3F19F46A
:104E00005F3F09F44AC1B0905E05BB2009F4ECC0D5
:104E100040916105C816D90628F0F601E81BF90B88
:104E2000CF0104C0809590958C0D9D1DFF24F394B7
:104E3000883C910548F0F12C407F09F09FC08CE53B
:104E400095E00E94A60421C1842F807F09F044C010
:104E5000621312C0531310C0E1100EC04F704061B6
:104E6000409361058CE595E00E94A6048091610560
:104E7000D80115968C932EC0CD2819F12F3F11F42F
:104E80003F3FF9F0FE2CE1101CC08091930540914A
:104E9000620556E0841709F458C090E0589FF0016D
:104EA000599FF00D1124ED59FA4F6181261306C068
:104EB0006081361303C06281611103C0019687705F
:104EC000E9CFFE2CEE2009F421C1809161058160BB
:104ED00080936105F12C1AC162130AC0531308C0F4
:104EE000E11006C080916105D80115968C93B0C081
:104EF0003D872E878D859E850E94A6268823D1F129
:104F0000EE20C1F120916105822F82958F7090E093
:104F1000029774F080915C0590915D0598878F836E
:104F20001986DB86CA862C87CE0107960E94A604C6
:104F300086E0F801ACE5B5E001900D928A95E1F7C5
:104F40000E944B26FF24F394E1C03D872E878D8578
:104F50009E850E946425292F22952F7030E02230F3
:104F600031050CF0C7C09F7009F0C1C0805E883069
:104F700008F4CCC0C8010E94A604E4CF621314C098
:104F8000531312C0E11010C080916105F8018583B0
:104F9000C8010E94A60486E0ECE5F5E0DF011D9261
:104FA0008A95E9F7FB2CB2C03D872E878D859E85BB
:104FB0000E94A6268823F1F2EE20E1F220916105FD
:104FC000822F82958F7090E002970CF4B1CF809180
:104FD0005C0590915D059A8389831B82DD82CC827A
:104FE0002E83CE010196A2CFC816D90638F0C81A72
:104FF000D90AB8ECCB16D10450F007C08095909533
:105000008C0D9D1D883C910510F0F12C3EC0FE2CAE
:10501000EE2009F4AFCF621327C0531325C02091AF
:10502000610520FD18C0822F82958F70482F50E0B7
:105030004115510581F0F80125834F30510541F0AC
:105040008F5F982F9295907F822F8F70892B858309
:10505000C8010E94A60486E0F801ACE5B5E0019025
:105060000D928A95E1F752C03D872E878D859E85EA
:105070000E94A62681115CCF80916105816080939A
:105080006105C8010E94A60441C0ECE5F5E086E098
:10509000DF011D928A95E9F739C0EE2009F46ACF45
:1050A0003D872E878D859E850E94A626F82E882313
:1050B00009F460CF86E0F801ACE5B5E001900D920F
:1050C0008A95E1F780915C0590915D050E946425C9
:1050D00092959F70963041F48091DD0591E089278B
:1050E0008093DD059093DC050E944B260FC0811153
:1050F0003DCF0CC0243031050CF03CCF9F7009F43B
:1051000035CFF8019581907F09F030CF8F2D6196D2
:105110000FB6F894DEBF0FBECDBFDF91CF911F91C8
:105120000F91FF90EF90DF90CF90BF900895109275
:10513000D1051092D0050E94DD24E2EBF3E086E079
:10514000DF011D928A95E9F71092B8031092DB05F2
:105150000E946B2380E090E00E94601E80E090E05F
:105160000C944A1E80911801882331F080919F038E
:1051700087FF02C08EE101C086E0EEE3F5E0DF01CB
:105180001D928A95E9F70C949728882341F0809521
:105190009091DE0589238093DE050C94DD2408952B
:1051A000882339F09091DE05892B8093DE050C94DD
:1051B000DD240895882309F463C0823869F40E94CD
:1051C000761E81FF5DC069E38CE395E00E94D523E4
:1051D0000E94DD2469E30EC0833891F40E94761E9C
:1051E00080FF4EC063E58CE395E00E94D5230E94CA
:1051F000DD2463E58CE395E00E94AA230C94DD2472
:10520000843869F40E94761E82FF3AC067E48CE31A
:1052100095E00E94D5230E94DD2467E4EBCF9CEF4C
:10522000980F913A10F4682FE5CF90E2980F9830DC
:1052300088F4877021E030E0A90102C0440F551FB7
:105240008A95E2F7CA0180959091DE0589238093C3
:10525000DE05D4CF9BE5980F933020F480E090E0FA
:105260000C94601E98E5980F973120F480E090E050
:105270000C944A1E803F20F00E94B1210C946B23B5
:105280000895882309F416C18238B1F40E94761E6D
:1052900081FD10C169E38CE395E00E94D5230E9453
:1052A000DD242FEF41EE54E0215040405040E1F723
:1052B00000C0000069E317C08338D9F40E94761E4D
:1052C00080FDF8C063E58CE395E00E94D5230E9441
:1052D000DD248FEF91EE24E0815090402040E1F7F3
:1052E00000C0000063E58CE395E00E94AA230C94C3
:1052F000DD248438B1F40E94761E82FDDBC067E4B1
:105300008CE395E00E94D5230E94DD244FEF51EEFF
:1053100084E0415050408040E1F700C0000067E465
:10532000E2CF9CEF980F913A30F4682F8CE395E030
:105330000E94D523DCCF90E2980F983080F48770DC
:1053400021E030E0A90102C0440F551F8A95E2F721
:10535000CA019091DE05892B8093DE05C8CF9BE5BD
:10536000980F933070F4853A29F0863A31F083E84B
:1053700090E005C081E890E002C082E890E00C94E3
:10538000601E98E5980F973108F08EC0883A09F4AE
:1053900045C0893A09F445C08A3A09F445C08B3AB8
:1053A00009F445C08C3A09F445C08B3B09F445C06B
:1053B0008C3B09F445C08D3A09F445C0803B09F4A3
:1053C00045C08E3A09F445C08F3A09F445C0813B87
:1053D00009F445C0823B09F445C0833B09F445C04C
:1053E000843B09F445C0853B09F445C0863B09F47C
:1053F00045C0873B09F445C0883B09F445C0893B5B
:1054000009F445C08D3B09F445C08E3B09F445C005
:105410008A3B09F445C080E090E044C082EE90E011
:1054200041C089EE90E03EC08AEE90E03BC085EB43
:1054300090E038C086EB90E035C083EB90E032C05E
:1054400084EB90E02FC087EB90E02CC08CEC90E0D8
:1054500029C08DEC90E026C083E891E023C08AE863
:1054600091E020C082E991E01DC084E991E01AC07A
:1054700081E292E017C083E292E014C084E292E0FD
:1054800011C085E292E00EC086E292E00BC087E296
:1054900092E008C08FE690E005C080E790E002C08F
:1054A0008AE292E00C944A1E803F20F00E947B2208
:1054B0000C946B230895CF93C82F0E944129C933C0
:1054C00049F42FEF87EE93E0215080409040E1F7C0
:1054D00000C000008C2FCF910C94DA289F92AF92DD
:1054E000BF92CF92DF92EF92FF920F931F93CF93D1
:1054F000DF936C0180911901C82FCC0FCC0FC80F1E
:10550000D5E0DC0FD13308F0D0E360911906669541
:10551000669580910D0690910E060E94911F182F9E
:1055200080E4810F0E940F1F90E8F92EF80E812F62
:105530000E940F1F20E8922E980ECD1700F5AC2E7A
:10554000B12CF501EB5BFC4F808190911A019823FF
:10555000A1F0609116067091170680911806E12E51
:105560000C2F292D4F2DF60109950E949C1F462FC7
:10557000282F672FC5010E94C11ECF5FDECF81E0BB
:10558000D03308F080E0DF91CF911F910F91FF9011
:10559000EF90DF90CF90BF90AF909F9008956F9263
:1055A0007F928F929F92AF92BF92CF92DF92EF92B3
:1055B0000F931F93CF93DF934C0180911901C82F54
:1055C000CC0FCC0FC80FD5E0DC0FD13308F0D0E3FF
:1055D00060911906669580910D0690910E060E94C5
:1055E000911F182FCD1708F044C06C2E712CF301B9
:1055F000EB5BFC4F908180911A018923C1F1F3018B
:10560000EE0FFF1FEB51FD4FC080D12C80E7C81A71
:10561000D108F301EE0FFF1FEA51FD4FA080B12C1E
:10562000E0E2AE1AB108CC9C9001CD9C300D300D5B
:105630001124AA9CC001AB9C900D900D1124820FE7
:10564000931F0E94301F082F609116067091170655
:1056500080911806E12E9501A601F40109950E949A
:105660009C1F462F282F672FC3010E94C11ECF5FAA
:10567000B9CF81E0D03308F080E0DF91CF911F9166
:105680000F91EF90DF90CF90BF90AF909F908F9051
:105690007F906F900895CF92DF92EF92FF920F93D9
:1056A0001F93CF93DF937C0180911901C82FCC0FFA
:1056B000CC0FC80FD5E0DC0FD13308F0D0E36091F8
:1056C0001906669580910D0690910E060E94911F15
:1056D000182FCD1778F5CC2ED12CF601EB5BFC4FB3
:1056E000908180911A01892319F1F601EE0FFF1FB5
:1056F000EA51FD4F208130E020523109F601EE0FD2
:10570000FF1FEB51FD4F408150E040575109609120
:1057100016067091170680911806012FF70109955A
:105720000E949C1F462F282F672FC6010E94C11E72
:10573000CF5FCFCF81E0D03308F080E0DF91CF9111
:105740001F910F91FF90EF90DF90CF900895DF921F
:10575000EF92FF920F931F93CF93DF937C01909171
:105760001901C92FCC0FCC0FC90FD5E0DC0FD133F5
:1057700008F0D0E3609119066695669580910D0654
:1057800090910E060E94911FD82ECD17F0F40C2F89
:1057900010E0F801EB5BFC4F808190911A01982397
:1057A00091F06091160670911706809118062D2DC4
:1057B0004C2FF70109950E949C1F462F282F672F19
:1057C000C8010E94C11ECF5FE0CF81E0D03308F056
:1057D00080E0DF91CF911F910F91FF90EF90DF90CC
:1057E0000895CF92DF92FF920F931F93CF93DF9391
:1057F0001F92CDB7DEB7F82E8B0199830E941B153F
:10580000998181111CC0CF2CD92E01151105B1F041
:105810008091E80085FD0AC08091E8008E77809332
:10582000E8000E941B15882381F309C0F6018191CD
:105830006F018093F10001501109E7CF80E00F90D4
:10584000DF91CF911F910F91FF90DF90CF9008953E
:105850001F93CF93DF93CDB7DEB7AA970FB6F89417
:10586000DEBF0FBECDBFE5E0F6E088E08E0F909181
:10587000F10091938E13FBCF80910606833009F4DB
:1058800060C030F4813071F0823009F49CC0B3C044
:105890008A3009F488C08B3009F46BC0893009F074
:1058A000AAC020C080910506813A09F0A4C0809169
:1058B000E800877F8093E8008091090690910A06AE
:1058C000892B21F460E281EE95E003C060E080E086
:1058D00090E070E00E94DF168091E8008B77809363
:1058E000E80089C080910506813209F084C080916A
:1058F000090690910A06029708F07DC08091E800A1
:10590000877F8093E8008091E80082FD05C0809148
:1059100003068111F8CF6FC02091F3008091F2004F
:1059200090E0922B029729F48091F1008B7F8130D7
:1059300021F48091F1008093E0058091E8008B775D
:1059400056C080910506813A09F055C0809109063C
:1059500090910A06892B09F04EC08091E800877F5C
:105960008093E8008091E80080FFFCCF80911801CF
:1059700039C0809105068132F1F580910906909138
:105980000A06892BC1F58091E800877F8093E800A3
:105990000E944D1580910706809318011092DE0534
:1059A0000E94B22828C080910506813221F580919D
:1059B000E800877F8093E8000E944D1580910806DB
:1059C0008093DF0518C080910506813AA1F480918B
:1059D000E800877F8093E8008091E80080FFFCCF9B
:1059E0008091DF058093F1008091E8008E778093AD
:1059F000E8000E944D158091E80083FFD6C1809198
:105A0000050690910606492F50E04A30510508F0EE
:105A1000CCC1FA01EB55FF4F0C94F631803821F0E0
:105A2000823809F0C2C108C0809101069091020637
:105A3000992389F082600FC0809109068F708730AA
:105A400008F0B3C18093E9008091EB0085FB8827C3
:105A500080F91092E9009091E800977F9093E80018
:105A60008093F1001092F10074C1282F2D7F09F06E
:105A70009CC1882319F0823061F097C1809107069C
:105A8000813009F092C1933009F080E080930206E2
:105A90002EC08091070681112AC0809109068F705F
:105AA0002FEF280F263008F080C18093E900209165
:105AB000EB0020FF1CC0933021F48091EB0080624A
:105AC00014C09091EB0090619093EB0021E030E0E6
:105AD000A90102C0440F551F8A95E2F74093EA00DE
