:100000000C9423040C9440040C9440040C9440047D
:100010000C9440040C9440040C9440040C94400450
:100020000C9440040C9440040C948C190C944819C2
:100030000C94D62B0C9440040C9440040C94400473
:100040000C9440040C9440040C9440040C94400420
:100050000C9440040C94691A0C9440040C944004D1
:100060000C9440040C9440040C9440040C94400400
:100070000C9440040C9440040C9440040C944004F0
:100080000C9440040C9440040C9440040C944004E0
:100090000C9440040C9440040C9440040C944004D0
:1000A0000C9440040C9440040C9440047A9DD67A3D
:1000B0009DD67A9DD67A9DD67A9DD67A9DD67A9D02
:1000C000D67A9DD67A9DD67A9DD67A9DD67A9DD6B9
:1000D0007A9DD67A9DD67A9DD67A9DD67A9DD67A05
:1000E0009DD67A9DD67A9DD67A9DD67A9DD67A9DD2
:1000F000D67A9DD67A9DD67A9DD67A9DD67A9DD689
:100100007A9DD67A9DD67A9DD67A9DD67A9DD67AD4
:100110009DD67A9DD67A9DD67A9DD67A9DD67A9DA1
:10012000D67A9DD67A9DD67A9DD67A9DD67A9DD658
:100130007A9DD67A9DD67A9DD67A9DD600DCE0004F
:10014000DCE000DCE000DCE000DCE000DCE000DC27
:10015000E000DCE000DCE000DCE000DCE000DCE013
:1001600000DCE000DCE000DCE000DCE000DCE000E3
:10017000DCE000DCE000DCE000DCE000DCE000DCF7
:10018000E000DCE000DCE000DCE000DCE000DCE0E3
:1001900000DCE000DCE000DCE000DCE000DCE000B3
:1001A000DCE000DCE000DCE000DCE000DCE000DCC7
:1001B000E000DCE000DCE000DCE000DCE000DCE0B3
:1001C00000DCE000DCE000DCE000DCE058AAAB583A
:1001D000AAAB58AAAB58AAAB58AAAB58AAAB58AA14
:1001E000AB58AAAB58AAAB58AAAB58AAAB58AAAB03
:1001F00058AAAB58AAAB58AAAB58AAAB58AAAB5846
:10020000AAAB58AAAB58AAAB58AAAB58AAAB58AAE3
:10021000AB58AAAB58AAAB58AAAB58AAAB58AAABD2
:1002200058AAAB58AAAB58AAAB58AAAB58AAAB5815
:10023000AAAB58AAAB58AAAB58AAAB58AAAB58AAB3
:10024000AB58AAAB58AAAB58AAAB58AAAB58AAABA2
:1002500058AAAB58AAAB58AAAB58AAAB00010101E7
:100260000101010101010202020202020202020373
:100270000303030303030304040404040404050543
:100280000505050606060606070707070708080806
:1002900008090909090A0A0A0B0B0B0C0C0C0D0DB5
:1002A0000D0E0E0E0F0F0F1010111111121213134D
:1002B0001414151516161717181819191A1A1B1BC6
:1002C0001C1D1D1E1E1F2020212222232424252622
:1002D00026272829292A2B2C2D2D2E2F303132325A
:1002E000333435363738393A3B3C3D3E3F40414266
:1002F000434445464748494A4C4D4E4F505153544C
:10030000555658595A5B5D5E5F61626465666869FF
:100310006B6C6D6F7072737577787A7B7D7E80827F
:10032000838587888A8C8E8F91939596989A9C9EC8
:10033000A0A2A3A5A7A9ABADAFB1B3B5B7BABCBED8
:10034000C0C2C4C6C9CBCDCFD1D4D6D8DBDDDFE2A5
:10035000E4E7E9EBEEF0F3F5F8FAFDFF2D002C08E9
:10036000296FE100354100001E00140004001D61EA
:100370003400E0001F001A0016001B000E5D2A006A
:100380002000080007000600AC002C00210015002A
:1003900009001900AB00E200220017000A00050066
:1003A0000000E302085D010000002C090000E300EA
:1003B000005C0100000001000000AE0023001C00F2
:1003C0000B00110000003508240018000D0010007B
:1003D000BD00A90025000C000E003600BE0028005C
:1003E000260012000F0037002F002B0027001300FB
:1003F000334238713000AA002E0031003468E50025
:10040000015100002900010001000100010000006D
:100410003A001E022002220201000D5D3B00210273
:10042000310223020100C95C3C002F022D002F0085
:100430000100CA5C3D0030022E00300001000D5D5D
:100440003E003102350035020000C35C01000100AE
:100450000000010000000C5D01000100000001002F
:100460000000C25C3F0052005100240200000B5DFE
:100470004000240021001E00010001004100250071
:1004800022001F003700C55C420026002300200028
:100490002700C65C430025022E0231002E00010019
:1004A00044004500010001000100000001000100BE
:1004B0000100010001000000010001004F080100DF
:1004C000010001000100010001004C0001000100D9
:1004D00001004F0401004F0A01000100010001006A
:1004E00001000100010001000100010001005004B1
:1004F00000000100010001000000010000000100F7
:1005000001000100000001000000010001000608D8
:1005100050000A080000010001001D085100010000
:100520000100010001001050520001000100010013
:10053000010001004F0001000100010050081908EE
:100540000100090801000100010001000100010093
:10055000010000000000000000000000000000009A
:1005600000000000000000007E0F00D4FFFFFFC766
:100570000000007800000000000000002A2B280086
:100580000000000000000000000000000000002942
:10059000000000002C1E3420212224342627252E82
:1005A000362D3738271E1F202122232425263333BA
:1005B000362E37381F0405060708090A0B0C0D0EE6
:1005C0000F101112131415161718191A1B1C1D2FB2
:1005D0003130232D350405060708090A0B0C0D0ED2
:1005E0000F101112131415161718191A1B1C1D2F92
:1005F0003130354C0102E30101370103E3000A0009
:10060000000000000306B200080001000000A8007E
:10061000080002000200A0001400030057494E55D4
:1006200053420000000000000000000084000400AD
:1006300007002A0044006500760069006300650039
:1006400049006E007400650072006600610063007E
:100650006500470055004900440073000000500049
:100660007B0039004400420037004600310046005C
:1006700044002D0037004500370041002D003400B4
:100680003000300038002D003900330036004200C1
:100690002D00360042004100360043003100390091
:1006A000410033003000380063007D00000000008E
:1006B0001B0301636F6E6669677572652E657267ED
:1006C0006F646F782D657A2E636F6D000501098068
:1006D000A10185031A81002A830016010026030068
:1006E000950175108100C0050C0901A10185041A4E
:1006F00001002A9C02160100269C029501751081BA
:1007000000C005010906A1018505050719E029E7D3
:10071000150025019508750181020507190029EFCB
:100720001500250195F075018102050819012905BB
:10073000950575019102950175039101C0050109A7
:1007400006A101050719E029E7150025019508759F
:100750000181029501750881010507190029FF151E
:100760000026FF0095067508810005081901290576
:10077000950575019102950175039101C009025219
:1007800000030100A0FA09040000010301010009AF
:1007900021110100012240000705810308000A0918
:1007A0000401000103000000092111010001227170
:1007B000000705820320000A0904020002FF00006E
:1007C00000070583034000050705040340000512E8
:1007D00001100200000008EDFE07130100010203F2
:1007E0000104033000000016034500720067006F2B
:1007F0000064006F007800200045005A00000008E7
:10080000035A0053004100000004030904050F3996
:1008100000021C100500DF60DDD88945C74C9CD262
:10082000659D9E648A9F00000306B2004500181073
:10083000050038B60834A909A0478BFDA0768815B5
:10084000B6650001420011241FBECFEFDAE0DEBF23
:10085000CDBF13E0A0E0B1E0E2E0F1E602C0059018
:100860000D92AE3AB107D9F726E0AEEAB3E001C087
:100870001D92AD34B207E1F70E943A290C942A3058
:100880000C940000E8EDF0E080818E7F8083109270
:10089000E2001092DA001092E100A0EEB0E08C913C
:1008A00081608C9380818F77808319BCA7EDB0E045
:1008B0008C918E7F8C9380818F7E808310920C062A
:1008C00008952091E4003091E50095E6A90120917A
:1008D000EC00822F817020FF06C08091E80080FF2D
:1008E00006C080E008952091E80022FD1AC08091A2
:1008F0003206882389F0853089F08091EB0085FDF0
:100900000FC02091E4003091E50042175307F9F23F
:100910009150E1F684E0089582E0089583E008951F
:1009200081E00895EF92FF920F931F93CF937C0184
:100930008B010E946104C82F882371F08C2FCF9106
:100940001F910F91FF90EF900895F70181917F0122
:100950008093F100015011090115110579F380917F
:10096000E80085FDF2CF8091E8008E778093E80063
:100970000E946104882381F3C82FE0CF8091340660
:1009800087FF13C08091E80082FF06C08091E800D5
:100990008B778093E80004C0809132068111F2CFFA
:1009A0000895809132068823D9F38091E80080FF72
:1009B000F8CF8091E8008E77ECCF982F9093E900E4
:1009C000242F762F50E0891731F07091EC002091A0
:1009D000ED005091F00021FD07C09F5F973071F747
:1009E0008093E90081E008953091EB003E7F3093E1
:1009F000EB003091ED003D7F3093ED003091EB0046
:100A000031603093EB007093EC002093ED00509335
:100A1000F0002091EE0027FDE0CF80E00895CF9216
:100A2000DF92EF92FF920F931F93CF93DF93C8ED66
:100A3000D0E088818F7E8883E7EDF0E0808181605F
:100A4000808384E082BF81E080930C0688818E7F62
:100A5000888302EE10E0F80110821092DA0081EE35
:100A6000C82ED12CF601108288818F7788838881E7
:100A70008068888388818F7D888319BC10923206B4
:100A800010923306109231061092300690EEE92E45
:100A9000F12CF70180818B7F80838881816088833E
:100AA00042E060E080E00E94DD04F60180818E7FFC
:100AB0008083F80180818160808380818860808369
:100AC000F70180818E7F8083888180618883DF91B8
:100AD000CF911F910F91FF90EF90DF90CF900895ED
:100AE000FC0180913A0690913B0686179707A0F08B
:100AF0006115710529F48091E8008E778093E800F4
:100B000090E06115710551F4911108C08091E800E1
:100B100082FF35C080E00895BC01F2CF809132069B
:100B20008823C9F18530C9F18091E80083FD31C087
:100B30008091E80082FDEACF8091E80080FFE1CF5C
:100B40008091F3002091F200382F6115710519F0A2
:100B50002830310558F091E02830310509F090E057
:100B60008091E8008E778093E800CBCF84918093CA
:100B7000F1003196615071092F5F3F4FE6CF8091B0
:100B80003206882341F0853041F08091E80083FFF0
:100B9000BDCF81E0089582E0089583E00895FC01CF
:100BA00080913A0690913B0686179707A0F0611551
:100BB000710529F49091E8009E779093E80090E009
:100BC0006115710551F4911108C08091E80082FF10
:100BD00034C080E00895BC01F2CF809132068823B2
:100BE000C1F18530C1F18091E80083FD30C0809172
:100BF000E80082FDEACF8091E80080FFE1CF80919C
:100C0000F3002091F200382F6115710519F028309A
:100C1000310558F091E02830310509F090E020913D
:100C2000E8002E772093E800CBCF81918093F100EC
:100C3000615071092F5F3F4FE7CF809132068823C3
:100C400041F0853041F08091E80083FFBECF81E024
:100C5000089582E0089583E00895089580910F0635
:100C6000089520913206243099F423E02093E9007E
:100C700070E050E040E00E949204882321F010923E
:100C80000A0610920B068091E8008E778093E800A8
:100C90000895CF92DF92EF92FF926C01EE24FF2431
:100CA00020E0C114D104E104F10419F0C701B60138
:100CB00020E1C72ED82EE92EFF24C114D104E1046F
:100CC000F10419F0285FC701B6016B017C0154E003
:100CD000F694E794D794C7945A95D1F7C114D104E8
:100CE000E104F10419F02C5FC701B6016B017C012E
:100CF00042E0F694E794D794C7944A95D1F7C1148B
:100D0000D104E104F10419F02E5FC701B6019695F4
:100D1000879577956795672B682B692B09F02F5F6F
:100D2000822FFF90EF90DF90CF9008958091C105C2
:100D300081111092C10508958091C0059091BF0561
:100D4000892B9091BE05892B8093AE039091C105AC
:100D50009923A1F0892B8093AE03809115018823FC
:100D600041F18091E20587FF24C08EE1E0EBF3E0E2
:100D700090E0815000F591110E949606E091E40503
:100D8000F091E5053097E1F080911501882359F045
:100D90008091E20587FF07C08091AE038093AF0387
:100DA00085E08093AE030280F381E02D8EEA93E02C
:100DB000099486E0DBCF21912223D9F29F5FD9CF1E
:100DC0000895909115019923D1F09091E20597FF34
:100DD00016C0E82FE695E695E695EE31E0F4F0E0F2
:100DE000E255FC4F282F277081E090E001C0880F6A
:100DF0002A95EAF780959281892382830895E0EB12
:100E0000F3E09191891303C0DF0111971C9293E0E5
:100E1000E63BF907B1F70895909115019923C1F0C8
:100E20009091E20597FF14C0E82FE695E695E695C8
:100E3000EE31F8F4F0E0E255FC4F877021E030E04D
:100E400001C0220F8A95EAF78281822B828308955E
:100E5000A0EBB3E0EFEF90E02D91821751F0EF3F60
:100E600019F4211101C0E92F9F5F9630A9F7EF3FD8
:100E700009F408950E2E000CFF0BE255FC4FE6CF4F
:100E8000E92FEE0FE90FEE0F8E0F982F97708695D2
:100E90008695869525E0829FF0011124EA57FA4F46
:100EA00050E040E080E0219130E0092E02C036950C
:100EB00027950A94E2F721703327042E01C0220FF0
:100EC0000A94EAF7822B4F5F5F4F4530510559F77F
:100ED0000895E92FEE0FE90FEE0F8E0F982F977000
:100EE00041E001C0440F9A95EAF78695869586956C
:100EF00095E0899FF0011124EA57FA4F30E020E095
:100F000070E05191DF011197CB01022E02C096953E
:100F100087950A94E2F78170819585278423852738
:100F20008C932F5F3F4F2530310559F708958091FD
:100F3000850590915405981301C008958F5F8770BF
:100F4000FACF882341F080959091BF058923809343
:100F5000BF050C949C060895882339F09091BF0535
:100F6000982B9093BF050C949C060895882341F01C
:100F700080959091C00589238093C0050C949C06B0
:100F80000895882339F09091C005982B9093C0055F
:100F90000C949C0608952091390530913A05281744
:100FA000390771F090933A0580933905E091E40593
:100FB000F091E505309721F00084F185E02D09944A
:100FC000089520913705309138052817390771F0B9
:100FD0009093380580933705E091E405F091E5059D
:100FE000309721F00680F781E02D09940895109242
:100FF000BF051092BE050E949C0690E080E00E9412
:10100000E10790E080E00C94CB076093C2057093F9
:10101000C3058093C4059093C5050C94F707E09130
:10102000E405F091E505309721F00190F081E02D85
:10103000099480E00895882309F452C0823871F43D
:101040000E940F0881FF4CC089E30E940C070E9498
:101050009C0689E30E94E1060C949C06833859F4AF
:101060000E940F0880FF3CC083E50E940C070E948D
:101070009C0683E5EFCF843859F40E940F0882FF65
:101080002FC087E40E940C070E949C0687E4E2CFF1
:101090009CEF980F913AF0F290E2980F983088F414
:1010A000877021E030E0A90102C0440F551F8A95E6
:1010B000E2F7CA0180959091C00589238093C0050D
:1010C000CBCF9BE5980F933020F490E080E00C9418
:1010D000E107885A873120F490E080E00C94CB0738
:1010E0000895FA01811101C0FB0109948033910533
:1010F00038F5880F991F880F991FFC01E05DFE4F9E
:101100005281338180818370E181A82FB0E070E942
:10111000879FC001112481519C4FE80FF92FF11DC9
:10112000B4976083FC01E50FF11DB4974083830FF2
:10113000911DFC01B4972083A351BC4F81E08C9397
:101140000895FF920F931F93CF93DF93182F062FCD
:10115000F42ED0E0C0E02F2D402F612FCE010E9451
:1011600076082196C033D105B1F7DF91CF911F9159
:101170000F91FF90089580914406837011F41092AE
:101180000801809144068C7F816080934406089515
:101190000C94A1080C9476080F931F9310E0F801AB
:1011A000EE0FFF1FE35EFC4F9081905797FD9195E6
:1011B000000F111FF801E25EFC4F00810052110B7D
:1011C0002003F001219FF00D112408E310E0091B1A
:1011D000110997FD139540039001419F300D112493
:1011E000E20FF31F9F01220F331F2E0F3F1F37FF08
:1011F00002C021583F4F220F232F221F330B620FB3
:101200001F910F9108950F931F93522F10E0F80133
:10121000EE0FFF1FE25EFC4FA081A052BB0B9D01B1
:101220005203F001539FF00D1124000F111FD8013C
:10123000A35EBC4F0C910057110B40039001419FDE
:10124000300D11242E0F3F1F37FF02C0215C3F4F8E
:1012500096E0359527959A95E1F7620F1F910F91CA
:1012600008950F931F93522F10E0F801EE0FFF1F08
:10127000E25EFC4FA081A052BB0B9D015203F00126
:10128000539FF00D1124000F111FD801A35EBC4F16
:101290000C910057110B40039001419F300D112418
:1012A0002E0F3F1F37FF02C021583F4F220F232F21
:1012B000221F330B620F1F910F910895EF920F932E
:1012C000972F23E0029FB0011124759567956E0D4D
:1012D000792F0F91EF900895322F50E0FA01EE0F21
:1012E000FF1FE25EFC4F9081905297FD9195440F55
:1012F000551FFA01E35EFC4F2081231B330B290F9E
:10130000311D97FD3A95620F0895E42FF0E0EE0F3E
:10131000FF1FE25EFC4F6081621B0895E42FF0E046
:10132000EE0FFF1FE35EFC4F6081621B0895622F8A
:101330000895E42FF0E0EE0FFF1FE35EFC4F4081C5
:1013400034EE439F412D1124E82FF0E050E0445E3D
:101350005F4FDA01A21BB1099D01B7FF03C03195B0
:101360002195310993E0220F331F9A95E1F7AF01E0
:10137000421B530B9A0157FD20E0582F259F212D2A
:101380001124822F0895E42FF0E0EE0FFF1FE35E9B
:10139000FC4F408134EE439F412D1124E72FF0E0B4
:1013A00050E0445E5F4FDA01A21BB1099D01B7FF17
:1013B00003C031952195310993E0220F331F9A958F
:1013C000E1F7AF01421B530B9A0157FD20E0279F25
:1013D000212D1124722F0895FC019B01009729F4FF
:1013E00080E077FF2BC080E80895AC0197FF04C030
:1013F00044275527481B590BB901640F751F37FD4A
:1014000010C0241B350BC901A5E0880F991FAA95B0
:10141000E1F70E94F12C80E2861BF7FF0FC0819557
:101420000895CB0165E0880F991F6A95E1F7BA012D
:10143000621B730B0E94F12C80E6EECF0895EF92B1
:101440000F93CF93DF93D72FC82FC9010E19BA017D
:101450000E94EC09602F681B7D2F8C2FDF91CF91AC
:101460000F91EF9008950F93CF93DF93D72FC82F4D
:10147000C901BA010E94EC09682F600F7D2F8C2FE3
:10148000DF91CF910F910895EF920F931F93CF9318
:10149000DF93D62FC72F182FC9010E19010FBA01DC
:1014A0000E94EC09081B202F219F212D1124822F3F
:1014B0006D2F7C2FDF91CF911F910F91EF900895A9
:1014C000EF920F931F93CF93DF93D62F172FC82F31
:1014D000C9010E19070FBA010E94EC09702F781B81
:1014E000719F712D11246D2F8C2FDF91CF911F9142
:1014F0000F91EF9008950F931F93CF93DF93D62F03
:10150000C72F182FC901212F201B022FBA010E94BB
:10151000EC09982F990F990F891B800F282F219F75
:10152000212D1124822F6D2F7C2FDF91CF911F91C0
:101530000F9108950F931F93CF93DF93D62F172FFB
:10154000C82FC901272F201B022FBA010E94EC09C6
:10155000982F990F990F782F791B700F719F712D0C
:1015600011246D2F8C2FDF91CF911F910F91089532
:10157000E82F86FDE0952E2F2F7086FD2F5FE695D4
:10158000E695E695E670F0E0E85DFE4F9181929F6A
:10159000902D212D112492959F702295207F922BC2
:1015A0002081920F87FD919580E8890F0895AC0105
:1015B0008230910508F408959FEF413E8EE158076F
:1015C00040F49A0195E0369527959A95E1F798E0D1
:1015D000920F61E0E62FE90FFF27FF1F9F0135956E
:1015E0002795822F229FF001239FF00DF00D1124EB
:1015F0004E175F0738F49FEF920F961758F78FEF4B
:10160000860F08952F3FE9F361E0620FF6CF0F9345
:10161000CF93DF93D72FC82F47FD419588E390E004
:10162000841B910947FD9395889FB001899F700D98
:10163000700D1124229FC001239F900D900D112445
:10164000860F971F0E94D70A982F990F890F682F2E
:10165000600F7D2F8C2FDF91CF910F91089530E097
:1016600020E0869F212D969F200D311D1124C90158
:101670000895AF92BF92CF92DF92FF920F931F9384
:10168000CF93DF93362F472FE82FF0E0E45AFD4F3A
:1016900071110DC06491762F862FDF91CF911F912C
:1016A0000F91FF90DF90CF90BF90AF900895C72F1C
:1016B000D0E02491F22E022F10E056E0659FC00189
:1016C0001124EFEFF0E0BF010E94DD2C832F90E0AA
:1016D000880F991F35E5369FD001379FB00D112433
:1016E0008A1B9B0B982F990F980F6F01CC1ADD0A5C
:1016F000C09ED001C19EB00DD09EB00D11248B2F85
:10170000949FA0011124452F55276F01C41AD50AB3
:10171000C09EA001C19E500DD09E500D11245F01AE
:10172000A91AB108AC9E6001AD9ED00CBC9ED00C35
:101730001124CD2CDD24EC19FD09E09FE001E19F8F
:10174000D00DF09FD00D1124ED2F62307105A1F066
:1017500048F46115710569F06130710589F0EB2F6E
:10176000852F07C06430710571F088F0663071050F
:10177000B1F76E2F722F91CFE22F2B2F8D2FF9CF34
:10178000E22F252FF6CFEB2F822F2D2FF2CF2B2FED
:101790008F2DE52FEECF9F92AF92BF92CF92DF9227
:1017A000EF92FF920F931F93CF93DF936C01809181
:1017B0001601C82FCC0FCC0FC80F15E01C0FB12E8F
:1017C000113310F030E3B32E6091480666956695AC
:1017D00080913C0690913D060E942F0BF82E80E4EC
:1017E0008F0D0E94B80A90E8A92EA80E8F2D0E9496
:1017F000B80A20E8922E980ED0E0CB1580F081E058
:10180000103308F080E0DF91CF911F910F91FF908E
:10181000EF90DF90CF90BF90AF909F900895FE0122
:10182000E358FC4F8081909117018923A1F06091CA
:1018300045067091460680914706EF2C0C2F292D06
:101840004A2DF60109950E94390B462F282F672F44
:10185000CE010E94CA082196D0CF7F928F929F928C
:10186000AF92BF92CF92DF92EF92FF920F931F93AE
:10187000CF93DF935C0180911601C82FCC0FCC0F62
:10188000C80F15E01C0FF12E113310F030E3F32ECA
:1018900060914806669580913C0690913D060E94B5
:1018A0002F0B782ED0E0CF1590F081E0103308F0A8
:1018B00080E0DF91CF911F910F91FF90EF90DF902B
:1018C000CF90BF90AF909F908F907F900895FE0132
:1018D000E358FC4F8081909117018923C9F1CE0113
:1018E000880F991F87539D4FFC01EC5AFF4F2081B1
:1018F000422F4057550B6A018B5A9F4FFC01808144
:10190000282F2052330B4901449F9001459F300DF1
:10191000300D1124889CC001899C900D900D1124DC
:10192000820F931F0E94D70A082F6091450670917D
:10193000460680914706E72C9401A601F50109951A
:101940000E94390B462F282F672FCE010E94CA080C
:101950002196A9CFCF92DF92EF92FF920F931F9320
:10196000CF93DF937C0180911601C82FCC0FCC0F51
:10197000C80F15E01C0FD12E113310F030E3D32E19
:1019800060914806669580913C0690913D060E94C4
:101990002F0BC82ED0E0CD1568F081E0103308F091
:1019A00080E0DF91CF911F910F91FF90EF90DF903A
:1019B000CF900895FE01E358FC4F8081909117016C
:1019C000892311F1CE01880F991F87539D4FFC0188
:1019D000EB5AFF4F20812052330B8C5A9F4FFC0152
:1019E00040814057550B60914506709146068091A5
:1019F00047060C2DF70109950E94390B462F282F19
:101A0000672FCE010E94CA082196C5CFDF92EF92C0
:101A1000FF920F931F93CF93DF937C018091160168
:101A2000C82FCC0FCC0FC80F15E01C0F012F11339E
:101A300008F000E3609148066695669580913C0643
:101A400090913D060E942F0BD82ED0E0C01760F079
:101A500081E0103308F080E0DF91CF911F910F916A
:101A6000FF90EF90DF900895FE01E358FC4F8081D6
:101A700090911701892391F0609145067091460677
:101A8000809147062D2D4C2FF70109950E94390BA7
:101A9000462F282F672FCE010E94CA082196D6CF45
:101AA0009091E20592FF06C0282F28712830F9F4A2
:101AB000877F846093FF06C0282F28712831F1F4B6
:101AC000877E84612091E30520FF06C0382F38719E
:101AD0003830D9F4877F816021FF06C0282F287114
:101AE0002831D1F4877E816194FD877E0895282F67
:101AF00024712430F9F68B7F8860DCCF282F247185
:101B0000243101F78B7E8861DDCF382F3171313080
:101B100019F78E7F8860E0CF282F2171213121F7BE
:101B20008E7E8861E1CFCF93DF93972F70E026E020
:101B3000929F600D711D1124FB0134E5839FE00D20
:101B4000F11D1124EE0FFF1FE45AFC4FC591D491F3
:101B5000CE01C238D105B9F1E8F5C133D10509F498
:101B600099C050F5C932D10509F48DC0CA32D105EA
:101B700009F497C0C11542E5D40708F0B6C0C115F5
:101B800021E5D20708F02EC1C83ED10508F09DC05E
:101B9000C03ED10568F5C83AD10508F089C0C53AFC
:101BA000D10508F0F7C0C130D10511F1209709F433
:101BB00043C02497E8F440C0C533D10509F45CC0A4
:101BC000C933D105B9F62091E205237089F080EE82
:101BD00090E00EC0C33ED10591F168F4C03ED1053E
:101BE000F9F0C23ED10531F62091E20522FD20C078
:101BF000DF91CF910895C63ED10561F1C73ED10571
:101C000081F1C43ED10509F0B5CF2091E30521FF54
:101C1000EFCF8091E20584FD0FC087EE90E0E8CF22
:101C20002091E20520FD0EC13091E30530FFE0CFA9
:101C300083EE90E024FFDCCF90E080E0D9CF2091CC
:101C4000E20522FD02C13091E30530FDC0CF24FF43
:101C5000CFCFF2CF2091E20523FFCACF24FDECCFF6
:101C6000DCCF2091E20523FDF3C03091E30531FF85
:101C7000EECF84EE90E0BCCF2091E20525FFB8CFF7
:101C800089E290E0B5CF2091E20525FFB1CF85E351
:101C900090E0AECF2091E20526FFAACF8AE290E045
:101CA000A7CF2091E20526FFA3CF81E390E0A0CF4C
:101CB000CF3BD10508F6C85AD0E0CC0FDD1FC55682
:101CC000DD4F88819981946493CFC11530E5D307A6
:101CD00008F06CC0C11540E4D40708F063C0DA9581
:101CE000C115DF4108F484CFA7CFC11536E5D3076E
:101CF00018F5C11545E5D40708F08AC0C11584E57B
:101D0000D80708F080C09C2F96959695AE01437039
:101D10005527C115D34508F46AC021E030E002C060
:101D2000220F331F4A95E2F740E2949FC00111242D
:101D3000822B932B9A685CCFC1153AE5D30778F4D0
:101D4000C11549E5D40708F06DC0C11588E5D8076D
:101D500008F472CF9C2F8827806F906A49CFC115F5
:101D60009BE5D90708F468CFCE01C1152CE5D20751
:101D700008F465C090568115904208F05DCF8D2F14
:101D80008F710E94500D90E0982F882788279F71AF
:101D90008C2B46C0C55AD0E0C856DD4F888190E0F4
:101DA000906426CFCE019F70906A22CF9E01E4E01E
:101DB00036952795EA95E1F723708C2F86958695C1
:101DC000837040E2849FC0011124922BC37021E0F4
:101DD00030E002C0220F331FCA95E2F7822B932B0B
:101DE0009C6806CF9C2F8827816F906A01CF21E0E5
:101DF00030E002C0220F331F4A95E2F740E2949F81
:101E0000C0011124EBCF9C2F8827846F906AF0CEFD
:101E10008C2F0E94500D90E0982F882788279F7163
:101E20009062E6CE8C2F8F700E94500D34E0D695D4
:101E3000C7953A95E1F7CF709C2F9069D9CE992735
:101E40009066D6CE89E390E0D3CE82EE90E0D0CEFD
:101E500086EE90E0CDCEBF92CF92DF92EF92FF92CE
:101E60000F931F93CF93DF938C01C0900506D09002
:101E70000606E0900706F09008068091C205909152
:101E8000C305A091C405B091C505C82AD92AEA2A7C
:101E9000FB2ACFE1D0E0BC2ED701C6010C2E04C036
:101EA000B695A795979587950A94D2F780FD0EC0B1
:101EB000219788F7B12C8B2DDF91CF911F910F9136
:101EC000FF90EF90DF90CF90BF900895B8018C2FD6
:101ED0000E94930D019761F3EECFCF93DF93EC0156
:101EE0000E942B0FBE01DF91CF910C94930D0E94A5
:101EF0006D0F292F2F7092959F7092509E3078F41D
:101F0000E92FF0E0E45DFF4C0C94052D803F19F0C3
:101F100020F4883E20F481E00895843FE1F380E0DE
:101F20000895883EC0F3813FD1F7F5CF822F869583
:101F30008695869508959F92AF92BF92CF92DF9239
:101F4000EF92FF920F931F93CF93DF9320E9289F87
:101F5000E001299FD00D1124C455DF4F10E000E0AF
:101F6000FE0164913196749131968491962F972B4E
:101F7000982BC1F420E040E060E0C8010E94CA084C
:101F80000F5F1F4F23960033110551F7DF91CF915B
:101F90001F910F91FF90EF90DF90CF90BF90AF9087
:101FA0009F9008950E94390B962EB72EA82E60910F
:101FB000470670E090E080E00E94042E20E030E0D0
:101FC0004FE753E40E94632D6B017C016A2D70E0A2
:101FD00090E080E00E94062EA70196010E94922EBA
:101FE0000E94D52DA62E692D70E090E080E00E9421
:101FF000062EA70196010E94922E0E94D52D962EA4
:102000006B2D70E090E080E00E94062EA701960103
:102010000E94922E0E94D52D2A2D492DAECF40E050
:1020200060E080E00E94C80881E080930D0608957A
:1020300027982F98089526982E98089525982D98DA
:10204000089556985E980895279A2F9A0895269A8B
:102050002E9A0895259A2D9A0895CF92DF92EF92A5
:10206000FF92CF936B017C010E944906C82F0E940A
:1020700021100E941E100E941B100E941810C150B7
:10208000C73040F4EC2FF0E0E65CFF4C0C94052DDB
:102090000E942A10C701B601CF91FF90EF90DF9008
:1020A000CF9008950E942A100E942710F3CF0E941B
:1020B0002A100E942410EECF0E942A100E9427109E
:1020C000F8CFCF92DF92EF92FF92CF93DF9300D0C1
:1020D00000D0CDB7DEB70E942D106B017C0180913E
:1020E0000906882321F080910A06811115C0C0924B
:1020F0000506D0920606E0920706F09208060E94B6
:10210000F7070F900F900F900F90DF91CF91FF90F6
:10211000EF90DF90CF900895198282E08A83C70103
:10212000B6010E9449068B838EEF8C8364E0CE015A
:1021300001960E943106DBCF0F931F9341E050E0E0
:1021400060E070E004C0440F551F661F771F8A953A
:10215000D2F7CB01BA01609570958095909500916A
:1021600005061091060620910706309108066023A7
:102170007123822393231F910F910C9461109091EE
:10218000BD05809589238093BD05282F277071F4A4
:10219000282F082E000C330B9217130639F0859563
:1021A000859585950E949C101092BD0508950F930A
:1021B0001F9341E050E060E070E004C0440F551F01
:1021C000661F771F8A95D2F78091050690910606C3
:1021D000A0910706B09108068A019B01082B192BD4
:1021E0002A2B3B2BC901B8011F910F910C94611050
:1021F00084B1807F84B985B1807F85B98AB1837FBE
:102200008AB98BB1837F8BB93E984698089580B385
:102210008C7080BB81B3836F81BB0895CF9384E0C2
:1022200090E00E941B2DC82F81E290E00E941B2DA0
:10223000982F8C2FCF910895CF93DF9300D00F92DA
:10224000CDB7DEB790913206943019F589837B8340
:102250006A8382E08093E9008FEF9091E8008150DB
:1022600095FD06C095ED9A95F1F700008111F5CF27
:102270008091E80085FF0DC050E040E063E070E031
:10228000CE0101960E9492048091E8008E7780939F
:10229000E8000F900F900F90DF91CF91089520915B
:1022A0003206243021F4BC0184E00C941C11089502
:1022B000BC016058710983E00C941C11CF93DF932B
:1022C000EC01809132068430B9F5809115018823A4
:1022D000B1F18091E20587FF32C060E282E0809335
:1022E000E9008FEF9091E800815095FD06C095EDD3
:1022F0009A95F1F700008111F5CF8091E80085FFF4
:102300001BC08091150170E050E040E0811104C0D5
:1023100050E040E068E070E0CE010E9492048091BD
:10232000E8008E778093E80080E2FE01A0E1B6E04D
:1023300001900D928A95E1F7DF91CF91089568E0C1
:1023400081E0CDCF882309F475C08238B9F40E94AA
:102350000F0881FD6FC089E30E940C070E949C0654
:102360002FEF81EE94E0215080409040E1F700C0D3
:10237000000089E30E94E1060C949C068338A1F4D6
:102380000E940F0880FD56C083E50E940C070E9442
:102390009C062FEF81EE94E0215080409040E1F7C1
:1023A00000C0000083E5E6CF8438A1F40E940F0846
:1023B00082FD40C087E40E940C070E949C062FEF1C
:1023C00081EE94E0215080409040E1F700C0000091
:1023D00087E4D0CF9CEF980F913A18F40E940C0735
:1023E000CBCF90E2980F983068F4877021E030E00E
:1023F00001C0220F8A95EAF78091C005822B809355
:10240000C005BACFEBE5E80FE33038F4F0E0E8566A
:10241000FD4F808190E00C94E107885A873150F499
:10242000E82FF0E0EE0FFF1FE556FD4F8081918110
:102430000C94CB070895CF93C82F0E94A211C933E3
:1024400049F42FEF87EE93E0215080409040E1F770
:1024500000C000008C2FCF910C941B08EF92FF92CC
:102460000F931F93CF93DF930E9421100E941E10A1
:102470000E941B100E94181088E8E82EF12C8FEFA4
:1024800090E0F701918380830AE810E0F8019183DE
:102490008083CCE8D0E0998388830E942A10FFEFE4
:1024A00020E782E0F15020408040E1F700C00000CA
:1024B0000E9427109FEFE0E7F2E09150E040F040EB
:1024C000E1F700C000000E9424102FEF80E792E0A7
:1024D000215080409040E1F700C000000E941E1093
:1024E000EFEFF0E722E0E150F0402040E1F700C0DC
:1024F00000000E941B108FEF90E7E2E081509040B7
:10250000E040E1F700C000000E9418108091D00563
:102510008770FFEF8F9FC001112495958795959542
:1025200087959927F70191838083F80191838083B0
:10253000998388830E9421100E941E100E941B1004
:10254000DF91CF911F910F91FF90EF900C94181095
:102550006091CC058CE090E00C943F2D6FEE7EEF07
:1025600090E080E00E945D2D60E082E090E00E94BB
:102570003F2D60E083E090E00E943F2D1092C20565
:102580001092C3051092C4051092C50560E084E066
:1025900090E00E943F2D60E081E290E00E943F2D9C
:1025A00060E085E090E00E943F2D60E086E090E0F2
:1025B0000E943F2D6FEF87E090E00E943F2D40E0AA
:1025C00050E0BA0188E090E00E94512D60E08DE07B
:1025D00090E00E943F2D40E050E0BA0188E190E099
:1025E0000E94512D60E087E190E00E943F2D40E085
:1025F00050E0BA018CE190E00E94512D60E080E251
:1026000090E00E943F2D1092D0051092D1051092BB
:10261000D2051092D30584E080618093D00540916B
:10262000D0055091D1056091D2057091D3058FE00E
:1026300090E00E94512D40E050E0BA0183E190E02B
:102640000C94512D1092C00580911501E0EBF3E040
:10265000882359F08091E20587FF07C08EE1DF01F2
:102660001D928A95E9F70C94F70786E0F8CF1F933F
:10267000CF93DF93CDB7DEB7AA970FB6F894DEBF3E
:102680000FBECDBF84E396E02091F100FC012193C1
:10269000CF01F6E08C339F07B9F78091350689307A
:1026A00009F444C018F5823009F4B7C0833009F446
:1026B0006CC0813031F580913406813A11F58091FA
:1026C000E800877F8093E800809138069091390672
:1026D000892B41F560E280E196E070E00E94CF0531
:1026E0008091E8008B778093E8000BC08B3009F471
:1026F00069C008F481C0823409F4A0C0853409F4AB
:10270000BAC08091E80083FF65C280913406909141
:1027100035069A3008F05EC2E92FF0E0EF5BFF4C1F
:102720000C94052D60E090E080E0D7CF80913406D6
:10273000813239F78091380690913906029708F76F
:102740008091E800877F8093E8008091E80082FF15
:1027500017C09091F3008091F200029729F48091C4
:10276000F1008B7F813021F48091F10080930F067E
:102770008091E8008B778093E8000E94BE04C1CF6F
:10278000809132068111E1CFBCCF80913406813A2D
:1027900009F0B7CF8091380690913906892B09F05E
:1027A000B0CF8091E800877F8093E8008091E800B7
:1027B00080FFFCCF809115018093F1008091E800AB
:1027C0008E77D9CF80913406813209F09ACF8091EB
:1027D000380690913906892B09F093CF8091E80053
:1027E000877F8093E8000E94BE0480913606809324
:1027F00015010E94221385CF80913406813209F0A1
:1028000080CF8091E800877F8093E8000E94BE041B
:102810008091370680930E0674CF80913406813AFA
:1028200009F06FCF8091E800877F8093E800809166
:10283000E80080FFFCCF80910E06BECF8091340669
:10284000803C09F05ECF809138069091390602975E
:1028500039F58091360690913706892B09F58091DC
:10286000E800877F8093E8006BE170E080EB96E002
:102870000E94700582CF80913406803C09F041CFE0
:102880008091380690913906079751F48091E800BD
:10289000877F8093E80062EB70E08EEF95E0E8CFF1
:1028A0008091EB0080628093EB002BCF803899F011
:1028B000823809F08FC1809138068F70873008F018
:1028C00089C18093E9008091EB0085FB882780F91E
:1028D0001092E90006C08091300690913106911166
:1028E00082609091E800977F9093E8008093F100D8
:1028F0001092F1008091E8008E7768C1882309F476
:1029000056C1823009F066C180913606811159C1E5
:10291000809138068F702FEF280F263008F05AC1AB
:102920008093E9002091EB0020FF4BC1933031F4FC
:102930008091EB0080628093EB0043C19091EB00AB
:1029400090619093EB0021E030E001C0220F8A9566
:10295000EAF72093EA001092EA008091EB00886089
:10296000EACF811137C1109136061F778091E300BD
:102970008078812B8093E3008091E800877F8093AB
:10298000E8000E94BE048091E80080FFFCCF8091A7
:10299000E30080688093E30082E0111183E080937C
:1029A000320618C18058823008F014C18091360672
:1029B000909137068C3D23E09207A1F583E08A834E
:1029C0008AE289834FB7F894DE01139620E03EE057
:1029D00051E2E32FF0E050935700E49120FF03C051
:1029E000E295EF703F5FEF708E2F90E0EA30C0F01D
:1029F000C7968D939D932F5F243159F74FBF8091D8
:102A0000E800877F8093E8006AE270E0CE010196DB
:102A10000E94CF058091E8008B778093E800DAC0B0
:102A2000C096E7CF4091380650913906292F3327B9
:102A30002330310569F1A0F42130310509F46CC06F
:102A400062E570E08DE797E02230310509F0C2C001
:102A50002091E800277F2093E8000E947005DACFDC
:102A60002132310509F440C02232310509F448C051
:102A70002F30310509F0AEC0EFE0F8E0E4916E2FA1
:102A800070E08DE098E06115710509F4A3C0E0CF16
:102A9000992781309105C1F0009771F0823091053E
:102AA000D9F0039709F096C0E1EEF7E0E4916E2FBC
:102AB00070E081EE97E0E7CFE9E0F8E0E4916E2F77
:102AC00070E089E098E0DFCFEFEFF7E0E4916E2F60
:102AD00070E08FEF97E0D7CFE7EEF7E0E4916E2F4D
:102AE00070E087EE97E0CFCF41155105D1F041302E
:102AF000510509F06FC069E070E088EA97E0A8CF5F
:102B00004115510599F04130510509F063C061E765
:102B100070E08CEC96E09CCF62E170E08FEC97E087
:102B200097CF69E070E08FE897E092CF60E470E0C3
:102B30008DE397E08DCF803809F04CC08091E8009C
:102B4000877F8093E800809133068093F100D2CE96
:102B5000811140C0109136061230E0F58091E800F6
:102B6000877F8093E800109333060E94BE041123F0
:102B700011F084E005C08091E30087FDFACF81E089
:102B80008093320642E061EC81E00E94DD0442E283
:102B900061EC82E00E94DD0442E361EC83E00E948C
:102BA000DD0442E360EC84E00E94DD0413C0809108
:102BB0003606813079F481E0933009F080E080932B
:102BC00031061092E9008091E800877F8093E80049
:102BD0000E94BE048091E80083FF0AC08091E80053
:102BE000877F8093E8008091EB0080628093EB0008
:102BF000AA960FB6F894DEBF0FBECDBFDF91CF917E
:102C00001F9108950F931F93CF93DF93082F000F09
:102C1000EB0114E21093D903EAEDF3E0DE018D91AC
:102C2000819383E0EA3EF807D1F724E630E041E102
:102C300050E069ED73E0802F0E94B22C105F609627
:102C4000143B41F7DF91CF911F910F91089580912F
:102C5000ED03882329F06FEE73E084E70E940216EB
:102C60001092ED038091EE03882329F06FE774E062
:102C700087E70E9402161092EE030895E9EDF3E053
:102C80006083418324E630E042E050E0BF01880FDA
:102C90000C94B22C0F931F93CF93DF93082FE62F42
:102CA000F0E0ED5CFA4F8081882379F082E1689F43
:102CB000E0011124C15FDA4F10E04991612F802FAC
:102CC0000E943E161F5F1231C1F7DF91CF911F9115
:102CD0000F910895CF93DF93C82F4BE06DEF0E94C3
:102CE0003E1640E06AE08C2F0E943E168FE39CE97E
:102CF0000197F1F700C0000040E060E08C2F0E94D7
:102D00003E1640E061E08C2F0E943E1640E066E0F7
:102D10008C2F0E943E1640E06DEF8C2F0E943E16D5
:102D2000D0E040E06D2F8C2F0E943E16DF5FD23145
:102D3000C1F740E06D2F8C2F0E943E16DF5FD4322A
:102D4000C1F740E06D2F8C2F0E943E16DF5FD43B11
:102D5000C1F74BE06DEF8C2F0E943E1641E06AE018
:102D60008C2F0E943E1640E06DEF8C2FDF91CF91AB
:102D70000C943E166F927F928F929F92AF92BF9269
:102D8000CF92DF92EF92FF920F931F93CF93DF9337
:102D90000E94FD2B84E70E946A1687E70E946A164C
:102DA00060E3E62E61E0F62ED12CC12C72E1772E85
:102DB000E8E08E2E912CAA24A394B12C662463946F
:102DC000F701418150E0CA01849702810452110B3E
:102DD000C381C452DD0BF601EE0FFF1FEE0FFF1F84
:102DE000E05DFE4F2081237030E0FC0197FD3796B7
:102DF00043E0F595E7954A95E1F7729EA001739E31
:102E0000500D1124415F5A4FE40FF52FF11DB4010D
:102E10000E94F12CA50101C0440F8A95EAF7808138
:102E2000842B8083F80117FD379693E0F595E7959D
:102E30009A95E1F7729EC001739E900D1124815FF7
:102E40009A4FE80FF92FF11DC801B4010E94F12C2F
:102E5000A50101C0440F8A95EAF78081842B808305
:102E6000FE01D7FD379683E0F595E7958A95E1F762
:102E7000729EC001739E900D1124815F9A4FE80FDE
:102E8000F92FF11DCE01B4010E94F12CA50101C062
:102E9000440F8A95EAF78081842B80832D5C3A4F1A
:102EA000F9016082FFEFCF1ADF0A84E0E80EF11C1F
:102EB000E0E3CE16D10409F083CF60E084E70E94FE
:102EC0004A1661E087E7DF91CF911F910F91FF9044
:102ED000EF90DF90CF90BF90AF909F908F907F90BA
:102EE0006F900C944A1645E050E06CE170E084E489
:102EF00096E00C942F2D80914406982F96959695E8
:102F00009F5F9F738370963148F4990F990F892BB7
:102F100080934406109208010C9473178460F8CFD4
:102F200080914406845080934406982F9C7F21F41E
:102F30008370846580934406109208010C94731783
:102F4000E4E4F6E08181885F81830C947317E4E404
:102F5000F6E08181885081830C947317E4E4F6E0F5
:102F6000228130E1230F08F42FEF22830C94731792
:102F7000E4E4F6E0228130E1231B08F420E0228320
:102F80000C947317E4E4F6E0238130E1230F08F496
:102F90002FEF23830C947317E4E4F6E0238130E1F0
:102FA000231B08F420E023830C947317E4E4F6E079
:102FB000248130E1230F08F42FEF24830C9473173E
:102FC000E4E4F6E0248130E1231B08F420E02483CC
:102FD0000C947317E4E4F6E0880F880F90819370E7
:102FE000982B9083109208010C94731790914406CB
:102FF00096959695981720F0961710F40C947B17D9
:103000000C94EA17E4E4F6E081E3808380911901EF
:1030100090911A01A0911B0181839283A3838FE772
:1030200084830C9473170E94BA1690E080E00E948B
:10303000292D8F3E9E4F21F00E94AE120E94021851
:1030400045E050E06CE170E084E496E00E940B2DD6
:10305000809144068C7F11F40C940218089580E24C
:1030600090E090930A01809309018091D803811127
:103070000EC00E94FD2B81E08093D8032FEF83EDDB
:1030800090E3215080409040E1F700C0000064E6EA
:1030900070E080E40E94032C90930A018093090160
:1030A000892B09F04EC064E670E080E00E945F2C3E
:1030B00090930A0180930901892B09F042C064E6CC
:1030C00070E080E00E945F2C90930A0180930901D8
:1030D000892BB9F564E670E08FE30E945F2C909332
:1030E0000A0180930901892B61F50E94D92C64E6BD
:1030F00070E080E40E94032C90930A018093090100
:10310000892BF9F464E670E08CE00E945F2C9093C8
:103110000A0180930901892BA1F464E670E080E044
:103120000E945F2C90930A0180930901892B49F436
:1031300064E670E08FE30E945F2C90930A01809315
:1031400009010E94D92C809109010895CF93C82FBD
:10315000873070F58091090190910A01892B89F5DA
:1031600064E670E080E40E94032C90930A0180934F
:103170000901892BD1F464E670E082E10E945F2CA2
:1031800090930A0180930901892B79F481E090E002
:1031900001C0880FCA95EAF764E670E080950E9446
:1031A0005F2C90930A0180930901CF910C94D92C44
:1031B0008A30B9F040F4883071F0893079F0209A83
:1031C0002898CF9108958C3091F070F08D30B9F738
:1031D0003E9A4698F6CF219A2998F3CF229A2A98B8
:1031E000F0CF239A2B98EDCF529A5A98EACF539A60
:1031F0005B98E7CFCF93873008F040C080910901FA
:1032000090910A01C0E0892B71F464E670E080E4DB
:103210000E94032C90930A0180930901892B31F0BD
:10322000C0E00E94D92C8C2FCF91089564E670E005
:1032300083E10E945F2C90930A0180930901892BFE
:1032400079F764E670E081E40E94032C90930A0110
:1032500080930901892B21F784E690E00E948E2C4F
:1032600097FF05C090930A0180930901D9CFC82F19
:10327000C09510920A0110920901D3CFCFB18FB13E
:10328000869586958C73C3708C2BC82FC095CBCF39
:103290001F920F920FB60F9211242F933F934F93CB
:1032A0005F936F937F938F939F93AF93BF93CF93CE
:1032B000DF93EF93FF93D091E900DF708091EC00F2
:1032C000C82FC17080FDC0E81092E9008091F00025
:1032D000877F8093F00078940E9437131092E90062
:1032E0008091F00088608093F000CD2BCF70C09368
:1032F000E900FF91EF91DF91CF91BF91AF919F9145
:103300008F917F916F915F914F913F912F910F908E
:103310000FBE0F901F9018951F920F920FB60F922D
:1033200011242F933F934F935F936F937F938F93CA
:103330009F93AF93BF93EF93FF938091E10082FF40
:1033400009C08091E20082FF05C08091E1008B7F7F
:103350008093E1008091DA0080FF24C08091D80042
:1033600080FF20C08091DA008E7F8093DA00809108
:10337000D90080FFA1C080E189BD82E189BD09B487
:1033800000FEFDCF81E08093320680910C06811112
:1033900009C00E9442040E940F058091E2008460EF
:1033A0008093E2008091E10080FF17C08091E200ED
:1033B00080FF13C08091E2008E7F8093E2008091B5
:1033C000E20080618093E2008091D8008062809367
:1033D000D80019BC85E0809332068091E10084FF1B
:1033E0002FC08091E20084FF2BC080E189BD82E183
:1033F00089BD89B5982F917080FFFBCF8091D8004F
:103400008F7D8093D8008091E1008F7E8093E100D2
:103410008091E2008F7E8093E2008091E2008160E3
:103420008093E20080913306882309F44BC084E046
:10343000809332060E9422130E940F0810920D06FC
:103440008091E10083FF27C08091E20083FF23C0C9
:103450008091E100877F8093E10082E080933206D3
:10346000109233068091E1008E7F8093E10080917D
:10347000E2008E7F8093E2008091E2008061809381
:10348000E20042E060E080E00E94DD048091F00014
:1034900088608093F000FF91EF91BF91AF919F9171
:1034A0008F917F916F915F914F913F912F910F90ED
:1034B0000FBE0F901F90189519BC109232061092F3
:1034C0000C0670CF8091E30087FD93E09093320665
:1034D000B1CF78941F921FB61F9211248F939F93A0
:1034E000AF93BF938091C6059091C705A091C80581
:1034F000B091C9050196A11DB11D8093C605909399
:10350000C705A093C805B093C905BF91AF919F911E
:103510008F911F901FBE1F9018952FB7F894809120
:10352000C6059091C705A091C805B091C9052FBFE8
:103530000895CF92DF92EF92FF920F931F93CF9354
:10354000DF93C62F142F022FFC0182818823C1F044
:1035500060934A050E948D1A909336058093350535
:10356000C77081E001C0880FCA95EAF7DF91CF915B
:103570001F910F91FF90EF90DF90CF900C94C107B7
:1035800080914A05861351C020913505309136054A
:103590004FB7F8948091C6059091C705A091C805D2
:1035A000B091C9054FBF6C017D01EE24FF24A90134
:1035B00070E060E0821B930BC416D506E606F706A2
:1035C00008F40197883C910580F5D0E2D10FC1172E
:1035D000B9F080E28C0F883040F4C77081E001C000
:1035E000880FCA95EAF70E94B607D83048F481E000
:1035F000912F977001C0880F9A95EAF70E94C10732
:10360000802F0E941B12D830B8F4177081E001C0DF
:10361000880F1A95EAF7DF91CF911F910F91FF90D4
:10362000EF90DF90CF900C94B607C77081E001C097
:10363000880FCA95EAF7EFCFDF91CF911F910F91D5
:10364000FF90EF90DF90CF9008954F925F926F922E
:103650007F928F929F92AF92BF92CF92DF92EF9222
:10366000FF920F931F93CF93DF9300D000D00F9260
:10367000CDB7DEB77C01FC0183819481892B39F0C1
:103680001081D180812F8D218F3F09F046C70F9087
:103690000F900F900F900F90DF91CF911F910F918E
:1036A000FF90EF90DF90CF90BF90AF909F908F9062
:1036B0007F906F905F904F9008950E942B0F082F7E
:1036C000682F89819A810E946907E12FF0E026E046
:1036D000D29EE00DF11D112434E5039FE00DF11D94
:1036E0001124EE0FFF1FE45AFC4F059114918091B5
:1036F0000906882321F080910A068111FAC6F70194
:1037000082810930FDE51F0769F10A302DE51207B6
:1037100009F417C1023C3CE5130709F038C18823BE
:1037200009F4B5CF909117018091D0059F3F09F022
:1037300027C1109217018F7E8093D00540E060E092
:1037400080E00E94C8084091D0055091D105609159
:10375000D2057091D3058FE090E00E94512D97CF54
:1037600081E1CDC68823C9F18091D00591E0980F01
:103770009770887F953008F4892B8093D0058091CD
:10378000D0058770EFEF8E9FC00111249595879526
:1037900095958795992790938900809388009093B9
:1037A0008B0080938A0090938D0080938C004091D1
:1037B000D0055091D1056091D2057091D3058FE06D
:1037C00090E00E94512D609105067091060680914F
:1037D0000706909108060E942D10F7018281882328
:1037E00089F0033EFCE51F0709F4BCC108F0A6C13F
:1037F000013E3CE5130709F4AEC1023E8CE5180713
:1038000009F4AEC117FFDBC1F7018281882309F4F7
:103810004DC08091C005809349051092C0058091EC
:10382000CC05813009F4A6C1882309F49FC18230F8
:1038300009F4ADC1843009F4B1C18FE39CE901976B
:10384000F1F700C000005801E894B7F84CE0C42E2E
:10385000D12C95010C2C02C0369527950A94E2F7DD
:103860002F7087E290E031F0822F90E02A3008F04C
:103870009AC14D960E941B1294E0C91AD108ECEF30
:10388000CE16EFEFDE0629F78091CC05813009F4E2
:1038900090C1882309F489C1823009F486C184303B
:1038A00009F48BC1809149058093C005F70192818D
:1038B000992309F443C610924A050230FCE51F071C
:1038C00008F448C606312CE5120738F098012A5F43
:1038D0003C452730310508F03DC60E940E119093FB
:1038E000E3058093E2050F303CE5130709F45CC261
:1038F00008F0D6C108309CE5190709F43FC208F06A
:10390000ABC10430FCE51F0709F42CC208F091C1DB
:1039100002303CE5130709F41DC203301C4509F4CD
:103920001DC26091E2051091E30584E090E00E94E1
:103930003F2D612F81E290E00E943F2D0E942213D3
:10394000A6CE882309F449CF9091D005892F877F8F
:1039500093FF88608093D00583FF05C040E060E05E
:1039600080E00E94C8084091D0055091D105609137
:10397000D2057091D3058FE090E00E94512D2DCF9C
:103980009FEF9093170180618093D005DCCE0C30BF
:10399000FDE51F0709F4B3C060F40B303DE51307E4
:1039A00009F01BCF882309F472CE81E00E94EA1748
:1039B0006ECE0D309DE5190709F4B2C00E30EDE56D
:1039C0001E0709F00ACF882309F407CF54EFC52E4C
:1039D00055E0D52E6AE0662EF6012491222309F4E3
:1039E000FCCE213009F04AC031968491813061F4D7
:1039F000F2E0CF0ED11CF601B4908B2D0E94A211E3
:103A00008B2D0E941B0809C0823059F4F2E0CF0EC2
:103A1000D11CF60184910E94A2119FEFC91AD90A04
:103A2000DBCF833031F4F2E0CF0ED11CF60184916C
:103A3000E8CF843009F061C0F2E0CF0ED11CF6016E
:103A4000249190E080E0F60131962053330B2A3028
:103A5000310548F0019708F3EFE9FFE03197F1F7FE
:103A600000C00000F7CF689EA001699E500D112490
:103A7000C901840F951F24916F01E5CFE22FF0E07B
:103A8000EC58FA4F7490822F86958695869590E033
:103A9000FC01EC59FA4F84902770912C022E02C041
:103AA000959487940A94E2F731E083229924FC01EB
:103AB000EC5AFA4FA490B12C02C0B594A7942A9561
:103AC000E2F781E0A822BB248114910419F081EE71
:103AD0000E94A211A114B10419F086EE0E94A21155
:103AE000872D0E941B12AB2819F086EE0E941B083E
:103AF00081EE892809F491CF84CF6F018ECF88237E
:103B000009F4C5CD81E00E94EA178CEA809345064E
:103B10008FEF80934606809347060E947317B7CDB8
:103B2000882309F4B4CD81E00E94EA1786E58093EA
:103B300045068FEF8093460680E8EDCF043E9CE576
:103B4000190791F084E0053EECE51E0709F05ACE16
:103B50008093CC0502C01092CC050E94A81252CED0
:103B600081E0F6CF82E0F4CF83E0F2CF82EE0E94D4
:103B7000A21163CE83E00E94AC0788E10E94A211EB
:103B800088E10E941B0883E00E94A10756CE82EEC6
:103B90000E94A21187E50E941B124FCE86EE0E9462
:103BA0001B1288E1F8CF069765CE82EE0E941B08B3
:103BB00079CE8CE20E941B1275CE88E2FBCF033FC8
:103BC000FCE51F0739F1A0F4083D3CE51307F1F0CF
:103BD000093D8CE5180751F1073D9CE5190709F0EF
:103BE00065CE26E241EE61EEC7010E94991A4FCDE3
:103BF000053FECE51E07B1F088F0063F2CE5120703
:103C000009F054CE27E245EE66EEEECF27E245EE10
:103C100065EEEACF26E241EE60EEE6CF27E245EE22
:103C200064EEE2CF26E241EE62EEDECF28E241E032
:103C3000EFCF8091E205806106309CE5190709F419
:103C400047C08091E205886007301C4508F440C0F9
:103C50008091E20580623CC00B30FCE51F0709F44F
:103C60009BC068F409303CE5130709F48BC00A30A7
:103C70001C4509F056CE8091E2058C6029C08091E8
:103C8000E2058B7F0D309CE5190711F18091E2056B
:103C90008D7F0E301C45E0F08091E205877F18C0D3
:103CA0000A3FFCE51F0709F461C060F502313CE5FD
:103CB000130709F481C078F400319CE5190709F471
:103CC00077C08091E2058F7B01311C4509F029CE38
:103CD0008093E20526CE0431FCE51F0709F47AC083
:103CE00008F470C005311C4509F01BCE8091E20537
:103CF00082FB992790F921E0922790FB82F990FBB3
:103D000083F9E6CF0D3F8CE5180709F449C070F43C
:103D10000B3FECE51E0771F18091E3058E7F0C3FB0
:103D20001C4509F0FECD8093E305FBCD0F3F2CE54C
:103D3000120709F44BC060F101151D4509F0F1CDE2
:103D40008091E305982F909591708E7F892B90FB41
:103D500081F9E9CF8091E2058160BACF8091E205D7
:103D60008260B6CF8091E2058460B2CF8091E30596
:103D70008160D9CF8091E3058260D5CF8091E20543
:103D80008064A6CF0E9422138091E2058068A0CFB4
:103D90008091E3058360C7CF8091E2058E7F98CF45
:103DA0008091E3058D7FBFCF8091E2058F7E90CF1C
:103DB0008091E2058F7D8CCF0E9422138091E205D5
:103DC0008F7786CF8091E205837F82CF8091E30554
:103DD0008C7FA9CF0E9422139091E205892F97FB37
:103DE00087F9805875CF85E3C5C385E3B0C39923B0
:103DF00009F4B8C08091C0058272F801E25CFC450C
:103E0000E431F10508F059C0E55BFF4C0C94052D39
:103E10008091440691E0892780934406109208011E
:103E20007CCE40E957E16BE777E10E9471082FCC27
:103E30004BE757E160E977E1F8CF47EA57E160EAFD
:103E400077E1F3CF40EA57E167EA77E1EECF48EB5D
:103E500057E16EEA77E1E9CF4EEA57E168EB77E1A7
:103E6000E4CF4CEC57E162EC77E1DFCF42EC57E175
:103E70006CEC77E1DACF40EE57E166ED77E1D5CF34
:103E800046ED57E160EE77E1D0CF65E082E00E9439
:103E9000F617FDCB68E086E0FACF6EE089E0F7CF59
:103EA00064E18FE0F4CF67E185E1F1CF88E17ECD79
:103EB00062E289E1ECCF83E279CD0E3DECE51E07AD
:103EC00009F446C00830FDE51F0709F444C0011598
:103ED0001C4509F047C00E9422133FEF84E39CE099
:103EE000315080409040E1F700C00000F89481E03C
:103EF0008093E00080E28093D8001092C900EFE147
:103F0000FEE43197F1F700C000001DBA109268007E
:103F10001CBC10BE1FBA10927A0010926E00109254
:103F20006F0010927100109272001092C9001092EE
:103F3000BC0014B817B81AB81DB810BA1092BC005B
:103F400015B818B81BB81EB811BA0C94003F9FCB17
:103F50000E94AE129CCB80910B0691E08927809342
:103F60000B0695CBF701008111819923C9F1C80196
:103F70000E942B0FD82E682FC8010E946907B80134
:103F80008D2D0E94930D8C01B82EF701C580C2942F
:103F90003FE0C322D280D1101092BF058091BD05B1
:103FA000877079F0DD2069F080E2800F883048F07A
:103FB00082E00E94BF108091BD058770AA24A3945F
:103FC0008111A12C912E92942FE09222FBE0F91501
:103FD00008F440C0E92DF0E0E15AFF4C0C94052DA7
:103FE000C8010E944007D82ECACF212F2F70C22EA1
:103FF000107F19F0C29490EFC922DD20C9F0CC20C7
:1040000069F080E2800F883010F0B1100BC0809111
:10401000C005C82AC092C0050E949C06802F0E943D
:10402000A21118C08091BF05C82AC092BF05F4CF65
:10403000802F0E941B08CC2069F0C094005E0830DD
:1040400010F0B11028C08091C005C822C092C005F0
:104050000E949C06292D2850330B2430310510F482
:104060000E940F08AA2009F412CB8091BD0580FDA3
:104070000ECBF70112828595859585950E94D71004
:10408000C7010E94251B8091BD0585958595859565
:104090000E949C10FCCA8091BF05C822C092BF0537
:1040A000D7CF312F3F70832E107F103219F08294BA
:1040B00080EF8822802FBB2041F091E0B91631F1CA
:1040C000DD2079F1CC2041F1A9CFDD2091F0909154
:1040D000C105882D892BC11003C00E94C107BACF2A
:1040E000E1E0CE12FACF891709F4B4CF8093C1056D
:1040F000B1CFC11006C00E949606882D0E94B60757
:10410000A9CFF1E0CF1609F4A5CFF5CFDD2031F02E
:1041100021E02C1508F49ECF882DDFCFC1109ACF57
:10412000ECCFCC2051F3893349F43FEF87EE93E095
:10413000315080409040E1F700C00000802F0E9485
:104140001B0888CF812F86958695837061F081301A
:1041500009F080CFC8019370D11002C090E080E0D8
:104160000E94CB0777CFC8019370D11002C090E0B6
:1041700080E00E94E1076ECF812F837009F066C056
:10418000D11068CF802F829586958770880F880F11
:10419000602F6F70462E512C712C612C082E04C09C
:1041A000440C551C661C771C0A94D2F740E050E082
:1041B000BA0104FF0FC04FE050E060E070E004C0BF
:1041C000440F551F661F771F8A95D2F7409550956B
:1041D00060957095812F869586958370823019F150
:1041E000D8F40091C2051091C3052091C405309107
:1041F000C505813069F04429552966297729CB0105
:10420000BA0160237123822393230E94050822CFE1
:10421000402A512A622A732ACB01BA0164297529DE
:1042200086299729F2CF44295529662977290091B3
:10423000C2051091C3052091C4053091C505CB017D
:10424000BA016027712782279327DFCF8695DD206B
:1042500011F0812F8170882309F4FCCE802F829584
:1042600086958770880F880F602F6F70462E512CAF
:10427000712C612C082E04C0440C551C661C771C44
:104280000A94D2F740E050E0BA0104FF0FC04FE0BB
:1042900050E060E070E004C0440F551F661F771FB8
:1042A0008A95D2F74095509560957095812F8695A7
:1042B00086958370823019F1D8F40091050610912B
:1042C00006062091070630910806813069F04429DE
:1042D000552966297729CB01BA01602371238223EE
:1042E00093230E946110B6CE402A512A622A732A73
:1042F000CB01BA016429752986299729F2CF44296F
:104300005529662977290091050610910606209106
:10431000070630910806CB01BA0160277127822772
:104320009327DFCF1F70DD2029F0812F0E94D71047
:10433000802FD3CE802F0E94B607812F0E949C1021
:1043400089CE802FE2EFBE1609F44EC0EB1578F04F
:10435000F0EFBF1619F121EFB21609F43DC0DD20D0
:1043600009F465C0C1105ACE812F8F713AC033EF66
:10437000B31609F43EC094EFB912F1CFDD2009F471
:104380004BC01F71812F0E94D710F8E01F9FC00102
:10439000112483608093BD05812F23C0DD20B9F0F7
:1043A000C11058CE1F7161E070E080E090E004C061
:1043B000660F771F881F991F1A95D2F7009105067F
:1043C000109106062091070630910806A6CFE1E07D
:1043D000EC1508F43FCEE6CF812F8F71DD2009F474
:1043E000ADCF0E94D71036CE812F8F71DD20C9F35B
:1043F000A5CF60E070E0CB01DD2009F472CF1F7122
:1044000061E070E080E090E004C0660F771F881FD5
:10441000991F1A95D2F765CF81E00E94BF1021E065
:104420002C1508F017CE82E00E94BF1013CEC110E9
:104430007ACE812F8F7182CFE2EFBE16D1F1EB15CC
:1044400000F1F0EFBF1649F121EFB216D1F18091E2
:104450004C05CC2009F441C0882341F080914D05E2
:1044600091E0892780934D0510924C05802FD11043
:10447000D6CD0E941B0886E0F70111928A95E9F7D4
:10448000E9CD34EFB316C1F0B31688F085EFB8125A
:10449000DECFD110DFCD81E007C0DD2009F4DACD19
:1044A00080914D0591E0892780934D05D3CD81E022
:1044B000D826D0924D05CECDD110CCCD10924D0541
:1044C000C9CDDD2039F080914C05882349F3109245
:1044D0004C05C0CDCC2021F3BDCD882309F4BACD45
:1044E000D110B8CD80914D0591E0892780934D057D
:1044F000EECFF70182811982811132C982E18A836C
:10450000F70180818B8381818C838EEF8D8365E0C1
:10451000CE0101960E943106F2C885E0DE011196B7
:1045200001900D928A95E1F7F701228189819A81A4
:104530002111C3C80E944007082FC7C806311C4577
:1045400009F010CD80914B0581114FCC89E20E947A
:10455000E10612C006312CE5120709F048CC809123
:10456000C0058A7A91E009F490E090934B0581119F
:104570003ACC89E20E940C070E949C0688C81F93CF
:10458000CF93DF9380915305807FC1F480915005D4
:104590008823A1F080918505C091540560914E0556
:1045A00070914F054091510550915205D62FD72358
:1045B000DA01A095B09516E0C81304C0DF91CF9141
:1045C0001F91089590E04115510511F0DF3F31F43E
:1045D00001968770F1CF2A0F3B1F17C0189FF0017B
:1045E000199FF00D1124EB5AFA4F21812713F0CFB8
:1045F00020812613EDCF22812111EACF238134813E
:104600002417350740F3241B350B283C310500F7F0
:10461000209153052F7020612093530526E0289F99
:10462000F001299FF00D1124E65AFA4F80818F7016
:10463000806180838EE495E00E94251BDF91CF91FD
:104640001F910C949707BF92CF92DF92EF92FF9247
:104650000F931F93CF93DF93CDB7DEB761970FB65C
:10466000F894DEBF0FBECDBF8C0185E0F801DE01FE
:104670001D9601900D928A95E1F7D8012C91119623
:104680003C9111971296EC90129780915105909160
:104690005205009709F463C140914E0550914F05B2
:1046A000642F65236F3F09F45AC11396CD90DC90B7
:1046B000B0905005BB2009F413C1C816D906C0F14B
:1046C000F601E81BF90BCF01FF24F394883C910518
:1046D00008F0F12C80915305982F907FFF2009F46A
:1046E000C1C091117DC0FE2C531327C0421325C0B9
:1046F000E11023C08F708061809353058EE495E0B4
:104700000E94251B80915305D80115968C938F2DFF
:1047100061960FB6F894DEBF0FBECDBFDF91CF918B
:104720001F910F91FF90EF90DF90CF90BF90089571
:10473000809590958C0D9D1DC7CFCD2829F0822F97
:1047400083238F3F09F035C180E0B82FB170DB2E95
:1047500080FF3CC0809185054091540556E084134C
:1047600015C02D873E878D859E850E946D0F292F50
:1047700022952F702230F0F0243018F59F70F1F060
:10478000F8019581907FD1F4D12C1EC090E0589F04
:10479000F001599FF00D1124EB5AFA4F6181361345
:1047A00006C06081261303C06281E6120FC0019625
:1047B0008770D5CF9F7011F0882331F3805E8830E9
:1047C00018F3C8010E94251BFD2CA1CFEE2009F48F
:1047D0009ECF80915305816080935305F12C97CF34
:1047E000531313C0421311C0E1100FC0D801159626
:1047F0008C93C8010E94251B86E0F801AEE4B5E069
:1048000001900D928A95E1F782CF2D873E878D85A5
:104810009E850E94770F882309F1EE20F9F08091A0
:104820005305803270F020914E0530914F05388746
:104830002F831986DB86CA868C87CE0107960E9455
:10484000251B86E0F801AEE4B5E001900D928A9553
:10485000E1F70E94BF22FF24F39459CFC8010E94C0
:10486000251BF9CF91110CC08EE495E00E94251B09
:1048700086E0EEE4F5E0DF011D928A95E9F747CF87
:10488000531312C0421310C0E1100EC0F80185830B
:10489000C8010E94251BEEE4F5E086E0DF011D92D1
:1048A0008A95E9F7FB2C33CF2D873E878D859E8532
:1048B0000E94770F882391F2EE2081F280915305B8
:1048C000803208F4BECF20914E0530914F053A83D7
:1048D00029831B82DD82CC828E83CE010196AFCFED
:1048E000C816D90640F0C81AD90AB8ECCB16D104BC
:1048F00048F0F12CBDCF809590958C0D9D1D883C86
:104900009105B8F7FE2CEE2009F4A8CF531316C07A
:10491000421314C08091530580FD6ECF982F907F75
:1049200009F46ACFF8018583903F09F462CF982F8C
:10493000907F905F8F70892B85835BCF2D873E871B
:104940008D859E850E94770F81117BCF80915305C5
:10495000816080935305C8010E94251BD8CEEE20AC
:1049600009F47CCF2D873E878D859E850E94770F29
:10497000F82E882309F472CF86E0F801AEE4B5E0A2
:1049800001900D928A95E1F780914E0590914F0527
:104990000E946D0F92959F70963041F480914D0565
:1049A00091E0892780934D0590934C050E94BF228A
:1049B000AECE81E08E25C9CE1F93CF93DF93CDB7C6
:1049C000DEB767970FB6F894DEBF0FBECDBF6D8B15
:1049D0007E8B8F8B8E899F89892BE1F0852F842395
:1049E0008F3F09F098C05FEF4FEF14C030914D0535
:1049F000332309F44EC0E42FF0E036E0539FE00D7E
:104A0000F11D1124EE0FFF1FE051FE4F4081518137
:104A1000822B8C931A8A198A4B8B5C8B85E0FE0162
:104A20007396DE011D9601900D928A95E1F786E05E
:104A3000FE013D96DE01179601900D928A95E1F7F1
:104A4000CE0107960E942323811112C086E0FE0149
:104A50003796DE01119601900D928A95E1F78A85CD
:104A60009B85892B29F08F81988589238F3FC9F5F4
:104A700016E08091850590915405891320C06796B2
:104A80000FB6F894DEBF0FBECDBFDF91CF911F915F
:104A9000089580958223BDCF96E0929FD001939F89
:104AA000B00D1124AB5ABA4FFE01319601900D9210
:104AB0009A95E1F7809354050E949707D9CF819F7B
:104AC000C00111248B5A9A4F0E9423238823B9F2E4
:104AD0008091850590E001968770992780938505E0
:104AE000C8CF2091540530E0C901019687709927FD
:104AF000409185054817190679F60E9422131092F5
:104B000054051092850586E0EEE4F5E0DF011D9284
:104B10008A95E9F7ADCF81E090E0042E01C0880FBF
:104B20000A94EAF7A52FB0E0A55CBA4F2C913D8915
:104B300031115CCF322F38235BCF8F929F92AF928F
:104B4000BF92CF92DF92EF92FF920F931F93CF937A
:104B5000DF938091090190910A01892BA1F0809146
:104B6000D7038F5F8093D70381110DC00E942F1848
:104B700090E090930A0180930901892B21F40E940F
:104B800013180E942E1264EDE62E65E0F62E6701E2
:104B9000C0E010E007E00C0F8C2F0E94A618802FB9
:104BA0000E94A6188C2F0E94FA18F60191916F01AD
:104BB000D0E0891719F031978083D1E0802F0E94CF
:104BC000FA18F6019681891709F463C0868381E09B
:104BD0008D2B182B0E94F810CF5FC730D9F60E949A
:104BE0008D1A6AEF70E00E94DD2CB82FA091CF03E0
:104BF000AA2309F4A2C21092CF03E091CA05F09152
:104C0000CB054F012EE0820E911C40E00BEF5AEFD6
:104C1000C52ED12C51915B3F81F0652F70E02B2F79
:104C2000392F8517C0F1261B370B2E313105CCF1FA
:104C30009F0121503109E90108838E169F0651F723
:104C40004093CF03111102C0411179C21092CE03DB
:104C5000A091CA05B091CB052091CF03E7EEF5E016
:104C600090E04191E70139917E01431741F04C9169
:104C70004B3FC9F48C93EF012197388321E01196C3
:104C8000D5E0E53FFD0769F72093CF039093CE036E
:104C90005AC280E09DCFE601C61BD70B2C0F3D1FEB
:104CA000C4CF4A2FCACF91E0EACF0197A109B10939
:104CB00063C2840F951FA61FB71F94C210921601DE
:104CC00080923C0690923D06A0923E06B0923F062E
:104CD00081E080930801F110AFC28091D00583FD7F
:104CE000ABC260910506709106068091070690910F
:104CF00008060E944906813009F4D3C1882309F4CB
:104D0000CBC1823009F4D0C180911701811194C2C6
:104D100040E060E00E94C8088FC28091070108133C
:104D200016C09091440693702091060130E081E016
:104D30009217130609F480E0817080931801063100
:104D400010F5E02FF0E0E559FF4C0C94052D81E0C3
:104D5000F3CF882309F442C080911601C82FCC0FED
:104D6000CC0FC80F35E0E32EEC0EDE2CF0E3FE1581
:104D700010F420E3D22ED0E0CD1538F081E09FE290
:104D8000B92EBE1458F580E029C020E040E060E074
:104D9000CE010E94CA082196EFCF80911601C82F3C
:104DA000CC0FCC0FC80FD5E0ED2EEC0EDE2C20E39F
:104DB0002E1510F4B0E3DB2E609145067091460687
:104DC000809147060E94390BC62EB72EA82ED0E040
:104DD000CD15C0F081E09FE29E15A8F290911601DA
:104DE0009F5F90931601811120C282E08093080199
:104DF00080911801811119C2011117C283E08093BB
:104E0000080113C2FE01E358FC4F80819091170105
:104E1000892331F02A2D4C2D6B2DCE010E94CA081A
:104E20002196D6CF80911601C82FCC0FCC0FC80F7A
:104E3000A5E0EA2EEC0ECE2CD0E3DE1510F4F0E364
:104E4000CF2EB0904606A090470620914806E0E499
:104E5000DE2E3D2D329F312D1124D32ED0E0CC15E6
:104E600008F0B8CFFE01E358FC4F80819091170104
:104E70008923B9F0FE01EE0FFF1FE25EFC4F808137
:104E800082958F70609145068D9D600D11247B2D5C
:104E90008A2D0E94390B462F282F672FCE010E94A2
:104EA000CA082196DCCF80911601C82FCC0FCC0FF9
:104EB000C80F65E0E62EEC0ECE2CD0E3DE1510F424
:104EC00050E3C52EB0904606A090470620914806B4
:104ED00040E4D42E3D2D329F312D1124D32ED0E02D
:104EE000CC1508F077CFFE01E358FC4F80819091FC
:104EF00017018923D9F0FE01EE0FFF1FE35EFC4F7F
:104F00006081D69EB001112435E0759567953A957C
:104F1000E1F780914506680F7B2D8A2D0E94390BA1
:104F2000462F282F672FCE010E94CA082196D8CF7E
:104F300080911601C82FCC0FCC0FC80F95E0E92E39
:104F4000EC0EDE2CD0E3DE1510F480E3D82EC090FA
:104F50004506D0914606B090470660914806669592
:104F60006695669580913C0690913D060E942F0BB8
:104F70000E94B80A805887FD8195880F282F3B2D05
:104F8000239F212D1124822F6C2D7D2F0E94390B00
:104F9000C62EB72EA82ED0E0CD1508F01BCFFE01EF
:104FA000E358FC4F808190911701892331F02A2D1D
:104FB0004C2D6B2DCE010E94CA082196EDCF83ECBB
:104FC00099E00E94060D0ACF89E999E0FACF8AE9B3
:104FD0009AE00E94AA0C02CF8BE79AE0FACF80E613
:104FE0009AE00E942D0CFACE84E49AE0FACF87E989
:104FF00099E0E7CF8EE899E0E4CF85E899E0E1CF4A
:105000008CE699E0DECF8EE599E0EBCF87E09BE080
:10501000E0CF83E39AE0DDCF8FE19AE0E2CF81E356
:1050200099E00E94CB0BDACE83E099E0FACF8CECCA
:1050300098E0F7CF00930701809144068370809336
:1050400006010E942716DACE40913C0650913D069B
:1050500060913E0670913F062FB7F8948091C60587
:105060009091C705A091C805B091C9052FBF8417BD
:105070009507A607B70760F0841B950BA60BB70B27
:105080004A97A105B10508F4D0C010920801CDC01F
:105090000197A109B109F0CF90E080E00E949B0F39
:1050A000CBC081E090E0FACF82E090E0F7CF917042
:1050B000892B09F4D3C08091D5039091D603813018
:1050C000984780F010920B066091050670910606D5
:1050D00080910706909108060E942D101092D60329
:1050E0001092D5038091D5039091D60301969093A9
:1050F000D6038093D503812FDF91CF911F910F911C
:10510000FF90EF90DF90CF90BF90AF909F908F90E7
:1051100008950E942710A9C0892B69F31092D60325
:105120001092D503609105067091060680910706DE
:10513000909108060E942D10DECF111187CD90911D
:10514000CE03911183CD4091D0035091D103609152
:10515000D2037091D3032FB7F8948091C605909134
:10516000C705A091C805B091C9052FBF8417950741
:10517000A607B70708F499CD841B950BA60BB70BB0
:105180002FB7F8948090C6059090C705A090C805E9
:10519000B090C9052FBF8092D0039092D103A09206
:1051A000D203B092D30340914006509141066091E2
:1051B0004206709143064F3FEFEF5E076E077E0792
:1051C000C9F0AA27BB276C017D01C094D094E0945C
:1051D000F094C416D506E606F70608F06ACD8FEF00
:1051E0009FEFDC018093400690934106A093420616
:1051F000B0934306F0900D0600E0F11008C08091D6
:105200004406082F037019F0082F06950695809123
:105210000801813009F481CD882309F44FCD823013
:1052200009F408CF833009F40FCFF11005C0809145
:105230000D06882309F451CD8091D5039091D603B2
:1052400020910B06222309F467CF009709F02FCF96
:105250000E941E100E941B100E941810C091D403BF
:10526000CC2309F456CF0E941B1081E0C827C093BD
:10527000D40321CFCDB7DEB7C955D1090FB6F89405
:10528000DEBF0FBECDBF84B7877F84BF0FB6F89453
:10529000A895809160008861809360001092600002
:1052A0000FBE80E890E00FB6F89480936100909371
:1052B00061000FBE85B7806885BF85B7806885BFF0
:1052C0000E9442040E940F058091E2008460809356
:1052D000E2007894809132068823A1F01091E900D1
:1052E0001F709091EC00892F817090FD80E8182B41
:1052F0001092E9008091E80083FD0E9437131F702F
:105300001093E90082E084BD93E095BD9AEF97BDCC
:1053100080936E000E942F1890E090930A01809372
:1053200009010E94F8100E940711A4EDB5E0F5EF05
:10533000CF2EF5E0DF2EE7EEF5E011921D92CE16AE
:10534000DF06D9F78EE090E00E94FF2E8093CA0519
:105350009093CB05FC010E962BEF2193E817F907EC
:10536000E1F790E080E00E94292D8F3E9E4F11F0E2
:105370000E94AE120E9413188CE090E00E941B2D38
:1053800090E0B0E0A0E08093CC059093CD05A09391
:10539000CE05B093CF0589EA8093800089E08093A1
:1053A000810024982C983F988AB18F7C8AB96E9896
:1053B000479A8BB180638BB9769A8FE090E00E9418
:1053C000232D6093D0057093D1058093D2059093DF
:1053D000D30567708FEF869FB0011124759567958F
:1053E000759567957727709389006093880070930F
:1053F0008B0060938A0070938D0060938C00909175
:10540000D00594FFCFC0809317010E942E1290E028
:1054100080E00E94292D8F3E9E4F11F00E94AE1217
:1054200082E090E00E941B2D8093F6050E940E11F1
:105430009093E3058093E20583E090E00E941B2DAA
:10544000682F70E090E080E00E9405080E94BB0891
:105450000E94BB080E9473178BE091E09093E505D2
:105460008093E405EE24EA949EEFF92E23E0522E79
:1054700031E4A32EB12CAC0EBD1EF2E0AF0EB11C78
:1054800040E1342E52E1252E68E1862E912C70E405
:10549000472E80913206853009F487C00E949D25F1
:1054A000A7EFB5E0E7EEF5E010E000E0302F8191E6
:1054B0002D91281709F4C8C090E077247394282709
:1054C000422F472109F4BBC061969FAF6197629656
:1054D0003FAF6297872191E009F490E063969FAF18
:1054E00063970E948D1A8160782F65969FAF8EAF6B
:1054F000659761964FAD619762965FAD62976396CF
:105500006FAD639765968FAD65970E94DC24F801B7
:10551000E950FA4F8081782670820E940F0890919E
:10552000F505891721F00E940F088093F5058091F9
:105530003206843009F0ADCF8093E9008091E80015
:1055400082FFA7CF8091E80090E085FF06C00E940F
:105550006104882309F49EC091E08091E8008B7774
:105560008093E800992309F494CF19811111B0C0F8
:1055700080910B06882309F4C5C010920B0681E0C8
:1055800080930A0622961FAE229723961FAE23977A
:105590002496FFAE249763E0CE018F5B9F4F0E945D
:1055A000310677CF1092170130CF0E940F108091F3
:1055B0003206843019F11092E6050FB6F894A895DA
:1055C000809260000FBE409260000E940F1083B76F
:1055D000817F846083BF83B7816083BF789488951F
:1055E00083B78E7F83BF0FB6F894A8958091600033
:1055F000886180936000109260000FBE8091310638
:10560000882309F446CF0E942F1890E090930A0156
:10561000809309010E94F8100E940711E7EEF5E05F
:105620001192CE16DF06E1F70E949D25E7EEF5E028
:1056300081918111A7C0CE16DF06D1F72ACF9F5FD7
:10564000770C963009F03CCF0F5F1F4F0E301105DD
:1056500009F02CCF6696EFAE66976796EFAE679728
:1056600068961FAE68970E948D1A8160782F6A969F
:105670009FAF8EAF6A9766964FAD669767965FADA0
:10568000679768966FAD68976A968FAD6A970E9424
:10569000DC2443CF80E4682E712C8E010F5F1F4FF6
:1056A0008091E80085FD0AC08091E8008B778093A7
:1056B000E8000E946104882399F34ECF8091F100A5
:1056C000F80181938F01F1E06F1A710849F744CF17
:1056D0001130C1F422961FAE229723961FAF239755
:1056E0008CE0ECE1F1E0D50101900D928A95E1F7B3
:1056F0006096FFAE60976FE0CE018F5B9F4F0E9478
:105700003106C7CE80910A068823C1F1123041F0DC
:105710001330F1F081E022968FAF229761E03CCF09
:105720006091050670910606809107069091080623
:105730000E94490622961FAE229723961FAF2397F9
:1057400024968FAF24972596FFAE259764E024CF4B
:105750008A81813041F0882341F08230D9F681E09E
:105760008093090602C01092090622961FAE229766
:1057700023965FAE239780910906E2CF2296EFAE83
:105780002297CCCF39BC29BC09B400FEFDCF809153
:10579000D8008F7D8093D8008091E0008260809354
:1057A000E0008091E00081FDFCCF73CE1F921FB618
:1057B0001F9211248F939F93AF93BF938091E6051F
:1057C000811113C08091C6059091C705A091C805AD
:1057D000B091C9054196A11DB11D8093C605909356
:1057E000C705A093C805B093C905BF91AF919F911C
:1057F0008F911F901FBE1F9018951092B9008CE0DA
:105800008093B8000895EF92FF920F931F93CF9368
:10581000DF93182FEB011092BC0084EA8093BC0048
:105820000E948D1A7C018091BC0087FF27C0809167
:10583000B900887F883029F08091B900887F803155
:10584000D9F51093BB0084E88093BC000E948D1AA8
:105850008C018091BC0087FF24C02091B900287F73
:1058600090E080E02831B1F081E090E0203411F444
:1058700090E080E09195819591090CC0CF3FDC07C5
:1058800091F20E948D1A8E199F098C179D0758F26C
:105890008EEF9FEFDF91CF911F910F91FF90EF90CF
:1058A0000895CF3FDC07A9F20E948D1A801B910B4F
:1058B0008C179D0770F2ECCF8FEF9FEFEBCF0F931C
:1058C0001F93CF93DF93EB018093BB0084E8809319
:1058D000BC000E948D1A8C018091BC0087FF11C012
:1058E0002091B900287F81E090E0283211F490E007
:1058F00080E0919581959109DF91CF911F910F9152
:105900000895CF3FDC0741F30E948D1A801B910B55
:105910008C179D0708F38EEF9FEFEECF0F931F9329
:10592000CF93DF93EC0184E88093BC000E948D1A32
:105930008C018091BC0087FF08C08091BB0090E083
:10594000DF91CF911F910F910895CF3FDC0789F32D
:105950000E948D1A801B910B8C179D0750F38EEFC0
:105960009FEFEECFCF92DF92EF92FF920F931F93B4
:10597000CF93DF936B018A017901B9010E94032C57
:10598000E6010C0D1D1DC017D10761F424E9209319
:10599000BC00DF91CF911F910F91FF90EF90DF90AE
:1059A000CF90089597FDF2CFB70189910E945F2CA7
:1059B000EACF84E98093BC000895AA1BBB1B51E188
:1059C00007C0AA1FBB1FA617B70710F0A61BB70B6F
:1059D000881F991F5A95A9F780959095BC01CD0114
:1059E000089597FB072E16F4009407D077FD09D091
:1059F0000E94DD2C07FC05D03EF4909581959F4FC9
:105A00000895709561957F4F0895EE0FFF1F0590E3
:105A1000F491E02D0994DC01CB01FC01F999FECF52
:105A200006C0F2BDE1BDF89A319600B40D92415026
:105A30005040B8F70895F999FECF92BD81BDF89A0C
:105A4000992780B50895A6E1B0E044E050E00C94B9
:105A50000D2DA8E1B0E042E050E00C940D2DDC01EA
:105A6000A40FB51F4150504048F0CB01840F951F43
:105A70002E910E94402D41505040D0F70895262F7E
:105A8000F999FECF92BD81BDF89A019700B4021634
:105A900039F01FBA20BD0FB6F894FA9AF99A0FBEE2
:105AA00008950396272F0E94402D0E943F2D252FF9
:105AB0000E94402D242F0C94402D0196272F0E94E8
:105AC000402D0C943F2D0E94772D0C94582E0E944F
:105AD000512E58F00E944A2E40F029F45F3F29F0E1
